:020000040800F2
:10000000000008240DAC0008718D0008758D0008F3
:10001000B18D0008ED8D0008298E00080000000059
:10002000000000000000000000000000658E0008D5
:10003000698E0008000000006D8E0008718E0008B7
:1000400061AC000861AC000861AC000861AC00085C
:1000500061AC000861AC000861AC000861AC00084C
:1000600061AC000861AC000861AC000861AC00083C
:1000700061AC000861AC000861AC000861AC00082C
:1000800061AC000861AC000861AC000861AC00081C
:1000900061AC000861AC000861AC000861AC00080C
:1000A00061AC000861AC000861AC000861AC0008FC
:1000B00061AC000861AC000861AC000861AC0008EC
:1000C00061AC000861AC000861AC000861AC0008DC
:1000D00061AC000861AC000861AC00088D8E0008BE
:1000E00061AC000861AC00080000000061AC0008D1
:1000F00061AC000861AC000861AC000861AC0008AC
:1001000061AC000861AC000861AC000861AC00089B
:1001100061AC000861AC000861AC000861AC00088B
:1001200061AC000861AC000861AC0008758E000885
:1001300061AC000861AC000861AC000861AC00086B
:1001400000000000000000000000000000000000AF
:1001500061AC000861AC000861AC000861AC00084B
:1001600061AC000861AC000861AC000861AC00083B
:1001700061AC000861AC0008818E0008000000003E
:1001800061AC000861AC000861AC000861AC00081B
:1001900061AC000861AC000861AC000861AC00080B
:1001A00061AC000861AC000861AC000861AC0008FB
:1001B00061AC000861AC000861AC000861AC0008EB
:1001C00061AC000861AC000861AC000861AC0008DB
:1001D00061AC000861AC000861AC000861AC0008CB
:1001E00061AC000861AC000861AC000861AC0008BB
:1001F00061AC000861AC000861AC000861AC0008AB
:1002000061AC000861AC000861AC000861AC00089A
:1002100061AC000861AC000861AC000861AC00088A
:1002200061AC000861AC000861AC0008000000008F
:1002300061AC000861AC00080000000061AC00087F
:1002400061AC000861AC000861AC000861AC00085A
:1002500061AC000861AC000861AC000861AC00084A
:1002600061AC000861AC000861AC000861AC00083A
:1002700061AC000861AC000861AC0008000000003F
:1002800061AC000861AC000861AC0008000000002F
:080290000000000061AC000851
:1002A00010B5054C237833B9044B13B10448AFF3B0
:1002B00000800123237010BD404B0024000000008B
:1002C0004431020808B5034B1BB103490348AFF39F
:1002D000008008BD00000000444B002444310208A7
:1002E00010F8012B11F8013B012A28BF9A42F7D0E0
:1002F000D01A7047034613F8012B002AFBD1181AB5
:1003000001387047000000000000000000000000FD
:1003100001F0FF01102A2BDB10F0070F08D010F8B6
:10032000013B013A8B422DD010F0070F42B3F6D1BA
:10033000F0B441EA012141EA014122F007047FF0D3
:1003400000070023F0E80256083C85EA010586EA2A
:10035000010685FA47F5A3FA87F586FA47F6A5FA66
:1003600087F68EB9EED1F0BC01F0FF0102F0070272
:1003700032B110F8013B013A83EA010313B1F8D11D
:100380000020704701387047002D06BF35460338FE
:10039000073815F0010F07D1013015F4807F02BF37
:1003A000013015F4C03F0130F0BC0138704700BF88
:1003B00053B94AB9002908BF00281CBF4FF0FF31CC
:1003C0004FF0FF3000F0BCB9ADF1080C6DE904CE80
:1003D00000F03AF8DDF804E0DDE9022304B07047EC
:1003E00007EE900AF5EEC07AF1EE10FA01D400F0B3
:1003F0000BB8F1EE677A08B517EE900A00F004F832
:10040000404261EB410108BD9FED0B6B07EE100A06
:100410009FED0B5BB7EEC77A27EE066BBCEEC66BA3
:10042000B8EE464BA4EE457BFCEEC77B16EE101AE9
:1004300017EE900A704700BF000000000000F03D7A
:10044000000000000000F0412DE9F047089D8E46B5
:1004500004468846002B4AD18A42174662D9B2FA2E
:1004600082F64EB1C6F1200301FA06F820FA03F332
:10047000B74043EA0808B4404FEA174E1FFA87FC1A
:10048000B8FBFEF1230C0EFB118843EA084301FB85
:100490000CF29A4209D9FB1801F1FF3080F0EA8092
:1004A0009A4240F2E78002393B449A1AA3B2B2FB67
:1004B000FEF00EFB102243EA024300FB0CFC9C45BD
:1004C00009D9FB1800F1FF3280F0D6809C4540F23C
:1004D000D3803B44023840EA0140A3EB0C030021E7
:1004E0001DB1F3400022C5E90032BDE8F0878B4220
:1004F00005D90DB1C5E9000100210846F5E7B3FAB9
:1005000083F1002946D1734502D3824200F205816E
:10051000841A6EEB030201209046002DE5D0C5E958
:100520000048E2E7002A00F09080B2FA82F6002E3E
:1005300040F0A4808A1A030C4FEA174E80B2BCB276
:100540000121B2FBFEFC0EFB1C2243EA024304FB2A
:100550000CF29A4207D9FB180CF1FF3802D29A42EA
:1005600000F2E080C4469B1AB3FBFEF20EFB12338E
:1005700040EA034302FB04F49C4207D9FB1802F152
:10058000FF3002D29C4200F2CA8002461B1B42EAA4
:100590000C40A5E7C1F120068B4022FA06F71F4365
:1005A0000EFA01F420FA06F32EFA06FE4FEA174976
:1005B000234300FA01F81FFA87FCBEFBF9F01C0C7C
:1005C00009FB10EE44EA0E4400FB0CFEA64502FABD
:1005D00001F209D93C1900F1FF3A80F09C80A64550
:1005E00040F2998002383C44A4EB0E041FFA83FECB
:1005F000B4FBF9F309FB13444EEA044403FB0CFC7F
:10060000A44508D93C1903F1FF3E80F08280A4453F
:100610007FD9023B3C4443EA0040A4EB0C04A0FB1E
:1006200002EC64457346E14662D35FD05DB1B8EB3E
:10063000030264EB090404FA06F622FA01F31E43EE
:10064000CC40C5E9006400214FE7B1FBF2FC010C8E
:1006500041EA0E4180B240EA01423B4638463C4600
:10066000B846BE462026B1FBF7F1A2EB080241EAEC
:100670000C4166E7014618E710462CE7C6F1200258
:100680002EFA02F3B740B14020FA02F24FEA174EB9
:100690000A43B3FBFEF8BCB20EFB1833110C41EA5F
:1006A000034108FB04F9B04089454FEA104380B28A
:1006B0003ED9791808F1FF3C01D289451FD8A1EB3A
:1006C0000901B1FBFEF909FB04F80EFB191192B206
:1006D00042EA0142424529D2BA1809F1FF31C4D297
:1006E0004245C2D2A9F102013A44BEE7F0459DD28B
:1006F000BEEB02036CEB070C0138E14696E7A7EB73
:1007000009094944A8F1020CB1FBFEF909FB04F800
:10071000DBE773467FE7504666E70846FDE63B4465
:10072000023A33E7ACF1020C3B441CE749469CE734
:10073000A1EB0901C446B1FBFEF909FB04F8C4E7CB
:10074000704700BF2E480178002958D12D4A2E4B02
:1007500030B4D2F8E04082B0102544F00104C2F871
:10076000E040D2F8E04004F001040094009CD2F88C
:10077000E84044F00104C2F8E840D2F8E82002F072
:10078000010201924FF08042019C1C6824F00C048D
:100790001C601C6844F008041C605C6824F00204BF
:1007A0005C609C6844F00C049C60DC6824F00C04E1
:1007B000DC601C6A24F0F0041C621C6A44F0100423
:1007C0001C62092440F2E733116094620124D36271
:1007D0009161B421936943F4C0439361936943F4F5
:1007E00000639361916315625461136843F0810360
:1007F0001360064B0470198002B030BC704770471C
:100800005C4B002400440258000002585E4B002458
:10081000014B1888704700BF5E4B00242DE9F04F54
:1008200001F10709394C273183B01E46054604EB18
:10083000C2134FF000081FFA89F98FB20193019B90
:100840004C4603EB080B1BF801ABBAF1000F0DD1BE
:100850000834A4B2A742F6D108F104080135B8F172
:10086000800FADB2EBD103B0BDE8F08F1AF0800F6E
:1008700044D11AF0400F3AD11AF0200F30D11AF0BB
:10088000100F26D11AF0080F1CD11AF0040F12D144
:100890001AF0020F08D11AF0010FD9D032462146C2
:1008A000284601F063FED3E7611E3246284689B22E
:1008B00001F05CFEEFE7A11E3246284689B201F046
:1008C00055FEE5E7E11E3246284689B201F04EFEAC
:1008D000DBE7211F3246284689B201F047FED1E707
:1008E000611F3246284689B201F040FEC7E7A11FCA
:1008F0003246284689B201F039FEBDE7E11F324693
:10090000284689B201F032FEB3E700BFB8E90D080E
:100910001D4B40201121D3F8E02042F0800270B539
:1009200088B0C3F8E020D3F8E0200826174C02F086
:100930008002174D0092009AD3F8E02042F48072B2
:10094000C3F8E020D3F8E030CDE9020103F480736E
:10095000012003210193019BCDE9040102A9204656
:100960000CF0D4FA0DEB0601284602960CF0CEFAF4
:100970003146284601220CF005FE01224021204686
:100980000CF000FE08B070BD00440258001C025874
:100990000020025838B5104D0122104C082128467D
:1009A0000CF0F0FD0122402120460CF0EBFD03206D
:1009B00000F06EFA0022082128460CF0E3FD032027
:1009C00000F066FA2046002240210CF0DBFD0320F7
:1009D000BDE8384000F05CBA00200258001C025804
:1009E00010B50D4C0022082120460CF0CBFD032051
:1009F00000F04EFA0122402108480CF0C3FD03200C
:100A000000F046FA2046012208210CF0BBFD03202D
:100A1000BDE8104000F03CBA00200258001C02580B
:100A200010B5012282B0082122480CF0ABFD032052
:100A300000F02EFA012240211F480CF0A3FD0320F4
:100A4000FB2400F025FA04E013F0FF0416D000F0B8
:100A50001FFA082117480CF08FFD0246631E032081
:100A6000002AF1D14021144801920CF08BFD0320A3
:100A700000F00EFA019A104602B010BD224608217D
:100A80000C480CF07FFD032000F002FA0122402107
:100A900009480CF077FD032000F0FAF90122082143
:100AA00004480CF06FFD032000F0F2F9012210461B
:100AB00002B010BD00200258001C025870B5082575
:100AC000134E0446E2090821124864000CF05AFD56
:100AD000032000F0DDF90122402130460CF052FDE8
:100AE000032000F0D5F90022402130460CF04AFDE9
:100AF000032000F0CDF96B1EE4B213F0FF05E1D145
:100B0000012208210348BDE870400CF03BBD00BF46
:100B1000001C025800200258F8B508250024324E67
:100B200007460122082131480CF02CFD012240210A
:100B3000304664000CF026FD032000F0A9F90821DE
:100B40002A48E4B20CF018FD03460022402130464A
:100B500004F1010C0BB15FFA8CF40CF013FD0320CF
:100B600000F096F96A1E12F0FF05DFD1CFB901221D
:100B700008211E480CF006FD032000F089F901222F
:100B8000402119480CF0FEFC032000F081F93A46A0
:100B9000402115480CF0F6FC032000F079F92046BE
:100BA000F8BD2A46082111480CF0ECFC032000F0A7
:100BB0006FF9012240210C480CF0E4FC032000F006
:100BC00067F92A46402108480CF0DCFC032000F0BD
:100BD0005FF90122082105480CF0D4FC032000F045
:100BE00057F92046F8BD00BF001C025800200258EB
:100BF00008B50C4800230C49202283610363C0E937
:100C00000013C0E90223C0E90433C0E90833C0E996
:100C10000A330AF0BDF900B908BDBDE8084015F077
:100C200067BF00BFD84B0024000002485F4B02683A
:100C30002DE9F0439A428DB04FF00004CDE906440F
:100C40000894CDE9094402D00DB0BDE8F083584BBB
:100C50000D2603270546D3F8DC204FF0020855483F
:100C60004FF0010942F00102C3F8DC20D3F8DC2088
:100C700002F001020092009AD3F8E02042F0010253
:100C8000C3F8E020D3F8E02002F001020192019ABB
:100C9000D3F8E02042F08002C3F8E020D3F8E0204F
:100CA00002F080020292029AD3F8E02042F004029D
:100CB000C3F8E020D3F8E02002F004020392039A84
:100CC000D3F8E02042F00802C3F8E020D3F8E02097
:100CD00002F008020492049AD3F8E02042F00202E3
:100CE000C3F8E0204022D3F8E03003F0020305937C
:100CF0000223059906A9CDE90623CDE909760CF072
:100D000005F94FF4807306A92B480A96CDE90638F9
:100D1000CDE908470CF0FAF84FF43C6306A92748E0
:100D20000693CDF81C80CDF82090CDE909760CF023
:100D3000EDF8082306A922480693CDE90976CDE906
:100D400007890CF0E3F8802306A91E480693CDE935
:100D50000976CDE907840CF0D9F84FF440731948AF
:100D600006A90A960693184E0997CDE907890CF053
:100D7000CDF8164A4B233046F4613462746286E83B
:100D80001C004FF480534FF4806273614FF4804332
:100D9000C6E90342B3610AF063FB20B9AE64B563F0
:100DA0000DB0BDE8F08315F0A3FEF7E700000248A0
:100DB0000044025800000258001C02580008025863
:100DC000000C025800040258604B002458040240F2
:100DD000144B02689A4200D07047134A4021D2F85F
:100DE000DC3023F0010310B5C2F8DC3004460F48B4
:100DF0000CF092FA4FF480710D480CF08DFA4FF41C
:100E00003C610C480CF088FA08210B480CF084FA7D
:100E10000A484FF460710CF07FFAA06CBDE81040F6
:100E20000AF0AEBD0000024800440258000002581B
:100E3000001C025800080258000C02580004025816
:100E40000F4900200F4BD1F8FC2042F0807210B403
:100E5000C1F8FC2001F1C84158601A68A1F565018C
:100E6000094C42F00102A1F67D6108481A6023682E
:100E70005DF8044BA1FB03139B0C0360704700BF9C
:100E800000ED00E0001000E024000024284C0024C5
:100E900018490B6823BB10B4174CD4F8FC2042F05F
:100EA0008072C4F8FC20154A154C5360136843F057
:100EB0000103136002F1C642236802F5DE1202F656
:100EC0008362A2FB03230D4A9B0C0B6003FB00F023
:100ED000516853685B1A8342FBD35DF8044B70473B
:100EE000064A03FB00F0516853685B1A8342FBD348
:100EF000704700BF284C002400ED00E0001000E027
:100F00002400002409F016BF0C4B00223B201146A0
:100F100010B5D3F8D84082B044F00204C3F8D840EA
:100F2000D3F8D83003F002030193019B09F03EFF90
:100F30003B2002B0BDE8104009F074BF00440258E5
:100F400070B5EFF3108672B61C4C00224FF480513E
:100F50002368204623F0407343F0807323600CF035
:100F600011FB4FF4F070FFF793FF01224FF4805113
:100F700020460CF007FB2368462023F040732360D3
:100F8000FFF786FF4FF4805120460CF0F5FA054636
:100F90004FF4CD70FFF77CFF01224FF480512046C3
:100FA0000CF0F0FA2368B5FA85F523F040736D096B
:100FB000236006B962B6284670BD00BF000402581F
:100FC00070B50646EFF3108572B61A4C00224FF446
:100FD00080512368204623F0407343F080732360E0
:100FE0000CF0D0FACEB10620FFF752FF20460122C6
:100FF0004FF480510CF0C6FA4020FFF749FF0D4C2A
:1010000001224FF4805120460CF0BCFA236823F0F3
:101010004073236005B962B670BD3C20FFF738FF0E
:10102000204601224FF480510CF0ACFA0A20FFF761
:101030002FFFE4E700040258234BD3F8E02042F0EE
:10104000020210B582B0C3F8E020D3F8E0301F4CA4
:1010500003F002030193019BFFF7F2FE1C480122FB
:101060004FF48051036823F0407343F080730360B2
:101070000CF088FA022117480CF07EFAA0F101006A
:10108000154BB0FA80F040091870FFF759FF0023A4
:10109000124A1349C01A0B7018BF01201149107071
:1010A0004FF40040104A0B601370104A2080136008
:1010B00009F03AFE0E4B01210E4AA0F57A7011702C
:1010C000186002B010BD00BF0044025800000024A8
:1010D00000040258002002583B4C00243A4C0024E3
:1010E000394C0024344C0024384C0024304C00246B
:1010F0002C4C00243C4C0024584B2DE9F04F1F7819
:10110000BFB01FB938463FB0BDE8F08F814602211D
:1011100053480CF031FAA0F10100DFF88881B0FAF1
:1011200080F098F800304009834200F0A581012743
:1011300088F800004B4B1B78002B4CD04A4B40F2F8
:10114000ED221B68A9EB0303934200F2AD80474AEE
:101150001368A9EB0303B3F57A7FD3D398F80000A3
:101160000221434B434DC2F8009000280CBF984623
:10117000A8463B480CF000FA3F4B06461A783F4B16
:101180001C783F4B002A0CBF9946A946002C4FD132
:10119000DFF804A12546FFF73BFB0590394843469D
:1011A000CDF808A0C021384ACDE90345CDE9006952
:1011B0004488089404880794808806900EA821F03B
:1011C000A5FA642382B20EA930480FF003FB38461B
:1011D0003FB0BDE8F08F2E4A1368A9EB0303B3F5C7
:1011E0007A7FB4D3C2F80090FFF7AAFE002800F07F
:1011F00045810824CC2505F001006D08FFF7E0FECD
:10120000631E13F0FF04F6D10824442505F0010005
:101210006D08FFF7D5FE631E13F0FF04F6D101231E
:10122000154A13700F4A13700F4BC3F800908EE7E6
:10123000184B194AB3F90050184B194C32EA250AD9
:1012400028BF9A46002DB8BF6D42ADB2A4FB05344D
:10125000E40804EB8403A5EB43059CE73C4C002425
:1012600000200258384C0024344C00242C4C00241C
:10127000C0060E08B8060E083A4C0024394C00246B
:10128000C8060E0834630024D4060E08B06E00248D
:10129000304C002400000024A41B0E08D0060E08C9
:1012A000CDCCCCCC3B4C0024FFF74AFE002800F00C
:1012B000EE800824CC2505F001006D08FFF780FEC4
:1012C000631E13F0FF04F6D14FF0080ABE240AF1A2
:1012D000FF3A04F00100FFF773FE1AF0FF0A4FEA2D
:1012E0005404F4D10DF13705764E0D97CDE90BA5D9
:1012F000AA460024A346EFF3108772B63568002291
:101300004FF480516F4825F0407545F08075356089
:101310000CF038F90320FFF7BBFD4FF48051012298
:1013200068480CF02FF932680A2022F040723260CF
:10133000FFF7AEFD4FF4805162480CF01DF90546F1
:101340003520FFF7A5FD01224FF480515D480CF0D8
:1013500019F9A5F101053268B5FA85F522F0407258
:101360006D09326007B962B605FA0BF50BF1010B96
:101370002543BBF1080FECB2BDD110AB0AF8014F09
:101380009A45B6D10D9F0DF13F00DDE90BA515F88B
:10139000013F83EA0A02854242F3000222F073020F
:1013A00082EA5A02D2B282EA530141F3000121F0EB
:1013B000730181EA5201C9B281EA930242F3000249
:1013C00022F0730282EA5102D2B282EAD30141F3DF
:1013D000000121F0730181EA5201C9B281EA1312BE
:1013E00042F3000222F0730282EA5102D2B282EA90
:1013F000531141F3000121F0730181EA5201C9B296
:1014000081EA931242F3000222F0730282EA51024F
:10141000D2B282EAD31343F3000323F0730383EAC7
:1014200052035FFA83FAB2D19DF8403053453AD166
:10143000BDF9383003EB83035B0048BF0F331B114A
:1014400003F22622B2F5E16F2DD800211E4A1F4873
:101450001BB201701178002931D01D49B1F900008B
:10146000984218BF01270B8001231370194A13708B
:10147000194BC3F800906AE600275BE6154B4FF462
:1014800000421870104B1870114B1A805FE60E4B1B
:101490000E4A187010704FF400420D4B1A800D4B1D
:1014A00001271870E4E70023074A084913700B70FE
:1014B0004FF40041064A074B11801878F0E70127E6
:1014C0000349D0E700040258394C0024384C00246A
:1014D000000000243A4C0024304C0024014B1878C2
:1014E000704700BF3B4C0024014B1878704700BF89
:1014F000394C0024014BB3F9000070470000002470
:101500002DE9F047744B90B00024744FDFF8D4A15C
:1015100048F201110E943846714E0125DFF8C8815A
:10152000DFF8C891CDE90A44CDE90C44D3F8E020B6
:1015300042F01002C3F8E020D3F8E02002F01002DD
:101540000192019AD3F8E02042F02002C3F8E02093
:10155000D3F8E02002F020020292029AD3F8E020B1
:1015600042F08002C3F8E020D3F8E02002F08002CD
:101570000392039AD3F8E02042F00402C3F8E0207B
:10158000D3F8E02002F004020492049AD3F8E02099
:1015900042F00102C3F8E020D3F8E02002F001029B
:1015A0000592059AD3F8E02042F00202C3F8E02049
:1015B000D3F8E02002F002020692069AD3F8E02067
:1015C00042F04002C3F8E020D3F8E02002F04002ED
:1015D0000792079AD3F8E02042F00802C3F8E0200F
:1015E000D3F8E02002F008020892089AD3F8E0202D
:1015F00042F48072C3F8E0202246D3F8E03003F4CE
:1016000080730993099B0BF0BDFF224650462421AD
:101610000BF0B8FF224630463A210BF0B3FF2246CA
:10162000404601210BF0AEFF0122484680210BF01D
:10163000A9FF40F201130AA93846CDE90A35CDE9E0
:101640000C440BF063FC242350460AA90A930D9422
:10165000CDE90B540BF05AFC22230AA930460A9319
:101660000D94CDE90B540BF051FC0AA94046CDE98D
:101670000A55CDE90C440BF049FC022200234046F8
:101680000AA90C94CDE90A230BF040FC80234846BC
:101690000AA90A930323CDE90B540D930BF036FCF2
:1016A0004FF4004338460AA90D940A93CDE90B552F
:1016B0000BF02CFC18230AA930460A931123CDE91C
:1016C0000C550B930BF022FC21464FF0807009F073
:1016D00049FB10B0BDE8F0870044025800000258F2
:1016E00000040258001C025800200258000C025846
:1016F00010B51748002317490124174A036280E8F0
:101700001E00C0E90433C0E906330CF021FA50B9D9
:1017100000210F480CF074FC68B900210C480CF053
:1017200099FC80B910BD15F0E3F9002108480CF0D0
:1017300067FC0028F1D015F0DBF9002104480CF01B
:1017400089FC0028EED0BDE8104015F0D1B900BFEB
:10175000404C0024001C0058B17570302DE9F04356
:10176000BBB000210446C0220AA80891CDE90411AB
:10177000CDE9061121F066F8294B22689A4202D081
:101780003BB0BDE8F083102200230AA8CDE90A236C
:101790000DF034FF002840D1224C4FF480584FF018
:1017A00012090026D4F8E0300027042504A943F0EC
:1017B00080031D48C4F8E030D4F8E03003F0800323
:1017C0000193019BD4F8E03043F00803C4F8E03003
:1017D000D4F8E030089503F008030293029BCDE9AA
:1017E0000489CDE906670BF091FB04A90F48089521
:1017F000CDE90489CDE906670BF088FBD4F8F43015
:1018000043F08003C4F8F430D4F8F43003F08003DC
:101810000393039B3BB0BDE8F08315F069F9BBE788
:10182000001C005800440258001C0258000C0258CA
:1018300038B5456F9DB1D5E90143A3420FD2E41AF3
:101840000846944228BF144629B129682246194403
:1018500021F072F8AB6823442046AB6038BD002409
:10186000204638BD002964D02DE9F04FB2FA82F746
:1018700085B07F09002A50D0B2F80280B8F5A07F69
:101880004BD2D388EF2B50D80D46918814885E1A1E
:10189000A8EB0408701C08F1010342D003EB4300DD
:1018A0000290002B3DD041F2233A42F2915940F28E
:1018B0004C7BAC46039660460025CDE9007C01E0F8
:1018C000148891884378454590F800E000F10300C2
:1018D000009E09FB03F310F801CC31440AFB0E33E0
:1018E000154F01EB81010BFB0C3307EB811103F565
:1018F000005329444FEAA33305F101050B55DFD10D
:101900000399029BDDE9007C8F429C4407F10103AF
:1019100007D01F4614889188CDE7002005B0BDE8A8
:10192000F08F012005B0BDE8F08F384605B0BDE866
:10193000F08F0020704700BF802A02246A4B2DE9F7
:10194000F04FD3F8008095B0B8F1000F7BD000299C
:1019500079D0B2FA82F46409002A74D05088B3F8BE
:1019600004B058456FD2DB88D688B34240F2B880C5
:1019700015889388401BF61A01900130B64601364F
:10198000069064D000EB4009002860D020F00306E8
:101990008008A246019C00EB400004EB440C870049
:1019A000C81C079706EB46076044F4467C1C964625
:1019B0001A460C970994BC1C0A94741C0B94B41C12
:1019C000069E1094FC1C0D943C1D0E947C1D0F94DF
:1019D000BC1D1194FC1D129407F10804139406F029
:1019E000030408945446DA4622440AFB0252019D3D
:1019F00002EB4202022D08EB020308D90C320D461D
:101A00004244914227D201F10C02934223D20A466A
:101A100015780332033303F8035C12F8025C824248
:101A200003F8025C12F8015C03F8015CF0D1644534
:101A30004944484404F1010309D01C46BEF804207F
:101A4000BEF80050D0E7002015B0BDE8F08F0120AF
:101A500015B0BDE8F08F079A0F1D01F1080602933B
:101A600001EB020B1A46CDF814A0CDE9038455F81A
:101A70000CAB0C3257F80C8B56F80C4B5D4542F80A
:101A80000CAC42F8088C42F8044CF0D1089ADDF80E
:101A900014A0DDE90384002AC9D00C9D4A5D5A5583
:101AA000099D4A5D5A550A9D4A5D5A55069D0B9AF5
:101AB0009542BCD90D9E8A5D9A550E9E8A5D9A55B7
:101AC0000F9E8A5D9A55109A9542B0D9119D4A5D34
:101AD0005A55129D4A5D5A55139D4A5D5A55A6E7BF
:101AE000204615B0BDE8F08F944C00242DE9F04F4E
:101AF000ADF5317D81468846BF48002102924FF402
:101B000096321F46DFF830B3BDF9E8429DF8EC523B
:101B100020F098FEDFF824A300230FAAB749119301
:101B200012A800928BF80030AAF80030B44ACDE930
:101B30000F98DFF80C93DFF80C8389F80030A8F8D1
:101B400000304FF4805307F0B7FA8BF800000028FC
:101B500040F03C81BDF864300246AA4912A8AAF8B8
:101B60000030BDF86630A8F8003007F0B3FD8046BD
:101B700089F80000002840F02F8257EA040300F0A3
:101B80002C81A6469C4BDFF8C0A240F23F140EEB1E
:101B90008E0903F5A0700EF1F00B00EB89104FEAEF
:101BA00089193844AAEB090AC9F100090AF1FF3A78
:101BB000BEF1EF0F9049AAEB0902A0F5A0738CBF0C
:101BC00000270127A9EB0106F118A14202D8002F36
:101BD00040F09F81013302F8015F8342F4D10EF19E
:101BE000010E00F5A070A9F5A079F345E0D1864E6D
:101BF000DFF854923378002B00F0F680834A09F125
:101C0000270BCDF81090082630AB0DF2BE24092723
:101C10007F4D914641460BF5A072D846CDF814B0E1
:101C2000CA46B3460E46039218464FF4007200218E
:101C300020F008FEC446034608F51650ACF1280112
:101C400011F801EF33F81E208C4502F1010223F850
:101C50001E20F5D10CF5A07C6045EFD10DF1BE0240
:101C60004FF0000E114631F8020F0928A0F1090CBF
:101C700001D9E6440F80A142F5D1BEF1000F40F03A
:101C80001581D446002032F8021F0844A242C0EB5E
:101C9000002101F51671A5FB01E14FEAD1110CF805
:101CA000011FF0D108F12808039A0AF5807A42450D
:101CB000BAD131465E46DDF814B009F50069013E3F
:101CC0000BF5165BA7D1DDF81090524AC9F100035D
:101CD0006FF070099446DFF874B10393A9EB020921
:101CE000029B3246DFF868A1013B0D910C934A4BF1
:101CF00098461CF8013F1BF8015F09EB0C010693A5
:101D0000C3F11E0318F8014F01FB01F1434E059387
:101D1000ED00039BE400049140F62F214048C91ACE
:101D20000C9B404F03EB020E0296CDF82C90CDE9B0
:101D300007B8CDE909C210F801CB01F1010891F80B
:101D400001B0A1F69F23414605EB0C08A44417F807
:101D5000012F039E0AEB08280AEB0C2C3344049E47
:101D60001CF80B9005EB020C224403FB03630AEB07
:101D70000C2C029E0AEB022218F80B801CF80BC0F8
:101D800012F80B2016F801BF029642F21076B34209
:101D900040F300816FF07F030EF8013F224B984221
:101DA000C9D1039BDDF82C90A3F5A073DDE909C22E
:101DB00003931E4BE0329C45DDE907B899D1DDF86D
:101DC000348040460DF5317DBDE8F08F4FF00208BC
:101DD00040460DF5317DBDE8F08F0B4EDFF81890D1
:101DE0003378002B7FF40AAFDFF868C09E46104FAF
:101DF000104DDFF864A04BE0802A0224311800085F
:101E00003453002465180008A24C00247FBE00242F
:101E1000B5814E1BAB4C00249B4D0024A34F0024E6
:101E200024520024E3500024045300248B4D00244A
:101E3000B3500024734F0024A14C00249E4C002476
:101E4000A04C00249C4C002480FE00248B4E0024D7
:101E500080BE0024F3510024CDCCCCCC6009C4F367
:101E600047140133072804F101020CF8014F18BF91
:101E7000D0B2AAFB01B2B3F5A07F4FEA521207F825
:101E8000010F02EB8202A1EBC20105F8011F51D044
:101E9000A3F11401132BAAFB0124DFD801330CF8A2
:101EA00001EF07F801EF05F801EFF1E75FFA8EFCAB
:101EB0000DF1BE01CEF30F2E31F8020F7044A14296
:101EC0000880F9D1BCF1000F3FF4DBAE4FF4807114
:101ED00006926246B1FBFCF1C1EBC17E084603EB02
:101EE0004E0E3EF810C0013A0CF1010C2EF810C055
:101EF00014BF4FF0010C4FF0000CFF288CBF4FF0C7
:101F0000000C0CF0010C0844BCF1000FE9D1069A5A
:101F1000B7E613F8011B984202F8011F7FF454AE94
:101F20000EF1010E00F5A070A9F5A079F3457FF43C
:101F30003FAE5CE600232C4F2C4D2D4C9C46DFF829
:101F4000BCE019E00109C0F307100133072900F1D3
:101F5000010A07F8010F18BF5FFA8AF1AEFB02BA57
:101F6000F02B05F8011F2AF00F01A1EB1A11A2EBCB
:101F7000410204F8012F2CD0A3F10F020E2BAEFB6F
:101F80000210DFD8013307F801CF05F801CF04F8BC
:101F900001CFF1E712FB0BF2069B1CFB0BFCCBF114
:101FA000280B0BFB09220BFB08CB03FB02F2059B62
:101FB00003FB0B2202F516730E4AA2FB03320E4BF3
:101FC000D2099842A2F180020EF8012F7FF4B3AE3D
:101FD000E7E60123337011E64FF0030840460DF5A4
:101FE000317DBDE8F08F00BF834E0024934D002467
:101FF000A34C0024B5814E1B045300248988888893
:10200000002A18BF00290ED0B0FA80F310B55B0982
:1020100082B028B1CDE90033FFF768FD02B010BDF2
:10202000012002B010BD0120704700BF2DE9F04F24
:10203000A7B0BDF8C070002855D01D4602910029F8
:1020400051D0002B18BF002A16464CD0B7FA87F1A2
:102050004909002F47D007FB05F2DFF8AC80DFF815
:10206000ACB00446DFF8A8A002EB4202DFF8A4906F
:10207000304688F800108BF80010AAF80010A9F874
:102080000010039120F0DEFB029B08A80399069341
:1020900005AB079100934FF48053174A17490594F5
:1020A00007F00AF888F8000018BBBDF83E30BDF80C
:1020B0003C20BB42A9F80030AAF8002017D8AA4259
:1020C00094BF0022012292B90D4B08A80D491E6051
:1020D0009D80DF8007F0FEFA031E8BF8000018BF1A
:1020E0000123980000E0012027B0BDE8F08F032015
:1020F000FAE70220F8E700BF345300243118000843
:10210000944C00243D190008A14C0024A04C00244C
:102110009E4C00249C4C0024014B1878704700BF53
:10212000A14C0024014B1878704700BFA04C00243C
:10213000014B1888704700BF9E4C0024014B188843
:10214000704700BF9C4C0024704700BF0048704798
:10215000000000304FF48030704700BF10B44FF6DD
:10216000FF73184C1A46013BE15CFF2906D0002B97
:10217000F8D118BB00205DF8044B7047A15CD92949
:10218000F5D102F1010CBCF5803FF2D01146013AC5
:10219000A35CFF2B06D0002AEBD01146013AA35CCA
:1021A000FF2BF8D1635CD82BF5D100B102606245FA
:1021B000E0D2ACEB02005DF8044B704700230360F3
:1021C000D8E700BF00000030264B4EF2B37002216A
:1021D000D3F8D42042F4805210B58AB0C3F8D4208A
:1021E000D3F8D4200C2402F480520192019AD3F83F
:1021F000E02042F00802C3F8E020D3F8E02002F02B
:1022000008020292029AD3F8E02042F01002C3F8CA
:10221000E020D3F8E030089403F01003124CCDE92D
:102220000401012003210393039BCDE9060104A9C6
:102230000E480AF06BFE4FF6807304A90C48049315
:102240000AF064FE0B4B45F211500B4A41F2155156
:102250001C605860322051600AB0BDE8104008F0A0
:1022600069BD00BF0044025811502080000C025884
:10227000001002580040005200410052B04B2DE9BE
:10228000F0419C889871E0B945F21052AD499442F2
:10229000196000F08E8041F66312944200F03B8199
:1022A00045F21032A8482B2194429860998104D0BD
:1022B00047F29672944240F0ED80A44A1A600020E2
:1022C00037E145F21052A2499442196000F0F880BB
:1022D00041F66312944200F0C48049F6060294422B
:1022E00000F0BF802B2298499A8147F2967299603C
:1022F00045F21031A21A8C42B2FA82F24FEA52121F
:1023000002D0002A00F0118192490128196000F0E2
:102310000F81002049F2413547F289718C4218BF84
:10232000AC4202D0002A00F0A5808B4A40F00801A0
:10233000362500F02000A2F8FE50A2F800111988FE
:102340005A88002800F0DE80914208D200200D4615
:1023500062F30F0061F31F4011462A46186045F2F0
:1023600010555889B3F80CC0AC423CD05C89501E63
:102370000139794A4FF0000CA2F8FE409C89C1F364
:102380000F23A2F800C1C9B2A2F800C1A2F800311F
:10239000C0F30F23C0B2A2F80011A2F8FE40A2F8C9
:1023A00000C1A2F800C1A2F80031A2F80001BDE806
:1023B000F0816A484FF42C51694A986099811A60FB
:1023C000654A00214FF45850A2F8FE00A2F800110F
:1023D00059881A889142C0F09B800C465889114652
:1023E000B3F80CC022465C4C00F10108871C0023A6
:1023F000A4F8FE000139BFB203301FFA88F80CF1CF
:102400000106A4F80031013AA4F8FE8080B2A4F8D5
:102410000031B6B2A4F8FE700CF10205C1F30F272B
:102420000CF1030EC9B2A4F80071ADB2A4F8FE001D
:102430001FFA8EFEA4F80011A4F8FEC0A4F8003123
:10244000A4F8FE60A4F80031C2F30F23D2B2A4F8BE
:10245000FE50A4F80031A4F8FEE0A4F80021BDE885
:10246000F0812B22384901289A813E4A99601A60EE
:1024700018D0002041F66315374A3621AC42A2F845
:10248000FE10A2F800015A8819883FF46FAF00F0DF
:10249000200054E749F6060294427FF410AF304A18
:1024A0001A60E6E741F6631294423AD12A4936248B
:1024B00000205A88A1F8FE40A1F80001198855E7CC
:1024C000264A4FF42C5C01289A60264AA3F80CC0D7
:1024D0001A607FF475AF204AA0214FF45850A2F83B
:1024E000FE00A2F800115A8819888A421BD90020E0
:1024F0000C4662F30F0061F31F401146224618603C
:10250000588970E791427FF62AAF08461146024685
:1025100019805A8023E714482A21114A986099812A
:102520001A60A020A6E758895DE701287FF4C7AEAE
:10253000A02047F29672A11A4A424A41EAE600BF39
:1025400034630024F00040012C002A004001E00127
:102550004001F000E001400100FF0760002C002A6C
:10256000E00120032003E0012C002B00304BF0B5EC
:102570009C8845F210560D0AB3F80AE0B442B3F84D
:102580000CC0C9B238D041F66316B44216D0294CFB
:10259000060AC0B2A4F8FEE0A4F80061A4F80001A5
:1025A000A4F8FEC0A4F80051A4F80011214992B289
:1025B0001B89A1F8FE30A1F80021F0BD9C791CB95F
:1025C0001C88013C201A80B21A4C060AC0B2A4F83A
:1025D000FEE0A4F80061A4F80001A4F80061A4F8EA
:1025E0000001A4F8FEC0A4F80051A4F80011A4F85A
:1025F0000051A4F80011D9E70E4C0EF101070CF1BF
:102600000106A4F8FEE0BFB24FEA102EB6B2C0B287
:10261000A4F800E1A4F8FE70A4F80001A4F8FEC03C
:10262000A4F80051A4F8FE60A4F80011BEE700BFB2
:102630003463002400FF0760404B1A88824203D9AC
:10264000B3F802C08C4501D80020704770B5B3F8CC
:1026500004C041F663160C0A5D89B445B3F80CE07A
:10266000C9B24DD045F210539C452DD1344B6E1C50
:102670000EF10102A3F8FE50B6B2050AC0B2A3F8EB
:10268000005192B2A3F8FE60A3F800014FF4385055
:10269000A3F8FEE0A3F80041A3F8FE20A3F8001180
:1026A000A3F8FE00B3F80021B3F8000180B2244A79
:1026B00000F47843C0F38500B2F80021C2F3C422CD
:1026C000134343EA401070BD1D4B020AC0B2A3F889
:1026D000FE50A3F8002147F29672A3F800012E20C5
:1026E000A3F8FEE09445A3F80041A3F80011A3F875
:1026F000FE00B3F80011B3F8000180B2D7D170BD6D
:102700009B7913B9013A121A90B20D4B020AC0B26A
:10271000A3F8FE50A3F800212E22A3F80001A3F88D
:10272000FEE0A3F80041A3F80011A3F8FE20B3F8DF
:102730000021B3F8000180B2B9E700BF3463002480
:1027400000FF07603F492DE9F04F0A8845F2105419
:102750004B8883B0B1F8048003FB02FC013A013BD3
:10276000A045C2F30F274D89C3F30F26D2B2B1F8AB
:102770000CE0DBB229D0344CA4F8FE500025A4F8BC
:102780000051A4F80051A4F80071A4F80021A4F8A5
:10279000FEE0A4F80051A4F80051A4F80061A4F8E8
:1027A0000031294A80B20989BCF1010FACF1020362
:1027B000A2F8FE10A2F8000104D0013BA2F800012B
:1027C000591CFAD103B0BDE8F08F0EF1010405F1F8
:1027D000010B05F1020A05F10309A4B20EF1030889
:1027E0001FFA8BFB00940EF102041FFA8AFAA4B2BE
:1027F0001FFA89F901941FFA88F8134CA4F8FE50C7
:102800000025A4F80051A4F8FEB0A4F80051A4F8E3
:10281000FEA0A4F80071A4F8FE90A4F80021009A8C
:10282000A4F8FEE0A4F80051A4F8FE20019AA4F850
:102830000051A4F8FE20A4F80061A4F8FE80A4F8DA
:102840000031AEE73463002400FF0760504B2021C5
:102850005048D3F8E02042F002022DE9F04F8BB04F
:10286000C3F8E020D3F8E03003240125059103F0FC
:10287000020305A90894D3260093009B464C474FBA
:10288000CDE906550AF042FB08F0F0FA40F20120CB
:10289000434A4FF0C0414FF08073ADF8040001A8E7
:1028A0000291CDE9032308F0FFFA062008F0ECFAC4
:1028B000FFF78AFC4FF480737820A4F8FE3008F00C
:1028C00039FAA4F8FE60B4F80031B4F80031B4F875
:1028D0000021B4F8003192B29BB243EA022349F2DC
:1028E00041329BB29342BB803FD00423A4F8FE3018
:1028F000B4F80031B4F80021B4F8003192B29BB2C0
:1029000043EA022348F252529BB293423CD047F230
:102910008972BB80934228D0D423A4F8FE30B4F847
:102920000031B4F80031B4F80021B4F8003192B2AB
:102930009BB243EA022345F210329BB29342BB8022
:1029400013D0A4F8FE60B4F80031B4F80031B4F844
:102950000021B4F8003192B29BB243EA022347F25D
:1029600096729BB29342BB801CD10120FFF786FC7C
:102970000122202107480AF005FE4FF6FF70FFF7FD
:10298000E1FE0BB0BDE8F08F47F28973BB80ECE746
:10299000004402580004025800FF0760346300241A
:1029A0001B0000034FF470430520A4F8FE305523AC
:1029B000A4F800314FF20103A4F8FE30AA23A4F8D2
:1029C00000314FF20203A4F8FE305223A4F8003184
:1029D0004FF20303A4F8FE300823A4F800314FF2AD
:1029E0000403A4F8FE304FF44543A4F80051A4F8C2
:1029F000FE304CF20153B4F80021A4F8FE30B4F8D4
:102A0000003192B29BB243EA0223BB8008F092F9F4
:102A100045F21052BB8893422AD0A4F8FE60B4F865
:102A20000031B4F80031B4F80011B4F8003189B2C3
:102A30009BB243EA012349F606019BB28B42BB805D
:102A400093D0A123A4F8FE30B4F80031B4F80011FB
:102A5000B4F8003189B29BB243EA012345F26171B7
:102A60009BB28B42BB8000F03E8793427FF47DAFE8
:102A7000FD4C4FF200034FF055064FF201024FF0AC
:102A8000AA014FF2020BA4F8FE304FF00808A4F898
:102A900000610D27A4F8FE204FF0340CA4F80011BB
:102AA0000121A4F8FEB04FF0520B00232426A4F815
:102AB00000B14FF2030B0F204FF0030EA4F8FEB04D
:102AC0004FF2040BA4F800813325A4F8FEB04FF4B4
:102AD000304BA4F800110222A4F8FEB04BF2010B17
:102AE000A4F800714FF0100AA4F8FEB04BF2020BEC
:102AF000A4F800714FF06D09A4F8FEB04BF2006B22
:102B0000A4F80071A4F8FEB04BF2016BA4F800C168
:102B1000A4F8FEB04BF2026BA4F800C1A4F8FEB01A
:102B20004BF2001BA4F800C1A4F8FEB04BF2011B4D
:102B3000A4F80071A4F8FEB04BF2021BA4F80071D7
:102B4000A4F8FEB04FF04A0BA4F800714BF20077E6
:102B5000A4F8FE704BF20177A4F800C1A4F8FE704F
:102B60004BF20277A4F800C1A4F8FE704FF432478C
:102B7000A4F800C1A4F8FE704BF20127A4F80031BC
:102B8000A4F8FE704BF20227A4F80031A4F8FE70FE
:102B90004BF60007A4F80031A4F8FE704BF60107CD
:102BA000A4F80061A4F8FE704BF60207A4F80061D7
:102BB000A4F8FE704FF43F47A4F80061A4F8FE703B
:102BC0004FF43347A4F80011A4F8FE704BF201371C
:102BD000A4F80001A4F8FE704BF20237A4F800013B
:102BE000A4F8FE704FF43947A4F800014BF60040FA
:102BF000A4F8FE704BF60117A4F800C1A4F8FE700B
:102C00004BF60217A4F800C1A4F8FE704FF4354744
:102C1000A4F800C1A4F8FE704BF20157A4F800819B
:102C2000A4F8FE704BF20257A4F80081A4F8FE70DD
:102C30004FF44247A4F80081A4F8FE704FF43A47DD
:102C4000A4F800E1A4F8FE704BF60127A4F8006197
:102C5000A4F8FE704BF60227A4F80061A4F8FE70F9
:102C60004FF03A07A4F800614BF60246A4F8FE00C4
:102C70004BF60140A4F80031A4F8FE004FF07800B4
:102C8000A4F80001A4F8FE604FF43D46A4F800311A
:102C9000A4F8FE604BF60156A4F80031A4F8FE60DB
:102CA0004BF60256A4F800014FF06400A4F8FE6051
:102CB0004FF43E46A4F80031A4F8FE604BF60166DE
:102CC000A4F80031A4F8FE604FF45146A4F80001C6
:102CD0006420A4F8FE604DF20116A4F80031A4F8B7
:102CE000FE604DF20216A4F80051A4F8FE604DF209
:102CF0000316A4F80031A4F8FE604DF20416A4F8FF
:102D000000C1A4F8FE604DF20516A4F80031A4F845
:102D1000FE604DF20616A4F80071A4F8FE604DF2B4
:102D20000716A4F80031A4F8FE604DF20816A4F8C6
:102D300000B1A4F8FE604DF20916A4F80031A4F821
:102D4000FE604FF05C06A4F800614DF20A16A4F88C
:102D5000FE604DF20B16A4F80031A4F8FE604FF0AF
:102D60008106A4F800614DF20C16A4F8FE604DF245
:102D70000D16A4F80031A4F8FE604FF0A606A4F8E2
:102D800000614DF20E16A4F8FE604DF20F16A4F885
:102D90000031A4F8FE604FF0E506A4F800614DF2A2
:102DA0001016A4F8FE604DF21116A4F80011A4F854
:102DB000FE604FF01306A4F800614DF21216A4F85D
:102DC000FE604DF21316A4F80011A4F8FE604FF057
:102DD0005406A4F800614DF21416A4F8FE604DF2FA
:102DE0001516A4F80011A4F8FE604FF08206A4F8AE
:102DF00000614DF21616A4F8FE604DF21716A4F805
:102E00000011A4F8FE604FF0CA06A4F800614DF26C
:102E10001816A4F8FE604DF21916A4F80021A4F8C3
:102E2000FE604DF21A16A4F80031A4F8FE604DF2CF
:102E30001B16A4F80021A4F8FE604DF21C16A4F89D
:102E40000011A4F8FE604DF21D16A4F80021A4F8AC
:102E5000FE604DF21E16A4F800C1A4F8FE604DF20B
:102E60001F16A4F8002101E000FF0760A4F8FE602F
:102E70004FF06706A4F800614DF22016A4F8FE603A
:102E80004DF22116A4F80021A4F8FE604FF084064C
:102E9000A4F800614DF22216A4F8FE604DF223164C
:102EA000A4F80021A4F8FE604FF0A406A4F8006185
:102EB0004DF22416A4F8FE604DF22516A4F8002168
:102EC000A4F8FE604FF0B706A4F800614DF2261694
:102ED000A4F8FE604DF22716A4F80021A4F8FE60C5
:102EE0004FF0CF06A4F800614DF22816A4F8FE605A
:102EF0004DF22916A4F80021A4F8FE604FF0DE067A
:102F0000A4F800614DF22A16A4F8FE604DF22B16CB
:102F1000A4F80021A4F8FE604FF0F206A4F80061C6
:102F20004DF22C16A4F8FE604DF22D16A4F80021E7
:102F3000A4F8FE604FF0FE06A4F800614DF22E16D4
:102F4000A4F8FE604DF22F16A4F800E1A4F8FE608C
:102F50004DF23016A4F800A1A4F8FE604DF231162F
:102F6000A4F800E1A4F8FE604DF23216A4F8005176
:102F7000A4F8FE604DF23316A4F800E1A4F8FE6058
:102F80004FF45246A4F80091A4F8FE604DF20126D9
:102F9000A4F80031A4F8FE604DF20226A4F8005116
:102FA000A4F8FE604DF20326A4F80031A4F8FE60F8
:102FB0004DF20426A4F800C1A4F8FE604DF20526E7
:102FC000A4F80031A4F8FE604DF20626A4F80071C2
:102FD000A4F8FE604DF20726A4F80031A4F8FE60C4
:102FE0004DF20826A4F800B1A4F8FE604DF20926BF
:102FF000A4F80031A4F8FE604FF05C06A4F800616C
:103000004DF20A26A4F8FE604DF20B26A4F800311A
:10301000A4F8FE604FF08106A4F800614DF20C2682
:10302000A4F8FE604DF20D26A4F80031A4F8FE606D
:103030004FF0A606A4F800614DF20E26A4F8FE603B
:103040004DF20F26A4F80031A4F8FE604FF0E5061B
:10305000A4F800614DF21026A4F8FE604DF211268E
:10306000A4F80011A4F8FE604FF01306A4F8006164
:103070004DF21226A4F8FE604DF21326A4F80011BA
:10308000A4F8FE604FF05406A4F800614DF2142637
:10309000A4F8FE604DF21526A4F80011A4F8FE6015
:1030A0004FF08206A4F800614DF21626A4F8FE60E7
:1030B0004DF21726A4F80011A4F8FE604FF0CA06DE
:1030C000A4F800614DF21826A4F8FE604DF219260E
:1030D000A4F80021A4F8FE604DF21A26A4F80031ED
:1030E000A4F8FE604DF21B26A4F80021A4F8FE60AF
:1030F0004DF21C26A4F80011A4F8FE604DF21D2626
:10310000A4F80021A4F8FE604DF21E26A4F800C128
:10311000A4F8FE604DF21F26A4F80021A4F8FE607A
:103120004FF06706A4F800614DF22026A4F8FE6077
:103130004DF22126A4F80021A4F8FE604FF0840689
:10314000A4F800614DF22226A4F8FE604DF2232679
:10315000A4F80021A4F8FE604FF0A406A4F80061D2
:103160004DF22426A4F8FE604DF22526A4F8002195
:10317000A4F8FE604FF0B706A4F800614DF22626D1
:10318000A4F8FE604DF22726A4F80021A4F8FE6002
:103190004FF0CF06A4F800614DF22826A4F8FE6097
:1031A0004DF22926A4F80021A4F8FE604FF0DE06B7
:1031B000A4F800614DF22A26A4F8FE604DF22B26F9
:1031C000A4F80021A4F8FE604FF0F206A4F8006114
:1031D0004DF22C26A4F8FE604DF22D26A4F8002115
:1031E000A4F8FE604FF0FE06A4F800614DF22E2612
:1031F000A4F8FE604DF22F26A4F800E1A4F8FE60CA
:103200004DF23026A4F800A1A4F8FE604DF231265C
:10321000A4F800E1A4F8FE604DF23226A4F80051B3
:10322000A4F8FE604DF23326A4F800E1A4F8FE6095
:103230004FF45346A4F80091A4F8FE604DF2013615
:10324000A4F80031A4F8FE604DF20236A4F8005153
:10325000A4F8FE604DF20336A4F80031A4F8FE6035
:103260004DF20436A4F800C1A4F8FE604DF2053614
:10327000A4F80031A4F8FE604DF20636A4F80071FF
:10328000A4F8FE604DF20736A4F80031A4F8FE6001
:103290004DF20836A4F800B1A4F8FE604DF20936EC
:1032A000A4F80031A4F8FE604FF05C06A4F80061B9
:1032B0004DF20A36A4F8FE604DF20B36A4F8003148
:1032C000A4F8FE604FF08106A4F800614DF20C36C0
:1032D000A4F8FE604DF20D36A4F80031A4F8FE60AB
:1032E0004FF0A606A4F800614DF20E36A4F8FE6079
:1032F0004DF20F36A4F80031A4F8FE604FF0E50659
:10330000A4F800614DF21036A4F8FE604DF21136BB
:10331000A4F80011A4F8FE604FF01306A4F80061B1
:103320004DF21236A4F8FE604DF21336A4F80011E7
:10333000A4F8FE604FF05406A4F800614DF2143674
:10334000A4F8FE604DF21536A4F80011A4F8FE6052
:103350004FF08206A4F800614DF21636A4F8FE6024
:103360004DF21736A4F80011A4F8FE604FF0CA061B
:10337000A4F800614DF21836A4F8FE604DF219363B
:10338000A4F80021A4F8FE604DF21A36A4F800312A
:10339000A4F8FE604DF21B36A4F80021A4F8FE60EC
:1033A0004DF21C36A4F80011A4F8FE604DF21D3653
:1033B000A4F80021A4F8FE604DF21E36A4F800C166
:1033C000A4F8FE604DF21F36A4F80021A4F8FE60B8
:1033D0004FF06706A4F800614DF22036A4F8FE60B5
:1033E0004DF22136A4F80021A4F8FE604FF08406C7
:1033F000A4F800614DF22236A4F8FE604DF22336A7
:10340000A4F80021A4F8FE604FF0A406A4F800611F
:103410004DF22436A4F8FE604DF22536A4F80021C2
:10342000A4F8FE604FF0B706A4F800614DF226360E
:10343000A4F8FE604DF22736A4F80021A4F8FE603F
:103440004FF0CF06A4F800614DF22836A4F8FE60D4
:103450004DF22936A4F80021A4F8FE604FF0DE06F4
:10346000A4F800614DF22A36A4F8FE604DF22B3626
:10347000A4F80021A4F8FE604FF0F206A4F8006161
:103480004DF22C36A4F8FE604DF22D36A4F8002142
:10349000A4F8FE604FF0FE06A4F800614DF22E364F
:1034A000A4F8FE604DF22F36A4F800E1A4F8FE6007
:1034B0004DF23036A4F800A1A4F8FE604DF231368A
:1034C000A4F800E1A4F8FE604DF23236A4F80051F1
:1034D000A4F8FE604DF23336A4F800E1A4F8FE60D3
:1034E0004FF45446A4F80091A4F8FE604DF2014652
:1034F000A4F80031A4F8FE604DF20246A4F8005191
:10350000A4F8FE604DF20346A4F80031A4F8FE6072
:103510004DF20446A4F800C1A4F8FE604DF2054641
:10352000A4F80031A4F8FE604DF20646A4F800713C
:103530004BF20077A4F8FE604DF20746A4F8003184
:10354000A4F8FE604DF20846A4F800B14FF2020B59
:10355000A4F8FE604DF20946A4F80031A4F8FE601C
:103560004FF05C06A4F800614DF20A46A4F8FE6034
:103570004DF20B46A4F80031A4F8FE604FF081062E
:10358000A4F800614DF20C46A4F8FE604DF20D4621
:10359000A4F80031A4F8FE604FF0A606A4F800617C
:1035A0004DF20E46A4F8FE604DF20F46A4F800312D
:1035B000A4F8FE604FF0E506A4F800614DF2104655
:1035C000A4F8FE604DF21146A4F80011A4F8FE60C4
:1035D0004FF01306A4F800614DF21246A4F8FE6005
:1035E0004DF21346A4F80011A4F8FE604FF0540603
:1035F000A4F800614DF21446A4F8FE604DF21546A1
:10360000A4F80011A4F8FE604FF08206A4F800614F
:103610004DF21646A4F8FE604DF21746A4F80011CC
:10362000A4F8FE604FF0CA06A4F800614DF21846F7
:10363000A4F8FE604DF21946A4F80021A4F8FE603B
:103640004DF21A46A4F80031A4F8FE604DF21B4674
:10365000A4F80021A4F8FE604DF21C46A4F8001165
:10366000A4F8FE604DF21D46A4F80021A4F8FE6007
:103670004DF21E46A4F800C1A4F8FE604DF21F46AC
:10368000A4F80021A4F8FE604FF06706A4F80061DA
:103690004DF22046A4F8FE604DF22146A4F8002128
:1036A000A4F8FE604FF08406A4F800614DF22246B3
:1036B000A4F8FE604DF22346A4F80021A4F8FE60B1
:1036C0004FF0A406A4F800614DF22446A4F8FE6071
:1036D0004DF22546A4F80021A4F8FE604FF0B7068D
:1036E000A4F800614DF22646A4F8FE604DF227468C
:1036F000A4F80021A4F8FE604FF0CF06A4F8006102
:103700004DF22846A4F8FE604DF22946A4F80021A7
:10371000A4F8FE604FF0DE06A4F800614DF22A46E0
:10372000A4F8FE604DF22B46A4F80021A4F8FE6038
:103730004FF0F206A4F800614DF22C46A4F8FE60AA
:103740004DF22D46A4F80021A4F8FE604FF0FE06CD
:10375000A4F800614DF22E46A4F8FE604DF22F460B
:10376000A4F800E1A4F8FE604DF23046A4F800A1F0
:10377000A4F8FE604DF23146A4F800E1A4F8FE6022
:103780004FF05506A4F800514DF23245A4F8FE5012
:103790004DF23345A4F800E1A4F8FE504FF20005C5
:1037A000A4F80091A4F8FE504FF20105A4F80061BE
:1037B000A4F8FE504FF0AA05A4F800514BF20015F2
:1037C000A4F8FEB04FF0520BA4F800B14FF2030B77
:1037D000A4F8FEB04FF2040BA4F80081A4F8FEB0E8
:1037E0004BF2006BA4F80031A4F8FE50CC25A4F8ED
:1037F00000514BF20115A4F8FE500525A4F8003144
:10380000A4F8FEB0A4F800514FF07005A4F8FE70C3
:103810004BF20177A4F80051A4F8FE704BF60007B4
:10382000A4F80051A4F8FE704BF60107A4F80011AB
:103830004BF60301A4F8FE704BF60207A4F800E172
:10384000A4F8FE70A4F800E1A4F8FE104BF60041C5
:10385000A4F800E1A4F8FE104BF60141A4F8002101
:10386000A4F8FE104BF60241A4F80031A4F8FE10B3
:103870004FF44941A4F80031A4F8FE10D021A4F877
:1038800000114CF60111A4F8FE104FF05001A4F8FD
:1038900000214CF60212A4F8FE204CF60312A4F804
:1038A0000011A4F8FE204CF60412A4F80011A4F8AC
:1038B000FE204FF45452A4F80011A4F8FE204FF457
:1038C0006852A4F800314FF48853A4F8FE20A4F8FD
:1038D0000061A4F8FE3007F02DFA4FF42453A4F849
:1038E000FE30FFF742B841F66313BB80FFF73DB8E7
:1038F0002DE9F04F4A4C89B0CEB245F2105CB4F8D5
:1039000004B04FEA102A0196DEB2E34565895FFAFA
:1039100080F9B4F80CE04FEA12280296D7B232D000
:10392000DFF800C1ACF8FE500D0AACF800A1ACF80D
:103930000091ACF80081ACF80071ACF8FEE0ACF896
:103940000051019DACF800511D0AACF80051029DD8
:10395000ACF8005125895B1A324CA4F8FE500FD404
:10396000121A0DD41299002588B200210131A4F851
:10397000000189B29142F9DD0135ADB29D42F4DD1D
:1039800009B0BDE8F08F05F1010C0EF1030B1FFA31
:103990008CF605F1020C1FFA8BFB03961FFA8CF6CE
:1039A00005F1030C04961FFA8CFC039ECDF814C09D
:1039B0000EF1010C1FFA8CFCCDF818C00EF1020CB0
:1039C0001FFA8CFCCDF81CC0DFF858C0ACF8FE50D4
:1039D0000D0AACF800A1ACF8FE60049EACF80091B2
:1039E000ACF8FE60059EACF80081ACF8FE60ACF867
:1039F0000071069EACF8FEE0ACF80051019DACF8F9
:103A0000FE60ACF800511D0A079EACF8FE60ACF8F1
:103A10000051029DACF8FEB0ACF800519AE700BF2F
:103A20003463002400FF07602DE9F04F0C4689B095
:103A300016469E46A2EB000C494D5A1A230A1FFA5D
:103A40008CFCB5F804B045F2105A0293E3B201328F
:103A50000CF101014FEA16280393F6B24FEA1E2338
:103A6000D3454FEA1029019692B26F8989B2AE8987
:103A7000C0B204935FFA8EFE38D03A4C019BA4F892
:103A8000FE70A4F80091A4F80001A4F80081A4F845
:103A90000031029BA4F8FE60A4F80031039BA4F857
:103AA0000031049BA4F80031A4F800E128892D4ED0
:103AB000A6F8FE00BAB1B1B100276FF0004E129B1C
:103AC00001FB07F505EB0E00654403EB400003EB3B
:103AD000450530F8024F8542A6F80041F9D101377B
:103AE000BFB2BA42ECD809B0BDE8F08F7C1C1FFA17
:103AF00084FBBC1CA3B2FC1CA4B20594741CA4B22D
:103B00000694B41C1FFA84FAF41CA4B20794154C52
:103B1000A4F8FE70A4F80091A4F8FEB0A4F8000187
:103B2000A4F8FE300198059BA4F80081A4F8FE30AB
:103B3000A4F800010298069BA4F8FE60A4F8000116
:103B40000398A4F8FE30A4F80001079B0498A4F899
:103B5000FEA0A4F80001A4F8FE30A4F800E1A5E757
:103B60003463002400FF07602DE9F04FA2EB000B47
:103B70008BB0A3EB010ABBF1000F7ADDBAF1000FA5
:103B800068DD01230593DA4553464FF00102B8BFC3
:103B90005B4604929A1801929E4E41F663149E4A27
:103BA000B5791288069503923589B2880295A242AA
:103BB000B589B6F80A90009564D045F21054A24237
:103BC00040F0A9802A46002509F1010701322E465E
:103BD0002C46089792B20792904ACFB2A2F8FE9074
:103BE0004FEA10285E4406974FEA112C049F0134D7
:103BF000A2F800815FFA80F807EB010EBDF8207093
:103C0000B3425544A2F8FE70A4B2059FA2F8008109
:103C100000EB0708009FA2F8FE70079FA2F800C102
:103C2000A2F8FE70069FA2F80071029FA2F8FE7033
:103C3000039FA2F8007102DAF61A1FFA88F0AB426D
:103C400002DAED1A1FFA8EF1019FA742C5DA0BB016
:103C5000BDE8F08F40F0A2800BF101034FF0010AA4
:103C600001935B46CDF814A04FF0000ACDF810A0E8
:103C700092E740F08A80BAF1000F40F39D80CDF8C2
:103C800014B080E70024654ACDF824902546A64666
:103C9000CDE907BA069E07464FEA11285FFA81FC74
:103CA00026B95C4E3788013F3F1ABFB2079EC7F363
:103CB0000F29FFB20EF1010E3544059E1FFA8EFE4C
:103CC00000EB060B049EAB4206EB010A099EA2F82C
:103CD000FE60089EA2F800913444009EA2F8007194
:103CE000A2F8FE60029EA2F80081A2F800C1A2F82C
:103CF000FE60039EA2F8006102DAED1A1FFA8BF053
:103D0000A34202DAE41A1FFA8AF1019E7645C1DA6B
:103D10000BB0BDE8F08F0025404A2E462C46CFB2AE
:103D2000A2F8FE904FEA10285E4406974FEA112C45
:103D3000049F0134A2F800815FFA80F807EB010EBE
:103D4000059FA2F80081B34200EB0708009F55448D
:103D5000A4B2A2F8FE70069FA2F800C1A2F80071FA
:103D6000029FA2F8FE70039FA2F8007102DAF61A11
:103D70001FFA88F09D4202DDED1A1FFA8EF1019FB5
:103D8000BC42CCDD0BB0BDE8F08FBAF1000FA0EB68
:103D9000020B16DD4FF0FF330593F4E6A1EB030AA7
:103DA00001225B464FF6FF76D345B8BF5346CDE9B7
:103DB00004629A180192EFE620D101225346019243
:103DC00050E709D14FF0FF322BEAEB73CDF810A08A
:103DD00005925A1C0192DFE6A1EB030A5B46D3452C
:103DE000B8BF53465D1CFFF632AF5A1C4FF6FF7446
:103DF00001924FF0FF32CDE90442CDE6A1EB030A78
:103E00004FF6FF72CDF814B02AEAEA7304925A1CF6
:103E10000192C1E6346300240800002400FF07601B
:103E20002DE9F04F8BB004461F460D46164607930A
:103E30000B4609910892FFF797FE3B46224629461A
:103E40002046FFF791FEA6EB040CBCF1000F40F3F7
:103E500087800CF101036046019301230293DFF890
:103E6000949141F66312614B0799B3F800B0B9F829
:103E700004300F0A99F806505FFA81F89342B9F8B6
:103E800008A00395B9F80C60B9F80A5074D045F24F
:103E9000105293424FF000023AD1691C06F1010919
:103EA000534B03911FFA89F911460495049D4FEA7B
:103EB000142E61440132A3F8FE50BDF80C50884224
:103EC000A3F800E15FFA84FEA3F8FE5092B2029DCF
:103ED000A3F800E1A3F8FE6004EB050EA3F800715F
:103EE000A3F8FE90A3F80081A3F8FEA0A3F800B108
:103EF00002DA091A1FFA8EF4019D9542D6DA099961
:103F0000DDE9073210460BB0BDE8F04FFFF72CBEDD
:103F1000374B1146DDF808900295029D4FEA142EAA
:103F200061440132A3F8FE508842A3F800E15FFA31
:103F300084FE92B2A3F800E104EB090EA3F8FE6040
:103F4000A3F80071A3F80081A3F8FEA0A3F800B1C4
:103F500002DA091A1FFA8EF4019DAA42DDDDCEE7CE
:103F60003ED0089BA4EB030C4FF6FF732CEAEC70D9
:103F70000293431C019372E700211D4B06958E4668
:103F8000CDE904CB039D224625B9B9F80020013ABA
:103F9000121B92B2049DC2F30F2CD2B20131AE4477
:103FA000029D89B205EB040B069D7045A3F8FE50F7
:103FB000A3F800C1A3F80021059AA3F8FE60A3F8B6
:103FC0000071A3F80081A3F8FEA0A3F8002103DA92
:103FD000AEEB000E1FFA8BF4019A8A42D2DA8EE71A
:103FE00001236046CDF808C0019338E7080000249B
:103FF00000FF0760346300242DE9F04F0C2B85B0DF
:104000000C46A2F1200218BF10239DF838508046BC
:1040100012018C492344002D00F0888002EB010B33
:1040200000F1080C884A9DB21FFA8CFC8749B2F84F
:1040300000A045F210598648CDE902581BF8012F1F
:104040004FEA142E039BE7B2019405E001335200BE
:104050009BB2D2B263451FD01406F7D5B1F80480E5
:104060004D89C8458E8920D041F66314A04535D0CE
:10407000A0F8FE501D0AA0F80051DDB2A0F80051D2
:10408000A0F8FE60A0F800E1A0F800710D89A0F88A
:10409000FE50A0F800A1D9E7019C029B0134A4B214
:1040A0009C42CBD105B0BDE8F08FA0F8FE500135A1
:1040B00006F101081C0AADB2A0F800411FFA88F809
:1040C000A0F8FE50DDB2A0F80051A0F8FE60A0F804
:1040D00000E1A0F8FE80A0F80071D7E791F8068013
:1040E000B8F1000F19D09846A0F8FE50C8F30F257C
:1040F0005FFA88F8A0F80051A0F80081A0F80051FC
:10410000A0F80081A0F8FE60A0F800E1A0F800711E
:10411000A0F800E1A0F80071B8E7B1F8008008F15C
:10412000FF38A8EB03081FFA88F8DDE70A449BB2C2
:1041300000F1080C464FDFF814A193460193CDE936
:10414000020C1BF8016F4FEA1429BDF80C80029D88
:104150000BE0404B214628461A68FEF707FA013566
:104160007600ADB2F6B2454529D03306F1D5BAF89E
:10417000041045F2105E344B5FFA84FC7145BAF8C6
:104180000A201B68BAF80C0021D041F6631E714565
:1041900035D0A7F8FE202A0AA7F80021EAB2A7F82E
:1041A0000021A7F8FE00A7F80091A7F800C1BAF80F
:1041B00008209BB2A7F8FE20A7F80031CFE7013412
:1041C000019BA4B29C42BCD105B0BDE8F08FA7F81A
:1041D000FE200132411C4FEA152E92B2A7F800E1F1
:1041E00089B2A7F8FE20EAB2A7F80021A7F8FE00DE
:1041F000A7F80091A7F8FE10A7F800C1D7E79AF832
:104200000610E1B9BAF800100139491B89B2A7F8C4
:10421000FE20C1F30F2ECAB2A7F800E1A7F80021D3
:10422000A7F800E1A7F80021A7F8FE00A7F8009181
:10423000A7F800C1A7F80091A7F800C1B7E7294681
:10424000E5E700BF2F1C0E0808000024346300249B
:1042500000FF0760040000242DE9F041DFF87C80B6
:1042600082B000261B4D074608F5A064DFF86CC03D
:1042700039464A7800200B780331D20011F801EC5E
:1042800005EA032302F4FC62134343EADE0363F30B
:104290000F0063F31F404CF8040B6445E9D14FF461
:1042A000A06241460C4807F570771EF045FB731C71
:1042B0003146023640F27F229BB2B6B20020CDF8E2
:1042C0000080FFF7B1FBB6F5F07FCFD102B0BDE8BB
:1042D000F08100BF00F8FFFFA0680024A063002465
:1042E00090422DE9F84F1E46BDF8283030DAB14231
:1042F0002EDAB2F5A07F20EAE070DFF8B08021EA84
:10430000E171A8BF4FF4A072F02ED8F800B04FEAC8
:1043100041054FEA4204A8BFF0264700C8F8003024
:1043200004F1FF397600B9EB400F06F1FF3A01DDE9
:1043300055451EDB781CA31E984203DA691CB31E88
:10434000994223DB0237033CA74203DBC8F800B0E5
:10435000BDE8F88F0235033EB542F7DAAAF1020351
:10436000A9F10202A9B2B8B29BB292B2FFF758FD0E
:10437000ECE7B8B21FFA8AF3A9B21FFA89F2FFF785
:104380004FFD781CA31E9842DCDAD7E70AF1FF3311
:1043900009F1FF320237033C89B280B29BB292B27C
:1043A000FFF73EFDA742D1DAD4E700BF08000024A2
:1043B00010B50446FBF79EFF0246642321460348DE
:1043C00092B2BDE810400CF005BA00BFB06E0024F8
:1043D0002DE9F041002486B0762340F21632009495
:1043E000522140F28A20484FFFF782FA474C4FF69D
:1043F000FF7340F28A2553220126D7F800803B60E4
:10440000A2F120035E2B37D914F8012F002AF7D12F
:104410003F4B0B213F4A03A81B88C7F800801EF0C2
:1044200075F99DF80C200446A2F13003092B33D90D
:10443000E4B2012C1DD09DF80D20A2F13003092B10
:1044400034D9022C15D09DF80E20A2F13003092B8F
:1044500045D9032C0DD09DF80F30A3F13002092A65
:1044600047D9052C05D19DF81030A3F13002092A57
:1044700028D906B0BDE8F081284608351023582118
:10448000ADB20096FFF7B8FD14F8012FB5F5447FE3
:10449000BED8002AB4D1BBE71C3A4FF4FC635221CA
:1044A00040F2F620D2B2FCF7B9F9C1E71C3A4FF45A
:1044B000FC63522140F21630D2B2FCF7AFF9022C65
:1044C000C1D1D6E7A3F11C0252214FF4FC6340F2A4
:1044D0007630D2B2FCF7A2F906B0BDE8F0811C3A02
:1044E0004FF4FC63522140F23630D2B2FCF796F919
:1044F000AFE7A3F11C0252214FF4FC6340F25630A7
:10450000D2B2FCF78BF9ACE7080000242C070E08A8
:104510001400002438070E082DE9F0434FF6FF7011
:1045200083B0FEF70FF90021CC4840F2DF1340F2D0
:104530001F32CB4C00900846FFF776FA3F2300214C
:10454000C84AC94D47F6EF36084600921A4640F26F
:104550006917FFF769FA0094C44C852340F2B92229
:1045600000216620FFF760FAB7234D2294212A200C
:104570000094FFF759FA0023102296215A20BC4CD0
:10458000FCF74CF90023032296217A20FCF746F928
:104590000023312296219A20FCF740F9F3234D2283
:1045A000D0212A200094FFF73FFA00230122D221D4
:1045B0005A204FF49B74FCF731F900230B22D221CF
:1045C0007A20FCF72BF900233122D2219A20FCF724
:1045D00025F940F22F134D224FF486712A200095C1
:1045E000FFF722FA00231F224FF487715A20FCF7AD
:1045F00015F9002320224FF487717A20FCF70EF979
:10460000002331224FF487719A20FCF707F999486B
:1046100040F265134D2200904FF4A1712A20FFF75C
:1046200003FAB4F5A07F80F00C82C4F14003DBB242
:1046300013FB03F3132B40F37582242B40F3998271
:10464000332B40F3B782402B40F3B7824B2B40F320
:10465000CB82542B40F3CB825B2B40F3F382602B55
:1046600040F3F382642B0BBFF022F122642063201D
:104670002346214601340096FFF73AF9A4B2BC4222
:10468000CFD14FF6FF7321224FF4A0716220FCF7C7
:10469000C5F84FF6FF7322224FF4A0718220B82490
:1046A000FCF7BCF84FF6A0464FF6FF7323224FF4F9
:1046B000A071A220FCF7B2F84FF6FF7324224FF44A
:1046C000A071C220FCF7AAF8C62C00F2AB81C4F19D
:1046D000C703DBB213FB03F31D2B40F32F82382BF0
:1046E00040F34F82512B40F36B82682B40F36D8275
:1046F0007D2B40F37F82902B40F38182A12B40F3EE
:10470000BB82B02B40F3BD82BD2B40F3A182C82BEE
:1047100040F3D882D12B40F3D082D82B40F3EB82E8
:10472000DD2B40F3E382E12B40F2BD1240F2631037
:104730000CBF4FF4DE724FF4B170234621460134B2
:104740000096FFF7D5F8A4B2B4F5987FBCD1002647
:104750004FF0CA09DFF820818027002402E00134ED
:10476000202C16D0C4F3CC0304F00702A0B23344CB
:1047700027FA02F218F803301342F0D000F5C070A7
:1047800001344FF6FF72494680B2FDF7EFFE202C50
:10479000E8D109F1010904361FFA89F9B9F1EA0FE4
:1047A000DBD14FF6FF730022FE214FF4B870B8241E
:1047B0001F26FCF733F84FF6FF730122FE214FF45A
:1047C000C870FCF72BF8C62C00F21D81C4F1C7039A
:1047D000DBB213FB03F31D2B40F3BE81382B40F3F8
:1047E000CB81512B40F3D781682B40F3F3817D2B94
:1047F00040F3F581902B40F30782A12B40F3138205
:10480000B02B40F31582BD2B40F31782C82B40F329
:104810003D82D12B40F33F82D82B40F35D82DD2BCC
:1048200040F37382E12B40F2492240F2EF100CBFBB
:104830004FF412724FF4F77023462146013400966C
:10484000FFF756F8A4B2B4F5987FBCD100264FF01C
:10485000CA09DFF828808027002414E0B831020854
:1048600090410E086CE01008402C0E082CCC10086B
:1048700010B3100820220E080E410E0886400E08C4
:104880000134202C16D0C4F3CC0304F00702A0B2EC
:10489000334427FA02F218F803301342F0D000F242
:1048A0000B2001344FF6FF72494680B2FDF75EFEE1
:1048B000202CE8D109F1010904361FFA89F9B9F170
:1048C000EA0FC9D14FF6FF730222FE214FF4FE70AA
:1048D000B8244FF4FC66FBF7A1FF4FF6FF730122EB
:1048E000FE214FF40770FBF799FFC62C7CD8C4F16A
:1048F000C703DBB213FB03F31D2B40F30581382BF9
:1049000040F34481512B40F34B81682B40F34D81A0
:104910007D2B40F37E81902B40F38081A12B40F3CF
:104920009C81B02B40F39E81BD2B40F3A081C82B0E
:1049300040F3CD81D12B40F3BB81D82B40F3E081F4
:10494000DD2B40F3CE81E12B40F28E2340F2E922B1
:1049500040F28F200CBF4FF43A721846234621468E
:1049600001340096FEF7C4FFA4B2B4F5987FBCD121
:10497000ED2340F2CF220095CA214FF42B70C84E90
:10498000FFF752F8C74C4FF6FF734FF42D754922CD
:104990004FF0010837683360A2F120035E2B6FD916
:1049A00014F8012F002AF7D14FF6FF73BE4C4FF4D5
:1049B00028754D224FF001083360A2F120035E2BD1
:1049C0004CD914F8012F002AF7D1B84940F2DF136F
:1049D000376040F21F32009100204FF4C871FFF79A
:1049E00023F803B0BDE8F083B4F5907F5AD823468E
:1049F0002146013440F2F7224FF420700096A4B211
:104A0000FEF776FF71E7B4F5907F63D82346214621
:104A1000013440F257224FF4F0700096A4B2FEF732
:104A200067FFD0E6B4F5907F61D823462146013474
:104A300040F2CB124FF4AA700096A4B2FEF758FFD2
:104A400042E6B4F5AF7F3AD8234621460134FA2234
:104A50005A200096A4B2FEF74BFFE2E52846102349
:104A60004FF48B71CDF800800835FFF7C5FA14F8C4
:104A7000012FADB2002AA8D0B5F5447F9DD9A4E797
:104A8000284608351023FE21ADB2CDF80080FFF78F
:104A9000B3FA14F8012FB5F5447F85D8002A7FF4C6
:104AA0007BAF81E7A4F12003DBB213FB03F31D2BE3
:104AB0003FF725AF40F2F62240F281204EE7A4F105
:104AC0005E03DBB213FB03F3132B3FF7B6ADF92202
:104AD0005B20CDE5A4F12003DBB213FB03F31D2B18
:104AE0003FF77CAE40F2562240F2E110A4E6A4F17A
:104AF0002003DBB213FB03F31D2B3FF7F0AD4FF4A4
:104B0000E57240F2551018E64FF4FC622346214648
:104B10000134009240F2812040F2F622A4B2FEF766
:104B2000E7FEE2E647F6EF332146F9225B200093E9
:104B300023460134FEF7DCFEA4B272E54FF6A04234
:104B4000234621460134009240F255104FF4E5729D
:104B5000A4B2FEF7CDFEB7E51F222346214601345D
:104B6000009240F2E11040F25622A4B2FEF7C0FEDD
:104B700029E6F8225C207BE540F255224FF4F170E3
:104B80005AE640F2C9124FF4AB70D6E540F2F52276
:104B900040F28220E2E64FF4157240F2E3104BE659
:104BA0004FF43D7240F28320D8E640F2F3224FF4F6
:104BB0002170D3E6F7225D205AE5F6225E2057E504
:104BC0004FF4E47240F25710B7E540F2C7124FF4C9
:104BD000AC70B2E540F253224FF4F2702CE640F292
:104BE000522240F2E51027E6F5225F2040E5F4224C
:104BF00060203DE54FF4E37240F259109DE540F22C
:104C0000C5124FF4AD7098E540F251224FF4F370A5
:104C100012E640F2F22240F285209FE640F2F122B5
:104C200040F286209AE64FF4147240F2E71003E651
:104C300040F24F224FF4F470FEE540F24E2240F273
:104C4000E910F9E5F322612012E5F22262200FE576
:104C50004FF4E17240F25D106FE54FF43C7240F2A8
:104C600087207BE640F2EF224FF4227076E640F296
:104C7000EE2240F2892071E64FF4E27240F25B10BE
:104C80005BE540F2C3124FF4AE7056E540F24D22A0
:104C90004FF4F570D0E54FF4137240F2EB10CBE512
:104CA000080000243C070E0840070E08B8F50B0862
:104CB0004FF43B7240F28B2050E64FF4E07240F22A
:104CC0005F103AE540F2C1124FF4AF7035E540F2A3
:104CD000ED2240F28A2041E640F24B224FF4F6707A
:104CE000AAE540F2EA2240F28D2037E64FF4DF7267
:104CF00040F2611021E540F2BF124FF4B0701CE5A4
:104D000040F2EB224FF4237028E640F24A2240F2B0
:104D1000ED1091E52DE9F041002482B04FF4CC7301
:104D200040F21E32009404464FF4A9714FF42270F1
:104D3000FEF7DEFD237813B902B0BDE8F0813449F7
:104D400020461DF0A6FD40B34FF4FC63314ED6F86B
:104D500000803360227852B140F28A250127A2F107
:104D600020035E2B08D914F8012F002AF7D1C6F8CA
:104D7000008002B0BDE8F081284610234FF4AF71E7
:104D800000970835FFF738F914F8012FADB2002A63
:104D9000EDD0B5F5447FE2D9E9E71F4920461DF083
:104DA00078FD0028D0D108221C4920461DF05FFD67
:104DB0000028C9D01A4920461DF06BFD10B14FF4F0
:104DC0007843C3E7174920461DF063FD0028F6D15C
:104DD000154920461DF05DFD0028F0D113492046FD
:104DE0001DF057FD10B14FF6E073AFE710492046B4
:104DF0001DF04FFD0028F6D10E4920461DF049FD5B
:104E00004FF6E0734FF6FF72002808BF13469DE788
:104E100048070E080800002450070E085C070E081B
:104E2000800E0E0868070E0870070E087C070E0833
:104E300084070E088C070E082DE9F043404D91B011
:104E4000962423462146013400954FF42A724FF4EC
:104E5000A070A4B205F5C865FEF7E6FDB72CF0D149
:104E6000384DC32423462146013400954FF4437244
:104E70004FF4A070A4B205F5C865FEF7D5FDE42C8B
:104E8000F0D1314DF02440F2111623462146013471
:104E900000954FF443724FF4A070A4B205F5C865B5
:104EA000FEF7C2FDB442F0D1284D40F21D14234656
:104EB0002146013400954FF443724FF4A070A4B220
:104EC00005F5C865FEF7B0FDB4F59F7FEFD1204D25
:104ED0004FF4A57440F26B16234621460134009529
:104EE0004FF443724FF4A070A4B205F5C865FEF705
:104EF0009BFDB442F0D1174D40F277142346214672
:104F0000013400954FF443724FF4A070A4B205F53C
:104F1000C865FEF789FDB4F5CC7FEFD10E4D4FF695
:104F2000FF722B88934240F077810C4B1B78002B4B
:104F300000F05C810A490A78E2B1134617E000BF2D
:104F4000B8DD0508F8F606083810080878290908B9
:104F5000B8420A08F85B0B080C00002443630024E5
:104F60005863002411F8013F002B00F01583203B0B
:104F70005E2BF7D92B881821C74A0AA81DF0C6FB5B
:104F8000C64D00239DF828202F682B606AB10AAC1B
:104F90004FF4A5764FF00108A2F120035E2B40F2FA
:104FA000288114F8012F002AF6D1BD4B0B21BD4AF0
:104FB00005A81B682F601DF0A9FB9DF8143004465E
:104FC000A3F13002092A40F27981E4B2012C00F009
:104FD00097839DF81530A3F13002092A40F21B8314
:104FE000022C00F0AE839DF81630A3F13002092A9E
:104FF00040F21C83032C00F020849DF81730A3F1AD
:105000003002092A40F26581042C00F054849DF896
:105010001830A3F13002092A40F27C81052C00F0FF
:105020009A839DF81930A3F13002092A40F2468391
:10503000062C00F0A0849DF81A30A3F13002092A52
:1050400040F26883072C00F0B4849DF81B30A3F174
:105050003002092A40F2CF83082C00F0C7849DF863
:105060001C30A3F13002092A40F2F1830A2C40F0EF
:10507000D9849DF81D30A3F13002092A40F2218421
:10508000D5F8008040F28A260023874C6D22012744
:105090002B60A2F120035E2B40F2478114F8012F10
:1050A000002AF6D11421814B814A1B680DEB0100C7
:1050B000C5F800801DF02AFB00239DF81420D5F8C8
:1050C00000802B6062B105AC40F262260127A2F19C
:1050D00020035E2B40F23B8114F8012F002AF6D109
:1050E000744BC5F800801B78002B40F0428102AF62
:1050F000714B0B216B4A38461B681DF007FB9DF86E
:1051000008300446A3F13002092A40F26C82E4B26E
:10511000012C00F0FA829DF80930A3F13002092A2F
:1051200040F26D82022C00F011839DF80A30A3F149
:105130003002092A40F28582032C00F083839DF817
:105140000B30A3F13002092A40F29282042C00F0C5
:10515000AD839DF80C30A3F13002092A40F294820D
:10516000052C00F0E6839DF80D30A3F13002092AEA
:1051700040F2AF82062C00F0F9839DF80E30A3F1C7
:105180003002092A40F2D182072C00F018849DF8E1
:105190000F30A3F13002092A40F22183082C00F0DD
:1051A0001F849DF81030A3F13002092A40F25A837F
:1051B0000A2C40F03D849DF81130A3F13002092AF9
:1051C00040F28F83D5F8008040F28A260023364CC7
:1051D0006D2201272B60A2F120035E2B40F2C981D2
:1051E00014F8012F002AF6D1C5F8008011B0BDE8EF
:1051F000F083304608361023CB21B6B2CDF80080BC
:10520000FEF7FAFE14F8012FB6F5447F3FF6CDAE57
:10521000002A7FF4C1AEC8E6224A0B210AA81DF07D
:1052200075FA9DF828300446A3F13002092A40F2AD
:105230001482E4B2012C3FF478AE9DF82930A3F13A
:105240003002092A50D9022C3FF46FAE9DF82A3063
:10525000A3F13002092A52D9032C3FF466AE9DF81F
:105260002B30A3F13002092A40F23F82052C7FF453
:105270005CAE9DF82C30A3F13002092A3FF655AE02
:10528000A3F11C0296214FF4FC634FF4E570D2B2F7
:10529000FBF7C4FA49E600BF98070E08080000248F
:1052A0005463002438070E0890070E08506300244A
:1052B000A0070E08426300244C630024A3F11C02E3
:1052C000F0214FF4FC634FF4A570D2B2FBF7A6FABD
:1052D0007BE6A3F11C02F0214FF4FC634FF4D57080
:1052E000D2B2FBF79BFA8FE6A3F11C0296214FF492
:1052F000FC634FF4B570D2B2FBF790FAA3E7A3F1C9
:105300001C0296214FF4FC634FF4C570D2B2FBF738
:1053100085FAA1E7A3F11C02F0214FF4FC634FF4DE
:10532000E570D2B2FBF77AFA78E6304608361023F9
:10533000F821B6B20097FEF75FFE14F8012FB6F51C
:10534000447F3FF6AFAE002A7FF4A3AEAAE6304614
:1053500008361023F821B6B20097FEF74DFE14F878
:10536000012FB6F5447F3FF6BBAE002A7FF4AFAE07
:10537000B6E6CB4B02AFCB4A0B211B6838461DF07B
:10538000C5F99DF808300446A3F13002092A40F21D
:105390004882E4B2012C00F02F839DF80930A3F17C
:1053A0003002092A40F27682022C00F04C839DF8EC
:1053B0000A30A3F13002092A40F2A382032C00F044
:1053C00064839DF80B30A3F13002092A40F2B682C3
:1053D000042C00F07C839DF80C30A3F13002092AE4
:1053E00040F2CF82052C00F09C839DF80D30A3F194
:1053F0003002092A40F2B481062C00F09C839DF80B
:105400000E30A3F13002092A40F2B681072C00F0D9
:10541000BF819DF80F30A3F13002092A40F21883B2
:10542000082C00F097839DF81030A3F13002092A70
:1054300040F230830A2C40F092839DF81130A3F1A2
:105440003002092A40F24883D5F8009040F28A26BB
:105450000023954C6D224FF001082B60A2F1200330
:105460005E2B40F29A8114F8012F002AF6D18F4B5F
:105470000B218C4A38461B68C5F800901DF046F990
:105480009DF808300446A3F13002092A40F2BE819B
:10549000E4B2012C00F0B5829DF80930A3F130028E
:1054A000092A40F2EB81022C00F0C8829DF80A30F4
:1054B000A3F13002092A40F23082032C00F0E0828E
:1054C0009DF80B30A3F13002092A40F24382042CEC
:1054D00000F0F8829DF80C30A3F13002092A40F266
:1054E0005C82052C00F018839DF80D30A3F130028A
:1054F000092A40F26982062C00F018839DF80E30CC
:10550000A3F13002092A40F28182072C00F01883AF
:105510009DF80F30A3F13002092A40F2A582082C31
:1055200000F013839DF81030A3F13002092A40F2F5
:10553000BD820A2C40F018839DF81130A3F130028F
:10554000092A40F2D982D5F8009040F28A26002339
:10555000574C6D224FF001082B60A2F120035E2B07
:1055600040F22C8114F8012F002AF6D1C5F80090E2
:10557000BEE530460836102340F27F11B6B20097E0
:10558000FEF73AFD14F8012FB6F5447F3FF62CAE36
:10559000002A7FF420AE27E6464D4FF4A574464E10
:1055A0004FF001082F682B60A2F120035E2B08D971
:1055B00016F8012F002A3FF4F8ACA2F120035E2B6D
:1055C000F6D8204608341023CB21A4B2CDF80080B1
:1055D000FEF712FD16F8012FB4F5447F3FF6E5AC57
:1055E000002AEAD1E1E4A3F11C0240F277114FF462
:1055F000FC634FF4A570D2B2FBF710F987E5A3F175
:105600001C0240F277114FF4FC634FF4B570D2B234
:10561000FBF704F986E5A3F11C02F0214FF4FC63CB
:105620004FF4B570D2B2FBF7F9F8D9E4A3F11C023C
:10563000F0214FF4FC634FF4C570D2B2FBF7EEF8E3
:10564000D8E4A3F11C0240F277114FF4FC634FF44D
:10565000C570D2B2FBF7E2F86EE5A3F11C02962109
:105660004FF4FC634FF4A570D2B2FBF7D7F8E0E536
:10567000A3F11C0240F277114FF4FC634FF4D57094
:10568000D2B2FBF7CBF861E5A3F11C0240F277112F
:105690004FF4FC634FF4E570D2B2FBF7BFF85FE55F
:1056A0004463002438070E0890070E08486300245E
:1056B00094070E080800002458630024A3F11C027C
:1056C000F0214FF4FC634FF4F570D2B2FBF7A6F86B
:1056D000AEE4A3F11C0240F277114FF4FC634FF4E7
:1056E000F570D2B2FBF79AF844E5A3F11C029621BB
:1056F0004FF4FC634FF4D570D2B2FBF78FF8B5E5E9
:10570000D5F800804FF4B576BEE4D5F800804FF4AC
:10571000B5765BE5A3F11C02F0214FF4FC6340F287
:105720000A20D2B2FBF77AF88CE4A3F11C0240F213
:1057300077114FF4FC6340F20A20D2B2FBF76EF807
:1057400022E5D5F800804FF4C5769DE4D5F80080B9
:105750004FF4C5763AE5D5F800804FF4F57693E43A
:10576000A3F11C0240F21D114FF4FC634FF4F570DD
:10577000D2B2FBF753F83FE6A3F11C0240F21D1131
:105780004FF4FC6340F20A20D2B2FBF747F83DE643
:10579000D5F8009040F22A265AE630460836102303
:1057A00040F22511B6B2CDF80080FEF725FC14F8C2
:1057B000012FB6F5447F7FF658AE58E630460836DE
:1057C00010234FF4A971B6B2CDF80080FEF714FC97
:1057D00014F8012FB6F5447F7FF6C6AEC6E6A3F1F6
:1057E0001C0240F277114FF4FC6340F22A20D2B23F
:1057F000FBF714F8D2E4A3F11C02F0214FF4FC6390
:1058000040F22A20D2B2FBF709F825E4A3F11C02EA
:105810004FF4A5714FF4FC63D2B20846FAF7FEFFCD
:1058200036E6A3F11C0240F21D114FF4FC634FF465
:10583000A570D2B2FAF7F2FFABE5D5F800804FF4CD
:10584000D57621E4D5F800804FF4D576BEE4A3F1F7
:105850001C02F0214FF4FC6340F24A20D2B2FAF766
:10586000DDFF03E4A3F11C0240F277114FF4FC6367
:1058700040F24A20D2B2FAF7D1FF99E4A3F11C0218
:105880004FF4A5714FF4FC634FF4B570D2B2FAF740
:10589000C5FF08E6A3F11C0240F21D114FF4FC63A2
:1058A0004FF4B570D2B2FAF7B9FF7DE5D5F80080B4
:1058B0004FF4E5768AE4D5F800804FF4E576FFF7FB
:1058C000E3BBA3F11C02F0214FF4FC6340F26A2019
:1058D000D2B240F28A26FAF7A1FFD5F80080FFF78E
:1058E000D3BBA3F11C0240F277114FF4FC6340F2EA
:1058F0006A20D2B240F28A26FAF790FFD5F80080EB
:1059000064E4A3F11C0240F21D114FF4FC634FF458
:10591000C570D2B2FAF782FF50E5A3F11C024FF432
:10592000A5714FF4FC634FF4C570D2B2FAF776FF5D
:10593000C3E5D5F800804FF4F57647E4A3F11C02E7
:1059400040F21D114FF4FC634FF4D570D2B2FAF758
:1059500065FF3DE5A3F11C024FF4A5714FF4FC6314
:105960004FF4D570D2B2FAF759FFB0E5D5F8008000
:1059700040F20A262AE4D5F8008040F20A26FFF712
:1059800083BBA3F11C0240F21D114FF4FC634FF4E2
:10599000E570D2B2FAF742FF24E5A3F11C024FF4FE
:1059A000A5714FF4FC634FF4E570D2B2FAF736FFFD
:1059B00097E5D5F8008040F22A26FFF765BBD5F8B9
:1059C000008040F22A2601E4A3F11C024FF4A571E5
:1059D0004FF4FC634FF4F570D2B2FAF71FFF8AE57B
:1059E000D5F8008040F24A26FFF7F0BBD5F80080DA
:1059F00040F24A26FFF748BBD5F800904FF4B57641
:105A000026E5D5F800904FF4B576A0E5A3F11C0289
:105A10004FF4A5714FF4FC6340F20A20D2B2FAF7BA
:105A2000FDFE72E5D5F8008040F26A26FFF72CBB38
:105A3000D5F8008040F26A26FFF7C8BBD5F8009081
:105A40004FF4C57683E5D5F800904FF4C576FFE4B2
:105A5000A3F11C0240F21D114FF4FC6340F22A2016
:105A6000D2B2FAF7DBFEDBE4A3F11C024FF4A5711E
:105A70004FF4FC6340F22A20D2B2FAF7CFFE4EE593
:105A8000D5F800904FF4D57661E5D5F800904FF445
:105A9000D576DDE4A3F11C0240F21D114FF4FC6346
:105AA00040F24A20D2B2FAF7B9FEC3E4A3F11C02D5
:105AB0004FF4A5714FF4FC6340F24A20D2B2FAF7DA
:105AC000ADFE36E5D5F800904FF4E5763FE5D5F824
:105AD00000904FF4E576BBE4A3F11C0240F21D11E7
