:020000040800F2
:10000000000008243D440108A5250108A925010890
:10001000E5250108212601085D26010800000000F1
:100020000000000000000000000000009926010808
:100030009D26010800000000A1260108A526010850
:100040009144010891440108914401089144010838
:100050009144010891440108914401089144010828
:100060009144010891440108914401089144010818
:100070009144010891440108914401089144010808
:1000800091440108914401089144010891440108F8
:1000900091440108914401089144010891440108E8
:1000A00091440108914401089144010891440108D8
:1000B00091440108914401089144010891440108C8
:1000C00091440108914401089144010891440108B8
:1000D000914401089144010891440108C126010896
:1000E0009144010891440108000000009144010876
:1000F0009144010891440108914401089144010888
:100100009144010891440108914401089144010877
:100110009144010891440108914401089144010867
:10012000914401089144010891440108A92601085D
:100130009144010891440108914401089144010847
:1001400000000000000000000000000000000000AF
:100150009144010891440108914401089144010827
:100160009144010891440108914401089144010817
:100170009144010891440108B526010800000000DF
:1001800091440108914401089144010891440108F7
:1001900091440108914401089144010891440108E7
:1001A00091440108914401089144010891440108D7
:1001B00091440108914401089144010891440108C7
:1001C00091440108914401089144010891440108B7
:1001D00091440108914401089144010891440108A7
:1001E0009144010891440108914401089144010897
:1001F0009144010891440108914401089144010887
:100200009144010891440108914401089144010876
:100210009144010891440108914401089144010866
:100220009144010891440108914401080000000034
:100230009144010891440108000000009144010824
:100240009144010891440108914401089144010836
:100250009144010891440108914401089144010826
:100260009144010891440108914401089144010816
:1002700091440108914401089144010800000000E4
:1002800091440108914401089144010800000000D4
:08029000000000009144010888
:1002A00010B5054C237833B9044B13B10448AFF3B0
:1002B00000800123237010BD384B00240000000093
:1002C000B452020808B5034B1BB103490348AFF30E
:1002D000008008BD000000003C4B0024B45202081E
:1002E00010F8012B11F8013B012A28BF9A42F7D0E0
:1002F000D01A7047034613F8012B002AFBD1181AB5
:1003000001387047000000000000000000000000FD
:1003100001F0FF01102A2BDB10F0070F08D010F8B6
:10032000013B013A8B422DD010F0070F42B3F6D1BA
:10033000F0B441EA012141EA014122F007047FF0D3
:1003400000070023F0E80256083C85EA010586EA2A
:10035000010685FA47F5A3FA87F586FA47F6A5FA66
:1003600087F68EB9EED1F0BC01F0FF0102F0070272
:1003700032B110F8013B013A83EA010313B1F8D11D
:100380000020704701387047002D06BF35460338FE
:10039000073815F0010F07D1013015F4807F02BF37
:1003A000013015F4C03F0130F0BC0138704700BF88
:1003B00053B94AB9002908BF00281CBF4FF0FF31CC
:1003C0004FF0FF3000F0BCB9ADF1080C6DE904CE80
:1003D00000F03AF8DDF804E0DDE9022304B07047EC
:1003E00007EE900AF5EEC07AF1EE10FA01D400F0B3
:1003F0000BB8F1EE677A08B517EE900A00F004F832
:10040000404261EB410108BD9FED0B6B07EE100A06
:100410009FED0B5BB7EEC77A27EE066BBCEEC66BA3
:10042000B8EE464BA4EE457BFCEEC77B16EE101AE9
:1004300017EE900A704700BF000000000000F03D7A
:10044000000000000000F0412DE9F047089D8E46B5
:1004500004468846002B4AD18A42174662D9B2FA2E
:1004600082F64EB1C6F1200301FA06F820FA03F332
:10047000B74043EA0808B4404FEA174E1FFA87FC1A
:10048000B8FBFEF1230C0EFB118843EA084301FB85
:100490000CF29A4209D9FB1801F1FF3080F0EA8092
:1004A0009A4240F2E78002393B449A1AA3B2B2FB67
:1004B000FEF00EFB102243EA024300FB0CFC9C45BD
:1004C00009D9FB1800F1FF3280F0D6809C4540F23C
:1004D000D3803B44023840EA0140A3EB0C030021E7
:1004E0001DB1F3400022C5E90032BDE8F0878B4220
:1004F00005D90DB1C5E9000100210846F5E7B3FAB9
:1005000083F1002946D1734502D3824200F205816E
:10051000841A6EEB030201209046002DE5D0C5E958
:100520000048E2E7002A00F09080B2FA82F6002E3E
:1005300040F0A4808A1A030C4FEA174E80B2BCB276
:100540000121B2FBFEFC0EFB1C2243EA024304FB2A
:100550000CF29A4207D9FB180CF1FF3802D29A42EA
:1005600000F2E080C4469B1AB3FBFEF20EFB12338E
:1005700040EA034302FB04F49C4207D9FB1802F152
:10058000FF3002D29C4200F2CA8002461B1B42EAA4
:100590000C40A5E7C1F120068B4022FA06F71F4365
:1005A0000EFA01F420FA06F32EFA06FE4FEA174976
:1005B000234300FA01F81FFA87FCBEFBF9F01C0C7C
:1005C00009FB10EE44EA0E4400FB0CFEA64502FABD
:1005D00001F209D93C1900F1FF3A80F09C80A64550
:1005E00040F2998002383C44A4EB0E041FFA83FECB
:1005F000B4FBF9F309FB13444EEA044403FB0CFC7F
:10060000A44508D93C1903F1FF3E80F08280A4453F
:100610007FD9023B3C4443EA0040A4EB0C04A0FB1E
:1006200002EC64457346E14662D35FD05DB1B8EB3E
:10063000030264EB090404FA06F622FA01F31E43EE
:10064000CC40C5E9006400214FE7B1FBF2FC010C8E
:1006500041EA0E4180B240EA01423B4638463C4600
:10066000B846BE462026B1FBF7F1A2EB080241EAEC
:100670000C4166E7014618E710462CE7C6F1200258
:100680002EFA02F3B740B14020FA02F24FEA174EB9
:100690000A43B3FBFEF8BCB20EFB1833110C41EA5F
:1006A000034108FB04F9B04089454FEA104380B28A
:1006B0003ED9791808F1FF3C01D289451FD8A1EB3A
:1006C0000901B1FBFEF909FB04F80EFB191192B206
:1006D00042EA0142424529D2BA1809F1FF31C4D297
:1006E0004245C2D2A9F102013A44BEE7F0459DD28B
:1006F000BEEB02036CEB070C0138E14696E7A7EB73
:1007000009094944A8F1020CB1FBFEF909FB04F800
:10071000DBE773467FE7504666E70846FDE63B4465
:10072000023A33E7ACF1020C3B441CE749469CE734
:10073000A1EB0901C446B1FBFEF909FB04F8C4E7CB
:10074000704700BF000000009FED117B124A00239C
:100750000020C2F81730C2F81B3082F8283082F827
:100760002B3013751064D36682F88030A2F85030B5
:1007700082F85430A2F85630936682ED187BC2E9B5
:100780000C33C2E91633C2E91C33C2E91E33704789
:10079000000000000000000070500024F0B51B4D68
:1007A00083B005F065FE064613F0D6FEAB6B13B1C1
:1007B000C31A002B25DBA97D052913D9A1F1070157
:1007C000B1FA81F149094C0005F058FEA8B9104A68
:1007D000B5F84C7021462B7E304600970EF09EFDFA
:1007E00003B0F0BD03290FD8A1F10204B4FA84F4D8
:1007F000640905F043FE0028E9D005F045FE0246F5
:10080000E6E795F82140DFE70124DDE7705000249A
:100810000080FFFF30B5114DABB0AB7D83421AD0E5
:100820000F4A072B0446019152F820004FF0A00117
:1008300094BF52F823300B4B0B4A009002A824F0CF
:100840001DF84FF0FF3382B202A9084819F0DAFB15
:10085000AC75FFF7A3FF2BB030BD00BF7050002474
:10086000FC240E08380B0E08400B0E0838BA002482
:100870000FB400B5D3B04FF4A07154AB02A853F835
:10088000042B019324F05EF800280BDD40F23F12A8
:100890004FF0FF3302A98242A8BF0246044892B239
:1008A00019F0B0FB53B05DF804EB04B0704700BF23
:1008B00038BA002438B50446FF20214613F084FDE1
:1008C000094B0022054683F8282013F045FE074B0C
:1008D00000F5E160186005B938BD2A462146044894
:1008E000BDE83840FFF7C4BF70500024904B00248F
:1008F000600B0E08394B0020394A3A4970B593F81D
:100900002A3084B00126384D1B1A8DF80B00ADF843
:10091000086018BF012301912E7082EA03228DF82E
:100920000A30039211F002FE10B1304604B070BDDF
:100930004FF480314FF0907011F086FCC0B3022666
:1009400011F0B0FD68BB294CC4F88400BFF34F8F91
:10095000D4F8803043F6E070C3F3C90EC3F34E33CE
:100960004FEA431C0CEA0001734641EA8372013BE3
:10097000C4F874225A1CF8D1ACF1200C1CF1200FE1
:10098000F0D1BFF34F8FBFF36F8F76B9184B019A39
:100990001968914216D0012305262B70304604B009
:1009A00070BD012304262B70F8E701232B70F5E7B7
:1009B0000C2201A94FF0907011F0D2FC061E18BF56
:1009C0000326BDE75A68029B9A42E4D1094A039B79
:1009D00012689A42DFD133462B70DFE77050002453
:1009E00093751094504C4B317F4B002400ED00E088
:1009F00000002091080020912DE9F0474FF00009F8
:100A0000DFF810813F4F0D46C1F800901646C2F83E
:100A10000090044688F8009087F8009006F00EFCDD
:100A2000824606F00FFC49460246504623F0C2FFBC
:100A300010F086FB002842D113F08EFD98F80030AC
:100A400081464BB913F088FDA0EB09039C4240D3CB
:100A500098F80030002BF5D02B4B1968002943D0B3
:100A600048684FF400534FF0000CDFF8A4E003E0B7
:100A70004FF0000C013B0CD002464868DEF8044001
:100A80006407F5D49042F3D10CF1010CBCF1400F96
:100A9000F0D11E4813F06EFF3B7803F0FF04FBB962
:100AA000284606F0D3FB3060E0B12D68054406F01F
:100AB000C9FB854288BF05242046BDE8F087012494
:100AC000124813F057FF142013F04CFD2046BDE8E8
:100AD000F08702240D4813F04DFF2046BDE8F08753
:100AE0000324E9E70424E7E74FF40053084802E051
:100AF0000021013BCDD042685207F9D40131402991
:100B0000F7D1C6E70C510024145100249051002461
:100B1000000002480D51002430B5044683B00D4654
:100B200006F08CFB031904D0032D02D9025DFF2AC5
:100B300002D0012003B030BD5A78D82AF9D19A7872
:100B4000FF2AF6D1DB7803F12002D2B20F2A0AD9AC
:100B5000DD2B24D8BF2BECD94033124ADBB222FA6A
:100B600003F3DB07E5D506F069FB0F4B20449B68D8
:100B70009BB15A680D4B002A08BF1A46B4244FF0A7
:100B8000FF332946CDE90034322306F0B5FA0038A8
:100B900018BF0120400003B030BD044AEEE7FE2B31
:100BA000C7D1E0E715000028FC500024E0BE002477
:100BB00000227449034674482DE9F04FA5B00A702D
:100BC000724902700CA80A707149ADF824200A60BD
:100BD0006021ADF82620CDE90A226E4A23F04EFEB0
:100BE00082B2002A40F0C6800027DFF8C4A1DFF8F7
:100BF000C481694C3E46DAF8005020463D4405F079
:100C0000010505EB8501AB0008EB810258F82110C6
:100C100007930691D2E901B9D268059213F0AAFEB2
:100C2000204613F01BFE0699059A20465B4BC4F83C
:100C300010902262C4E9021BC4E90036C4E90566CB
:100C4000C4E90966C4E90B6613F0BAFD814618B120
:100C5000002F78D10127CEE7024605214E2013F060
:100C6000BDFC4E2013F0F6FC06F0E6FA06F0E6FABC
:100C7000834606F0E7FA0146584610F083FA0DF174
:100C8000260109A810F088FA002853D110F0B8FA0C
:100C900000284FD110F0E4F90346F0214FF4A07082
:100CA000002B47D110F002FA002843D110F034FA9B
:100CB00000283FD106F0C0FA06F0C0FA834606F0DD
:100CC000C1FA0146584610F05DFA962013F04AFC2E
:100CD00040F2DC500BAA0AA9FFF78EFE50BBDDE9FB
:100CE0000A01FFF719FF28BB079B4A46CAF80050C4
:100CF00081462B440132244808EB8308BDF8263096
:100D00000192D8F81010009302910121244A017039
:100D100002202449BDF82430086060210CA823F08B
:100D2000ADFD82B212B34FF0FF330CA91E4819F08B
:100D300069F91BE0322013F015FCB9F1000F87D1DF
:100D40004FF001099BE7BDF826006021BDF8243073
:100D50004FF00109154A00900CA823F08FFD4FF0C9
:100D6000FF332A220CA9104819F04CF9484625B047
:100D7000BDE8F08F4FF0FF330CA90B4819F042F992
:100D800032E700BF0D510024F85000240C5100241C
:100D9000604B0024840B0E08905100240000024890
:100DA000A40B0E085C4B002438BA0024DC0B0E08A0
:100DB000584B002448250E082DE9F041054688B01F
:100DC000164A202168462B4623F058FD6846FFF757
:100DD00091FAD0B184B20326DFF84480642322461E
:100DE0006946404619F00EF90746022087B113F014
:100DF000B9FB731E13F0FF06F0D1094819F0F8FE95
:100E0000394602460748FFF733FD08B0BDE8F081D8
:100E100029460548FFF72CFDF7E700BF080C0E0830
:100E2000A0B90024180C0E08440C0E080022484BF0
:100E30002DE9F04F9BB01A70464B0646464C0F46C4
:100E40001A70464B20461A70454B1A6013F092FDFB
:100E5000304610F095F800285DD1424B1B68012BFD
:100E60000ED9414A3346602102A8009723F006FDBF
:100E700082B2002A5DD1022420461BB0BDE8F08F6B
:100E800003EB830339490546204601EB830251F801
:100E900023B0D2E901A9D2F80C8013F06BFD2046F3
:100EA00013F0DCFC324B2046C4F810906560C4F8A7
:100EB00020802360C4E902BAC4E90555C4E9095594
:100EC000C4E90B5513F07CFC04460028C9D106F098
:100ED000B3F906F0B3F9054606F0B4F90146284621
:100EE00010F050F9224605214E2013F077FB4E20DA
:100EF00013F0B0FB1F4A3346602102A8009723F08D
:100F0000BDFC82B2002AB7D04FF0FF3302A91A48C5
:100F100019F078F8B0E7194A3346602102A8009723
:100F200023F0ACFC82B25AB9012420461BB0BDE8C4
:100F3000F08F4FF0FF3302A90F4819F063F89AE7DA
:100F40004FF0FF3302A90C4819F05CF8ECE700BF42
:100F5000F85000240D510024905100240C5100241D
:100F6000604B0024584B0024940C0E0848250E08B2
:100F700000000248C40C0E0838BA0024600C0E08A9
:100F80002DE9F041044688B0214A202168462346D5
:100F900023F074FC1CBB6846FFF7ACF9D0B187B2F4
:100FA0000326DFF8708064233A466946404619F00C
:100FB00029F80546022035B313F0D4FA731E13F056
:100FC000FF06F0D1134819F013FE294602461248D5
:100FD000FFF74EFC0125284608B0BDE8F0810F4A16
:100FE0001388A34208D000230D490B700D490B70E4
:100FF0000D490B800D490B800D4B204614801C8041
:101000000CF0ACF9C7E721460A48FFF731FCE2E7EC
:10101000E80C0E08A0B90024180C0E08A04B002400
:10102000A94B0024A84B0024A44B0024A24B00246D
:10103000A64B0024F40C0E082DE9F047704C9CB030
:1010400094F85430E66D1BB1A37A002B40F0AC80CD
:1010500016B194F8273013B11CB0BDE8F08794F8AE
:101060005430D4E918754BB1A37A3BB113F074FA3C
:10107000A36DC01AB4F85630E0FB037557EA0503B8
:1010800000F0A480AA00BB0042EA9772DB1945EB8E
:10109000020198015B4A890141EA93615A4BC018E9
:1010A00040F2331341F1000182428B41C0F0828053
:1010B00051A3D3E90023FFF77BF9054682B2002351
:1010C000012762F30F0384F82C7062F31F4323653A
:1010D00094F82630002B7CD02B464C4A202104A8C3
:1010E00023F0CCFB04A8FFF705F9F0B187B24FF06D
:1010F0000308DFF81CA164233A4604A9504618F0FF
:1011000081FF81460220B9F1000F6FD013F02AFA57
:1011100008F1FF3313F0FF08EDD13D4819F068FDE9
:10112000494602463B48FFF7A3FB2B463A4A20219B
:1011300004A823F0A3FB04A8FFF7DCF8F0B187B202
:101140004FF00308DFF8C8A064233A4604A95046CC
:1011500018F058FF81460220B9F1000F2ED013F08D
:1011600001FA08F1FF3313F0FF08EDD1284819F018
:101170003FFD494602462748FFF77AFB94F82720AF
:10118000B4F84C306021029204A8244ACDE90056FC
:1011900023F074FB4FF0FF3382B204A9204818F00B
:1011A00031FF1CB0BDE8F08713F0D6F9A36DF31A38
:1011B000C6184DE74FF6FF752A4680E729461948BD
:1011C000FFF756FB012284F82720D9E700252A469D
:1011D00075E7B4F84C00FFF7D3FE00287FF47CAF2E
:1011E0000A2084F8267013F0BDF975E729460E48E9
:1011F000FFF73EFB99E700BF4847330100000000BE
:1012000070500024FFFF4747A4A39900080C0E0864
:10121000A0B90024180C0E08100D0E083C0D0E0885
:1012200038BA0024200D0E08440C0E08F0B55C4CB2
:10123000A5B0002841D094F82930002B32D194F881
:101240002A3013B194F82B3063B3A57A012D77D0EF
:1012500013F082F90646012010F0A4FE0123A372C8
:10126000002D6FD184F85430A66510F0C1FE0346FE
:101270002846A666A4F85630A4F85050FFF79CFD07
:10128000A27A6368617A0133012963606CD0454EAC
:10129000454B022918BF1E46012A67D0022A37D1C2
:1012A000404F36E04FF0FF3329224049404818F0C4
:1012B000A9FE10F05DFE00236372A37A002B3FD0DD
:1012C00013F04AF90546002010F06CFE002294F855
:1012D0005430A2728BB1B4F8560084F85420A4F8AC
:1012E0005620D4E91631A265EB1A1944E165D4E918
:1012F0001821E3FB0021C4E918216368627A0133F5
:10130000012A63602ED0274E274B022A18BF1E46A3
:10131000254F10F06DFE054610F070FE254A802125
:10132000CDE90150636804A800970393334623F086
:10133000A5FA4FF0FF3382B204A91D4818F062FEEF
:1013400025B0F0BD94F8543093B96368627A0133E4
:10135000012A636020D0134E134B174F022A18BF87
:101360001E46D6E7144ED3E7134E95E7124FD0E74B
:10137000D4E91631226EF31AB4F85600A665194462
:10138000E165616EE3FB0021C4E9182110F030FE35
:10139000A27AA4F8560074E7074E3746B9E700BFB3
:1013A00070500024780D0E08FC100E08800D0E08F9
:1013B00038BA0024AC0D0E08700D0E0870B500256B
:1013C000434CAAB0064628466572FFF72FFFFFF789
:1013D00033FE1221FF2012F0F7FF84F82850054653
:1013E00013F0BAF83B4A00F5E1601060002D68D1B7
:1013F000A37D062B17D0072B61D8374A52F823302C
:10140000364AA02102A8CDE90026354A23F036FA53
:101410004FF0FF3382B202A9324818F0F3FD0623E1
:10142000A375FFF7BBF9032384F8213013F094F878
:10143000012100232C4A00F59660E1770021E36644
:10144000A063002021640021C4F81730C4F81B30C9
:1014500084F8283084F82B302375A4F8503084F8B1
:101460005430A4F85630A366C2E90133C2E903330D
:10147000A27D84F88030C4E90C33C4E91633C4E992
:101480001801C2B1072A18D8134B53F82230174954
:1014900002A8174ACDE90021114AA02123F0EEF954
:1014A0004FF0FF3382B202A90E4818F0ABFD0023C3
:1014B000A375FFF773F92AB070BD0E4BE7E70D4B2C
:1014C0009EE72A4612210C48FFF7D2F990E700BFA9
:1014D00070500024904B0024FC240E08FC150E08CC
:1014E000400B0E0838BA0024DC500024EC0D0E0826
:1014F000F40D0E08380B0E08600B0E0870B50025B1
:101500000123434CAAB00646284663756572FFF76F
:101510008DFEFFF791FD1121FF2012F055FF84F899
:101520002850054613F018F83A4A00F5E1601060BB
:10153000002D67D1A37D072B16D061D8364A52F80B
:101540002330364AA02102A8CDE90026344A23F0F0
:1015500095F94FF0FF3382B202A9324818F052FDDC
:101560000723A375FFF71AF9022384F8213012F03C
:10157000F3FF012100232C4A00F59660E17700215A
:10158000E366A063002021640021C4F81730C4F88A
:101590001B3084F8283084F82B302375A4F85030A1
:1015A00084F85430A4F85630A366C2E90133C2E986
:1015B0000333A27D84F88030C4E90C33C4E91633C8
:1015C000C4E91801C2B1072A18D8134B53F82230C6
:1015D000164902A8164ACDE90021114AA02123F09C
:1015E0004DF94FF0FF3382B202A90E4818F00AFD00
:1015F0000023A375FFF7D2F82AB070BD0D4BE7E7C3
:101600000C4B9EE72A4611210B48FFF731F991E771
:1016100070500024904B0024FC240E08FC0D0E0892
:10162000400B0E0838BA0024DC500024EC0D0E08E4
:10163000F40D0E08380B0E08600B0E0800000000B9
:1016400070B50024284DAAB0064620466C72FFF7FC
:10165000EDFD0022AB7DEC77C5F81740C5F81B40C7
:1016600085F8284085F82B402C752A64EC6685F8AF
:101670008040A5F8504085F85440A5F85640AC6627
:101680006C64EC64A5F8254085F827409FED147B39
:10169000C5E90C44C5E91644C5E91C44C5E91E4426
:1016A00085ED187BBBB1072B17D8104A52F82330B1
:1016B0000F4AA02102A8CDE900260E4A23F0DEF849
:1016C0004FF0FF3382B202A90B4818F09BFC0023B5
:1016D000AB75FFF763F82AB070BD084BE8E700BFB1
:1016E000000000000000000070500024FC240E08E0
:1016F000F40D0E08400B0E0838BA0024380B0E0803
:101700002DE9F043B9B08846044605F097FD05463B
:1017100005F07AFD814605F07DFD064605F080FD69
:10172000074605F083FD05EB040C4B46194AC02122
:101730009CF803E0CDF81CE09CF802E0CDF818E03E
:101740009CF801C0CDF814C02C5DCDE902080494CA
:1017500008A8CDE9006723F091F84FF0FF3382B27B
:1017600008A90D4818F04EFC0C4B1B68042B0C4BC1
:1017700002D993F8542032B900205872FFF756FD71
:1017800039B0BDE8F0830748FFF7B8FE39B0BDE8CF
:10179000F08300BF040E0E0838BA0024604B00240A
:1017A00070500024580E0E0870B5404CAAB00E467A
:1017B00094F82930002B42D194F82A20002A3AD1FB
:1017C000012898BF0346032200212376A37DE275FA
:1017D0000122052BC4F81B10627217D0072B5AD8B0
:1017E000334A52F82330334AA02102A8CDE900261B
:1017F000314A23F043F84FF0FF3382B202A92F4859
:1018000018F000FC0523A375FEF7C8FF0120FFF7C1
:101810000DFD1021FF2012F0D7FD0023054684F8AE
:10182000283012F099FE264B00F5E1601860002D7B
:1018300033D12AB070BD94F82B20002AC0D112F009
:101840008BFE0023054618466372FFF7EFFC314616
:101850001C48FFF70DF81C4A13681BB1EB1AB3F5CF
:10186000FA6FE6D37421FF20156012F0ADFD00235E
:10187000054684F8283012F06FFE114B00F5E16048
:101880001860002DD5D02A46742110482AB0BDE832
:101890007040FEF7EDBF0E4BA5E72A4610210B481E
:1018A0002AB0BDE87040FEF7E3BF00BF70500024CF
:1018B000FC240E08880E0E08400B0E0838BA0024CF
:1018C000904B0024640E0E08804B0024600B0E0821
:1018D000380B0E0870B5504CAAB0064694F8545018
:1018E0001DB9A37D013B042B72D800204B4B6072C5
:1018F0001870FFF79BFCFFF79FFBA37D062B17D00B
:10190000072B40F28580464B464AA02102A801924F
:10191000454A0092454A22F0B1FF4FF0FF3382B2B0
:1019200002A9434818F06EFB0623A375FEF736FFA5
:10193000002584F8215012F00FFE3E4B0122E5668F
:1019400000F59660E2770022C4F81750C4F81B50E7
:10195000A06384F8285084F82B502575A4F85050C3
:1019600084F85450A4F85650A566C3E90155C3E95C
:101970000355002384F88050C4E918230022A37D76
:10198000C4E90C55C4E916552264C3B1072B3DD8F0
:10199000294A52F82330294AA02102A80192284A54
:1019A0000092224A22F06AFF4FF0FF3382B202A96E
:1019B0001F4818F027FB0023A375FEF7EFFE012553
:1019C00076B929461F482AB0BDE87040FEF750BFDF
:1019D000124B284665721D70FFF728FC002EF0D0D0
:1019E0007521FF2012F0F0FC0023064684F8283011
:1019F00012F0B2FD144B00F5E1601860002EE0D04B
:101A0000324675211148FEF733FFDAE7044BC2E78F
:101A1000094A52F8233077E7705000247E4B0024A7
:101A2000380B0E08900E0E08FC150E08400B0E0821
:101A300038BA0024DC500024FC240E08EC0D0E08FB
:101A4000F40D0E089C0E0E08904B0024600B0E083F
:101A50002DE9F04F8D4CC5B08D4B22689A4217D0BE
:101A60008B4B22689A4227D0894B22689A4239D000
:101A7000874B22689A4258D00F228649834822F029
:101A8000AEFF0546002800F01D8145B0BDE8F08F8F
:101A9000814B62689A42E3D103F1BF53A26803F518
:101AA000E81303F5E2639A42DAD1A389542BD7D124
:101AB0007A4B01221A70E8E7774B62689A42D3D1D9
:101AC000774B784A19689142CED11B79002BCBD144
:101AD00010F04EFA12F040FD7349744B0122086079
:101AE0001A70D2E76C4B62689A42C1D103F1E0638D
:101AF0006B4D03F581332A6803F588739A42B7D199
:101B000035F8042F42F64B439A42B1D1A81CFEF798
:101B1000F1FB431EFE2BB8D8421CA91C644822F0DE
:101B2000C3FF644B01221A70AFE75B4B62689A42B5
:101B3000A2D103F1C053DFF868B103F58333DBF8BA
:101B4000002012339A4297D11BF8049FB9F12C0F51
:101B500092D14FF0000A0DF108084C225146404640
:101B600022F028FF49460BF1010022F02BFF0190E3
:101B700000288AD00446494604F801AB204622F0EA
:101B800021FF0546002880D00746494607F801ABEB
:101B9000384622F017FF064600283FF476AF494644
:101BA000814609F801AB484622F00CFF00287FF47B
:101BB0006CAF0BF10100FEF79DFB431E3E2B3FF681
:101BC00064AF421C0BF10101404622F06DFF019B06
:101BD0005B78002B3FF459AF0022DFF8DCE0303BAC
:101BE00002EB820CD8B2D9430928AEFB01013FF6C3
:101BF0004CAFB2EBD10F03EB4C023FF646AF14F8FB
:101C0000013F002BEBD1C8F840206A78002A3FF44E
:101C10003CAF294D303A03EB8304D0B2D1430928BD
:101C2000A5FB01013FF631AFB3EBD10F02EB44034B
:101C30003FF62BAF17F8012F002AEBD17178C8F8C7
:101C4000443000293FF421AF13461B4DA1F130026F
:101C500003EB8300D4B2D143092CA5FB01413FF62D
:101C600014AFB3EBD10F02EB40033FF60EAF19F800
:101C7000011F0029EAD14C22C8F8483041460F48DC
:101C800022F012FF0E4B01221A70FEE6684F00246C
:101C90004150505F38250E08434D443A654F0024AB
:101CA000704F002453544F50604F0024644F002461
:101CB000604E00245C4E0024CDCCCCCC104E0024D1
:101CC0000C4E00240DF1080801464FF48472404682
:101CD00022F070FE2C21304822F074FE07460028C6
:101CE0003FF4D3AE461C2C21304622F06BFE002878
:101CF0003FF4CBAE3D700570E37B002B3FF4C5AEE7
:101D0000254CDFF898E0303B05EB850CD9B2DA437F
:101D10000929AEFB02123FF6B8AEB5EBD20F03EBCA
:101D20004C053FF6B2AE14F8013F002BEBD17A78A8
:101D3000C8F80050002A3FF4A8AE184F303A03EB21
:101D40008305D4B2D143092CA7FB01413FF69DAED8
:101D5000B3EBD10F02EB45033FF697AE16F8012F18
:101D6000002AEBD1441CC8F804302046FEF7C2FA22
:101D7000431EFE2B3FF689AE421C214604A822F0EA
:101D800093FE4FF484724146054822F08DFE054BC8
:101D900001221A7079E600BF774F0024CDCCCCCC5D
:101DA000044D0024004D002470B5704CAAB094F886
:101DB0002A50002800F08A80012D00F0BB8001230A
:101DC0006B486C49B4F84C2084F82A3003700B70CF
:101DD000002A40F0A68094F8543084F82B2023B9D0
:101DE000A37D013B042B00F2A2800020624B6072B5
:101DF0001870FFF71BFAFFF71FF9A37D062B19D008
:101E0000072B00F2AF805D4A52F823305C4902A8EC
:101E10005C4ACDE900215C4AA02122F02FFD4FF061
:101E2000FF3382B202A9594818F0ECF80623A375D3
:101E3000FEF7B4FC002584F8215012F08DFB544BC2
:101E4000012200F59660E5660021E277A06300229A
:101E50000020C4F81750C4F81B5084F8285084F8A8
:101E60002B5025752264A4F8505084F85450A4F8DF
:101E70005650A566C3E90155C3E90355A37D84F80F
:101E80008050C4E90C55C4E91655C4E91801C3B122
:101E9000072B69D8394A52F823303E4902A83E4AF6
:101EA000CDE90021384AA02122F0E8FC4FF0FF33B1
:101EB00082B202A9354818F0A5F80023A375FEF7F1
:101EC0006DFC01213548FEF7D3FC30E0002D3BD0FE
:101ED0007326284B0122608535461A70FEF70AFDED
:101EE00094F82A10034694F82B202D48FEF7C0FCE6
:101EF0002946FF2012F068FA0023054684F82830AE
:101F000012F02AFB274B00F5E16018600DB92AB0EA
:101F100070BD2A46314624482AB0BDE87040FEF71D
:101F2000A7BCA27D013A042A10D884F82B3072266F
:101F30003546D3E772260F4B1A787AB929461B48E3
:101F4000FEF796FC3146D4E77326F4E7002294F8B6
:101F5000543084F82B20002BE9D046E7FEF7CAFC6A
:101F60000246EBE7124B51E7114B96E77050002405
:101F7000000000247F4B00247E4B0024FC240E082C
:101F8000900E0E08FC150E08400B0E0838BA0024FF
:101F9000DC500024EC0D0E08F40D0E089C0E0E080B
:101FA000E80E0E08904B0024600B0E08BC0E0E08C5
:101FB000380B0E082DE9F04FADF54B7D00240123C1
:101FC0000DF13E010DF13D008DF83D40ADF83E3084
:101FD0000BF0F6FDCDE9104400283CD09DF83D30D3
:101FE000012B00F00881BB4D042B00F0DE812B7823
:101FF000002B5BD0B84B00205872FFF717F99DF803
:102000003D30022B00F0A781032B00F02D81B34D52
:10201000B34E2B78DFF800835BB311AA10A94FF4FD
:102020009660FEF7E9FC30B9119C10982146FEF746
:1020300073FD002843D0AB4BA94C0FCB07C42380C2
:1020400012F08AFA0346502003F5E163C8F8003025
:1020500012F088FA25E09F4A12783AB39E4AA04EC1
:10206000DFF8B4825072FFF7E1F89C4D2B78002B1B
:10207000D3D19D490120FEF7D9FE002800F04E8102
:1020800000229A4B964C2A700FCB07C4237012F093
:1020900063FA0346642003F5E163C8F8003012F0E8
:1020A00061FA01200DF54B7DBDE8F08F0BF09CFD32
:1020B000003818BF01200DF54B7DBDE8F08F0EF004
:1020C00081FE814605F0BAF8109B214640AA1844CB
:1020D00012AB0DF0E7FE05460EF074FE0746002D2C
:1020E00040F00082002840F0EA81B9F1000F40F092
:1020F0009581D8F80030002B40F0FD810EF068FE8D
:102100000024BDF90E314FF001089DF801219DF822
:1021100021110990BDF90891BDF82201BDF90AA16C
:10212000BDF90CB10A900D91CDE90B32E0B201344A
:102130000EF0BEFE013808FA00F280B22A430428ED
:1021400098BFD5B2052CF1D10D990A98DDE90B3273
:10215000CDE90656CDE90410CDE902324FF4A07165
:10216000F0224B460998CDE900AB0BF07DFD9DF8C0
:1021700021419DF80161BDF822510EF08FFEDDED89
:10218000167ADFED5B6AF5EEC07A0094469B019506
:10219000F1EE10FA06933346ACBFB6EE007ABEEE0F
:1021A000007ACDE90270A7EEA67A5248FDEEC77A12
:1021B00017EE901A80FB0120CC174F4AC4EBA014F5
:1021C0004FF47A7000FB1410A02104940028B8BFCB
:1021D0004042059018A822F051FB18A8FEF78AF893
:1021E00000283FF45EAF82B24FF0FF3318A9434896
:1021F00017F008FF55E7384DAB7D013B042B00F28B
:10220000A5803F48FFF7DAF8002301246B64EB64F4
:10221000A5F8253085F8273085F82B30EC772D4D43
:102220002C700EF0B1FD30492046FEF7FFFD00286E
:1022300000F0D080294A00212C4B1170284C0FCB84
:1022400007C4237012F088F91D2200F5E1602D49C2
:10225000DFF8C4804FF0FF33C8F80000274817F0BC
:10226000D1FE9DF83D30BFE60EF0A4FD002840F001
:10227000E880BDF83E000EF0AFFD234A041E234B5C
:102280004FF01401164808BF1346214A22F0F6FA0F
:10229000DFF8848012F060F9BDF83E5000F5E1608F
:1022A000C8F800000EF0FAFD2B461A4AA021CDE92D
:1022B000004018A822F0E2FA18A8FEF71BF8002840
:1022C00071D082B218A94FF0FF330C4817F09AFE74
:1022D00069E000BF7C4B002470500024F8500024BB
:1022E000684B002470100E08B40F0E08C80F0E08BB
:1022F00000007A44D34D621094100E0838BA0024BE
:10230000A00F0E081C0F0E08680F0E08740F0E08A1
:102310000C100E0844100E08644B00240EF070FFE1
:1023200000287FF4ADAE0EF09BFE00287FF4A8AE2F
:10233000F0214FF4A0700EF0B9FE00287FF4A0AE9B
:10234000962012F00FF901232B7066E620466C727E
:10235000FEF76CFF58E7BDF83E000EF0B5FC0446F2
:1023600000287DD06E4A14216E4B18AD022808BF9C
:1023700013466D4A6D4822F081FA12F0EDF800F52F
:10238000E160DFF8E881A0210094BDF83E30C8F894
:1023900000002846664A22F071FA2846FDF7AAFF97
:1023A000002840F0B480614E5FE60EF0EDFC614C19
:1023B0000020614928702070FEF738FD002862D0A7
:1023C0000BF01CFC4FF0FF3311225C495C4817F006
:1023D00019FE66E60EF014FF00287FF42BAF0EF016
:1023E0003FFE00287FF426AFF0214FF4A0700EF0DE
:1023F0005DFE00287FF41EAF96204C4E12F0B2F81E
:10240000504B4C4A93E803001470B180306012F0D6
:10241000A3F8122200F5E1604B4919E79DF800117D
:102420004A4A4B4B4148002918BF13463E4A1421E3
:1024300022F024FA12F090F800F5E160C8F80000EC
:102440005CE6444B394EDFF8248134460FCB07C499
:10245000238012F081F800F5E160C8F8000004E67E
:1024600018ADBDF83E303C4AA021284622F006FABD
:102470002B462D4A14212D4822F000FA12F06CF858
:1024800000F5E1607DE70EF0BBFE002898D10EF06C
:10249000E7FD002894D1F0214FF4A0700EF006FE65
:1024A00000288DD10EF038FE002889D1962012F038
:1024B00059F80121294B022221701A6080E7421E3F
:1024C000274B142153F82230264A0093C0F105030C
:1024D000164822F0D3F912F03FF800F57A70C8F8E8
:1024E00000000BE6204A114B07CA03C3110C23F866
:1024F000022B1970A4E512F02FF8D8F80030C31A97
:10250000002BFFF6FBADC8F800703770F6E582B21D
:1025100029464FF0FF330A48044E17F073FDA4E537
:10252000500F0E08580F0E080C100E08684B0024B0
:1025300010100E08F8500024D80F0E08E80F0E08EF
:1025400038BA0024C00F0E083C0F0E08940F0E0876
:10255000840F0E0834100E08FC0F0E085C4B00248C
:102560001C250E088C100E0880100E08644B0024E9
:102570002DE9F04FADF5457D4FF48072002142A862
:1025800022F018FA4C22002107A822F013FA4FF487
:102590008472002182A822F00DFAEFF3108972B63E
:1025A000DFF8F8B2DFF8F8A29BF80070DFF8F4E289
:1025B000FBB2DFF8F4C29B489AF800609A499EF893
:1025C0000020F6B29CF80050059300230478EDB289
:1025D0000F6802F0FF088BF80030E4B28AF8003090
:1025E0008EF800308CF8003003700B602AB14FF485
:1025F00080728E4942A822F057FA25B14C228C49AC
:1026000007A822F051FA2CB14FF48472894982A8AC
:1026100022F04AFAB9F1000F00D162B6002E00F0A4
:10262000B480854E96F85430002B40F08D80B37DF9
:10263000013B042B00F2A0808048FEF7BFFEB8F1FA
:10264000000F41D1002D6BD07D4B1E88002E00F075
:10265000DF807C4D4C2207A97B4822F025FA2E8092
:1026600011F07AFF794B7A4E002118600123794FDF
:102670004FF484723370784B78481980397022F0A7
:1026800099F9199B07AA76480193189B0093179B09
:102690002988FEF7EDF8002C47D13378002B50D075
:1026A000694A10463C786D4B29880394D3E900456C
:1026B0000295936CCDE90034D2E910230CF09AFE18
:1026C0000DF5457DBDE8F08F00238DF807329DF8AC
:1026D0000831FBB1634942A8FDF702FE0646002817
:1026E00000F06081604942A8FDF7FAFD0646002827
:1026F00000F08E815D4942A8FDF7F2FD06460028F4
:1027000000F0AA815A4942A8FDF7EAFD06460028D2
:1027100000F0B98142A95748FEF7AAF8002D93D1DD
:10272000002CCDD0474D4A4E4A4F33781BB12C88F0
:10273000002C40F01D815048FEF79AF83378002BAA
:10274000AED14E48404AADE7B36DF26DFB1AB6F814
:1027500056001A44F2650022B26586F85420A6F8A5
:102760005620D6E91821E3FB0021B37D013B042B61
:10277000C6E918217FF660AF00207072FEF756FDA3
:10278000B8F1000F3FF45EAF9EE7059B002B3FF4CE
:1027900056AF294E96F8293043B996F82A20002AD8
:1027A00000F0848096F82B30002B7FD13448FEF760
:1027B0005FF811F0D1FE074600207072FEF736FD7B
:1027C00030493148FEF754F8304A136823B1FB1AF8
:1027D000B3F5FA6FFFF433AF7421FF20176011F0E7
:1027E000F3FD0023074686F8283011F0B5FE284B8C
:1027F00000F5E1601860002F3FF421AF3A467421E4
:102800002448FEF735F8B8F1000F3FF41BAF5BE743
:102810002148FEF72DF8002C84D10A4D0C4E0D4FA7
:102820003BE700BF004D0024604F0024604E0024B1
:10283000104E0024044D002470500024F4100E08A3
:10284000A64B0024A44B0024B44C00249C4B002431
:10285000A94B0024A84B0024A24B0024AC4B00241D
:10286000D4110E0868110E0878110E0888110E0890
:10287000A4110E08B4110E0884120E08E4230E08E9
:1028800004110E0828110E08640E0E08804B002457
:10289000904B0024600B0E0818120E08654F0024A0
:1028A000644F00245C4E00240C4E0024B37D072BA3
:1028B00000F2D080CB21D940C90740F1C080991FD8
:1028C000012940F2868022B196F82B30002B3FF48C
:1028D00070AFB37D002B40F0ED80834AF3667364E4
:1028E000F364A6F8253086F8273086F82B30F3837A
:1028F000C2E90133C2E90333032286F88030A6F827
:10290000172001227272794A52F82330784AA021A6
:102910001AA80192774A0092774A21F0AFFF4FF050
:10292000FF3382B21AA9754817F06CFB0523B37503
:10293000FDF734FF0120FEF779FC1021FF2011F094
:1029400043FD0023074686F8283011F005FE6C4B46
:1029500000F5E1601860002F3FF471AE3A46102197
:102960006848FDF785FFB8F1000F3FF46BAEABE6AA
:10297000DFF8B48182A94FF48472634822F094F89E
:10298000A8F8004011F0E8FD84ABB8F800100093FF
:102990005E4B186001235E483B70DDE98223FDF742
:1029A00067FF7AE61021FF2011F00EFD594B074614
:1029B00083F8286011F0D0FD514B00F5E1601860FC
:1029C000002F3FF43FAE3A4610214E48FDF750FF2E
:1029D00038E6464AA0211AA852F823304E4A0192FE
:1029E0004E4A0092444A21F049FF1AA982B24FF0A0
:1029F000FF33424817F006FB0023B375FDF7CEFE08
:102A000096F82930002B7FF4D4AE96F82A205AE7A6
:102A10001221FF2011F0D8FC3E4B074683F82860B6
:102A200011F09AFD364B00F5E1601860002F3FF47D
:102A300009AE3A4612213348FDF71AFF02E62B4A47
:102A400052F823103648FDF713FFB8F1000F3FF49A
:102A5000F9AD39E63349F5E71121FF2011F0B4FC57
:102A60002C4B074683F8286011F076FD244B00F5C7
:102A7000E1601860002F3FF4E5AD3A46112121488E
:102A8000FDF7F6FEDEE51321FF2011F09DFC214B42
:102A9000074683F8286011F05FFD194B00F5E160EF
:102AA0001860002F3FF4CEAD3A4613211548FDF7CC
:102AB000DFFEC7E500220C49052BF266F283C1E96F
:102AC0000122C1E9032286F880204FF00302A6F814
:102AD00017204FF0010272723FF42CAF072B7FF6E4
:102AE00012AF104B12E700BFDC500024FC240E088C
:102AF00028110E08880E0E08400B0E0838BA002464
:102B0000904B0024600B0E08AC4B0024984B002423
:102B100044120E087050002438110E08F40D0E08EF
:102B200048110E08380B0E08A24B0024431E70B546
:102B3000AAB00E2B00F2B782DFE813F00F000F00EF
:102B40000F000F001B005D008600BB00D700DD00FA
:102B5000DF00E5004D018A01BD01AC4CA27D012AD8
:102B600000F0EC81072A40F2E581A94A0146A94814
:102B70003CE0A94B1B78002B00F0B881A74B1B88C9
:102B8000002B00F0B381A64A12889A4240F0AE8131
:102B9000A44BA54A1B68CB1A934200F2A781A34B12
:102BA0001B6C002B00F06682B3F5FA6F00F26C82AA
:102BB0003233632B40F26A826422B3FBF2F3203398
:102BC000DDB22946FF2011F0FFFB904B00220446A6
:102BD00083F8282011F0C0FC954B00F5E1601860E7
:102BE000002C00F07F812246294692482AB0BDE899
:102BF0007040FDF73DBE884B1B78002B00F07881BC
:102C0000864B1B88002B00F07381854A12889A42FC
:102C100040F06E81834B844A1B68CB1A934200F2CA
:102C20006781824B9B6C002B00F02282B3F5FA6F18
:102C300000F228823233632B40F22A826422B3FBF3
:102C4000F2F34033DDB2BCE703F018FC002800F0DB
:102C50006F8103F019FC632840F3BE81B0F5C87F93
:102C600000F3C081A0F1C803A0F16402002BB8BF3B
:102C70005B429A4200F2AA8113460021A0F1FA02B7
:102C8000002AB8BF5242934298BF1A46A0F59673E5
:102C900088BF0221C0F5C870002BB8BF5B429342C9
:102CA0002CBF13460321644A984238BF0421555C67
:102CB00087E7564C94F82A30002B40F03681712675
:102CC0003146FF2011F080FB0023054684F82830B0
:102CD00011F042FC564B00F5E1601860002D00F049
:102CE00001812A463146534880E701202AB0BDE8D9
:102CF0007040FFF759B80020F8E701202AB0BDE87E
:102D00007040FEF7E7BD444B1B78002B00F0D980E4
:102D1000424B1B88002B00F0D480414A12889A4213
:102D200040F0CF803F4B40481B68CB1A834200F2F3
:102D3000C880424B1B78002B00F0C380404B1B889F
:102D4000934240F0BE803F4B1B68CB1A834200F297
:102D5000B8803D4B1B68002B00F04A810A2B40F2E3
:102D60003781142BA3F10A0440F27581A3F11401F9
:102D70008C4240F28F811E2B40F266810124A3F128
:102D80001E028A422CBF0A460224282B40F274817C
:102D9000A3F1280191422CBF114603243C2B40F2A1
:102DA0006181A3F13C02914294BF0A4604245A2B4C
:102DB00040F27381A3F15A018A4294BF114605245F
:102DC000782B8CBF783BC3F178038B4238BF062445
:102DD0007F3CE4B276E00D4C94F82C30002B00F0F0
:102DE0008980B4F85230002B00F08480B3F5FA7F6C
:102DF00000F2F6803233632B40F2F680134AA2FBD6
:102E000003235D09703DEDB275E000BF70500024F2
:102E1000380B0E08E0120E08A94B0024A04B00242A
:102E2000A44B00249C4B002440771B00B44C00248E
:102E3000904B0024600B0E0830250E08A84B002490
:102E4000A24B0024984B0024AC4B00241F85EB516F
:102E5000984B1B78002B47D0974B1B88002B43D0F7
:102E6000964A12889A423FD1954B96481B68CB1AD6
:102E7000834239D8944B1B78002B35D0934B1B8859
:102E8000934231D1924B1B68C91A81422CD8914B85
:102E90005B68002B00F09E80B3F5FA7F00F29E8005
:102EA0003233632B40F2A2808B4AA2FB03235C09DE
:102EB000603CE4B206E003F0DBFAA0B3B02529469B
:102EC00080E688242146FF2011F07EFA834B002201
:102ED000054683F8282011F03FFB814B00F5E160A7
:102EE0001860E5B92AB070BDA724EBE7362568E67F
:102EF000562566E690252946FF2011F065FA002345
:102F0000064684F8283011F027FB754B00F5E16088
:102F10001860002EE6D032462946724866E62A46F8
:102F20002146704862E6B1254BE670263146C8E678
:102F3000672546E66C4B53F8222017E6656B4D1B60
:102F4000002DF7DB94F82920002A53D194F82A2089
:102F50001AB194F82B20002A4CD0DBB2634A6448A3
:102F6000D25CC35C501E0128BCD8012AE275614ABC
:102F70004FF00005237601F57A710CBFE36800235A
:102F8000019202A85C4AE5662163A0212364A5772B
:102F900065720092594A5A4BC2E90155C2E903557C
:102FA000584A84F8805021F069FC332202A94FF07E
:102FB000FF33554817F026F80323A375FDF7EEFB02
:102FC00028462AB0BDE87040FEF730B9012155E629
:102FD0000024FDE6A02475E76025F2E5A62471E74C
:102FE000962588E76625ECE5912584E7A12469E725
:102FF000802467E711F0B0FA002305461846637293
:10300000FEF714F941494248FDF732FC414A136882
:1030100023B1EB1AB3F5FA6FFFF464AF7421FF200C
:10302000156011F0D1F90023054684F8283011F01D
:1030300093FA2B4A00F5E1601060002D3FF452AF87
:103040002A4674212748D1E5C3F11E038B4234BFC1
:1030500002240124BCE6C3F11403A3422CBF0024C4
:103060000124B5E6C3F13C03994288BF0424AFE6CE
:103070004025A6E52025A4E5C3F128039A4288BF90
:103080000324A5E655259CE535259AE5012396E51B
:103090000123D6E52146002471E6C3F15A03934289
:1030A00038BF052494E601461B482AB0BDE87040AD
:1030B000FDF7DEBBA94B0024A04B0024A44B002449
:1030C0009C4B002440771B00A84B0024A24B0024FB
:1030D000984B0024AC4B00241F85EB51705000240A
:1030E000904B0024600B0E08FC240E08EC240E0804
:1030F000E8240E08C8120E08D4120E08DC50002472
:10310000BC120E08400B0E0838BA0024B0120E088C
:10311000640E0E08804B00240C130E080000000003
:103120002DE9F04F614C00210746236801332DED56
:10313000028BADF5617D2360037813F0FB0F2372E2
:1031400043688268E3600CBF01230B46226184F868
:103150002010237511F000FAA27D06460AB9A36B70
:1031600013BB534D3B78D5F80090B9F1000F2ED129
:10317000617E994244D0013902293ED9012163760A
:10318000A176022A44D0042A42D00023A4F81B309E
:103190006377052A01F23481DFE812F02A02A801E0
:1031A000BA039C00BA036E00C31A002BD9DB404D52
:1031B000A263D5F800906264E264A4F8252084F844
:1031C000272084F82B203B78B9F1000FD0D009F1EB
:1031D000FF31384A56A800912960602121F04EFB4A
:1031E0004FF0FF3382B256A9334816F00BFF0DF5AE
:1031F000617DBDEC028BBDE8F08F591E0229BDD860
:10320000A17E6376FF29BCD00131022AA176BAD112
:1032100094F85410002900F01582002B00F0B882B9
:1032200000219FED267AE176D7ED027AF4EEC77A97
:10323000F1EE10FA40F13682617FFF2900F06283DF
:103240000131617700231E4A23771378002B00F0A9
:10325000018200231B49097800211170E17E0122BF
:103260000229627200F25A83042B40F2F981164857
:103270006275FEF743F945E0114B1A78002A00F019
:10328000FE821A78217E02F0FF00002A00F0668399
:103290000C4A0020127818708A42D0B200F0B08434
:1032A0000A490B4B012808BF194629E07050002439
:1032B0005C4B0024DC130E0838BA00249A99193F9D
:1032C0007E4B00247D4B002424160E08B8130E08F4
:1032D000A8130E08B24B002219786272002900F080
:1032E0008982197801F0FF00002900F01B83AD49A5
:1032F0000878AD491A70AD4B012808BF1946C0B215
:10330000FEF752FAAA4DFDF749FA2B683BB111F0CE
:1033100023F92B68C01AB0F5FA7FFFF468AF11F0FB
:103320001BF997ED027A2860B5EEC07AF1EE10FA3B
:1033300040F21E82F7EE007AB4EEE77AF1EE10FA70
:1033400080F22382F6EE007ADFED9A6A9A4EE7EE7B
:10335000267AFCEEE77A17EE905AA6FB0536F608B9
:1033600006EB8603A5EB4305D7ED017AF5EEC07AAF
:10337000F1EE10FA40F2FF81B7EE007AF4EEC77A70
:10338000F1EE10FA80F2FD81B6EE007ADFED896A87
:10339000A7EEA67AFCEEC77ACDED197A94F85430F0
:1033A000D4F85CA0A27A13B1002A40F00D82A37D6C
:1033B0007978072B97F800B0149100F2C6817F4905
:1033C00051F823301A93E37D013BDBB2022B00F26C
:1033D000C4817B4951F823301B937A4B207E7A4974
:1033E000012808BF1946637A1691012BB4F84C10D6
:1033F000159100F0B58175487549022B18BF084634
:10340000012A179000F0B1817049714B022A18BF50
:10341000194618910EF0ECFD07460EF0EFFD94F8FA
:1034200054108046D4E9182319B1A17A002940F03C
:10343000D48152EA03011BD09900900041EA9271B5
:103440008018644A43EB0101634B890141EA9061B2
:103450008001C01840F2331341F1000182428B41D8
:10346000C0F08C814CA3D3E90023FCF7A1FF814677
:103470001B9B159905931A9B07910493199B179A07
:103480001699019656AE089206913046534A4FF46B
:103490008071CDE90253149B0093189BCDE90CA9D0
:1034A00009935B46CDE90A786568139525681295FE
:1034B000A57F1195657F1095257F0F95E47E0E946D
:1034C00021F0DCF9021E7FF792AEB2F5807F4FF05B
:1034D000FF333146424828BFFF2292B216F092FDD8
:1034E0000DF5617DBDEC028BBDE8F08F2C4B002209
:1034F0001978627200297FF4F4AE11F02DF8636B35
:10350000C01A0028FFF6FEAE11F026F8236BC01A91
:103510000028FFF6F7AE637EA27E013B022B00F28D
:103520001782022A40F200823B78013B022B00F214
:10353000FB81DFED2C7A97ED027AB4EEE77AF1EEBB
:1035400010FA00F1F18194F82930002B40F05085F9
:1035500094F82A3023B194F82B30002B00F04885E2
:103560000023214A022001252049E36684F88030A7
:10357000A4F81700C4F81B306572C2E90133C2E930
:103580000333FDF747F92846FDF750FE1020FDF7FD
:1035900091F9B7E6AFF3008048473301000000001F
:1035A0007E4B00247D4B002474130E0860130E081C
:1035B000544B002400007A44CDCCCCCCFC240E0823
:1035C000F0240E08D0130E08D4130E08780D0E0840
:1035D000FC100E08FFFF4747A4A3990058160E08D9
:1035E00038BA00249A99193FDC500024A4150E081B
:1035F000002394F829206372002A00F04581B54A1F
:10360000117811B1B44909781370637E013B022B24
:103610007FF678AEA37E022B7FF674AE00224FF0C9
:10362000FF33AE4984F82920E2776264E264A4F8AB
:10363000252084F8272084F82B202222A84816F081
:10364000E1FC5FE6A34AA4F81B1013786177002B16
:103650007FF4FFADE37E0122022B627200F25E81F5
:1036600094F88050D7F80480042DE67D00F27B8129
:103670006B1C04EB8505C5F86C80DDB2022D84F867
:10368000805000F27781012E00F05483022E03D186
:103690003B78032B00F04B840023A3770120FDF738
:1036A000C5FD2FE6042B61777FF4CCAD9FED8D7ABD
:1036B000F4EEC77AF1EE10FAFFF6C4ADA37AD4F8AF
:1036C0005C80002B40F0F783B8F5FA6FC0F0DD8224
:1036D00094F880308BB3F5EE007A94ED1B7AB4EE5B
:1036E000E77AF1EE10FA80F2D082012B25D094ED2A
:1036F0001C7AB4EEE77AF1EE10FA80F2C682022B61
:103700001BD094ED1D7AB4EEE77AF1EE10FA80F258
:10371000BC82032B11D094ED1E7AB4EEE77AF1EE61
:1037200010FA80F2B282042B07D094ED1F7AB4EE27
:10373000E77AF1EE10FA80F2A882237FFF2B02D005
:103740000133DBB22377A27D23E5674B1A93E37D38
:10375000013BDBB2022B7FF63CAE644B1B933CE695
:10376000634B012A17937FF44FAE614B189351E6D8
:1037700000252E46F8E5002319930FE64FF6FF7952
:1037800076E64FF47A73199308E600256426EBE594
:10379000DFED587A97ED017AB4EEE77AF1EE10FAA0
:1037A00040F18A80E17EDFED547AFF291CBF0131B0
:1037B000E17697ED027AB4EEE77AF1EE10FA3FF592
:1037C0003BAD002363773DE510F0C6FEA36DA27A02
:1037D000AAEB030300EB030AE9E5CDE91C2310F093
:1037E000BBFEA16DDDE91C23401AB4F85610E0FBC6
:1037F00001231EE6236BF01A9042FFF683AD637E31
:10380000A27E013B022B00F2A380022A40F28C80B0
:103810003B78013B022B00F28780DFED377A97ED92
:10382000027AB4EEE77AF1EE10FA7DD494F829200A
:10383000E37D002A40F0528394F82A2022B194F8C4
:103840002B20002A00F04A835A1E012A3FF65AAD67
:10385000012B4FF001054FF0000328490CBFE2682F
:103860000022E36604202264254A84F88030C4F8EC
:103870001B306572C2E90133C2E9033381E60120DE
:103880006072FDF7D3FC3DE512490B7803F0FF00B1
:10389000002B4DD1637E94F81F80013BDBB2B8F161
:1038A000000F00F01981022B7FF62CADA37E022BB6
:1038B0007FF628ADE07725E50021DFED0F7AE17690
:1038C00097ED027AB4EEE77AF1EE10FA3FF5B4AC78
:1038D000B7E400BF7E4B00247D4B002404140E0887
:1038E00038BA00249A99593F380B0E08C8130E08AD
:1038F000700D0E088FC2F53D9A99193FF0150E080C
:10390000DC500024022A7FF49DAC0022134622776B
:10391000C04A117800297FF49DAC9FE4BE48FDF7B2
:10392000EDFDEFE4BD49EBE4BD48FDF789FEE9E4B8
:103930000B7803F0FF00002B00F0A481B94B18783E
:10394000B94B0A70B949012808BF1946C0B2D7E47B
:10395000022AE9D9B648FDF773FED3E4002900F046
:103960005681B449CCE4B4491022081F21F008F86C
:10397000C4F87C80012E00F08D81022E7FF48CAE85
:1039800094ED1B5AF6EE085A9FEDAC7ADFEDAC7A57
:10399000B4EEC75A75EE277AF1EE10FAC0F2B18193
:1039A00001220123D4ED1C6AF4EEC76A77EEA67AF1
:1039B000F1EE10FA01DB0132D2B2F4EEE65AF1EE8A
:1039C00010FA40F2AC81DFED9F4A94ED1D6A76EE6D
:1039D000A44A76EE277AB4EEE45AF1EE10FAB4EE89
:1039E000C76A94BF01210021F1EE10FA01DB013218
:1039F000D2B2F4EEC65AF1EE10FA01D80133DBB2BE
:103A00009FED905A36EE055AB4EEE65AF1EE10FAF2
:103A1000C0F280810131032DC9B200F04383D4ED9F
:103A20001E6AF4EEC76A77EEA67AF1EE10FA01DBB1
:103A30000132D2B2F4EEE65AF1EE10FA01D80133B7
:103A4000DBB29FED805A36EE855AB4EEC65AF1EEDF
:103A500010FA01DB0131C9B2042D1CD094ED1F6AAC
:103A6000B4EEC76A77EE867AF1EE10FA01DB013226
:103A7000D2B2B4EEE56AF1EE10FA01DB0133DBB24B
:103A8000DFED705A36EE256AB4EEE66AF1EE10FA12
:103A900001DB0131C9B206EE905AB8EE666AC7EE94
:103AA000866AF4EEC76AF1EE10FA80F23B8104EB0D
:103AB0008505D5ED1A7AF4EE477AF1EE10FA01DBBE
:103AC000012B05D8022A40F23281012E7FF4E0ADAD
:103AD0005D48FDF773FC15E4022B3FF613ACA37EA3
:103AE000022B7FF60FAC594B56AEA4F81780A021DD
:103AF00084F8288030460193554B564A0093564B24
:103B000020F0BCFE312231464FF0FF33534816F00F
:103B100079FA0123A375FCF741FE1321FF2010F071
:103B200053FC84F82880804610F016FD4C4B00F5BD
:103B3000E1601860B8F1000F40F00582494B1A7837
:103B40000023CDE91E33002A00F0228194F82530AD
:103B5000002B40F024813D490120FDF767F98046A4
:103B6000002800F0AA820DF1980B43463E4AC0217E
:103B7000584620F083FE4FF0FF3382B25946374853
:103B800016F040FA0323149309F0E8FFDFF8F08001
:103B90000020364988F80000FDF748F9002800F0B9
:103BA000618294F82930002B40F0068194F82A3085
:103BB00023B194F82B30002B00F0FE80149B012BD6
:103BC00040F0C78110F0C8FC42F2107100F5FA62B3
:103BD000274B01444FF4FA5001903046C4E90C12CF
:103BE0004FF4FA6280210092224A20F047FE3146CB
:103BF00082B24FF0FF33194816F004FAFFF782BB88
:103C0000012804D11C48FDF7D9FBFFF77BBB1B48FB
:103C1000F9E700BF7E4B002418160E0874130E0837
:103C2000E0150E087D4B002430130E0840130E08DB
:103C3000C4150E08B8130E08E0500024295C4F3F4D
:103C4000000000008FC2F53C30160E0828140E0844
:103C5000BC120E08400B0E08F40D0E0838BA0024F2
:103C6000904B00240000002424150E0844150E0873
:103C700050130E086C150E0888130E0898130E08C2
:103C8000F8500024C349FFF73BBB0023A27D2377F4
:103C9000FFF77FBA94F85430002B40F0F680DFED48
:103CA000BE7A94ED107A9FEDBD6A37EE277A94EDD7
:103CB0001B5ADFEDBB7AB4EEC67A75EE277AF1EEC9
:103CC00010FA16DCB4EEC65AD4ED1C6A76EEA77A6A
:103CD000F1EE10FAF4EEC66A80F2F480F1EE10FA1A
:103CE000B0EE467AF0EE465A80F24F81002213463B
:103CF00069E6B4EEC75AF0EE475AF1EE10FABFF695
:103D00004FAEF4EEC55A0022F1EE10FA7FF649AE3E
:103D1000134647E6032D7FF482AEBCE60222013350
:103D2000DBB250E6AB1EDBB29942BFF4D1AE012E3E
:103D30007FF4AEAC94F85430002B40F0B080D4ED5A
:103D4000107ADFED956A9FED977A77EEA67A3B7849
:103D5000023BF4EEC77AF1EE10FA77FE877A012B78
:103D60003FF69AAC97ED017AF4EEC77AF1EE10FACD
:103D70003FF692ACA37FFF2B05D00133DBB2022BC1
:103D8000A3777FF68BAC8848FDF718FBFFF7BABA2C
:103D90004FF0FF3321228549854816F033F994F816
:103DA00029304BB994F82A30002B00F0D28094F8D7
:103DB0002B30002B40F0CD8010F0CEFB05460020CC
:103DC0006072FDF733FA7B497B48FCF751FD7B4B72
:103DD0001A681AB1AA1AB2F5FA6F11D37421FF202A
:103DE0001D6010F0F1FA0023054684F8283010F029
:103DF000B3FB734B00F5E1601860002D40F0618269
:103E00000123704A00200021E3770023E36684F851
:103E10008030C4F81730C4F81B3084F8283084F898
:103E20002B302375A4F8503084F85430A4F8563061
:103E3000A366C4E90C33C4E91633C2E90133C2E90D
:103E4000033300232364A37DC4E91801002B3FF44E
:103E500059AA072B00F29C805B4A52F823305B4A38
:103E6000A021304601925A4A00925A4A20F006FD9B
:103E7000314682B24FF0FF334D4816F0C3F80023AD
:103E8000A375FCF78BFCFFF73DBAA37AD4F85C80EE
:103E9000002B69D140F6B73398453FF600AFA37ABF
:103EA000E56D002B40F0FD8140F6B7339D423FF6B3
:103EB00046AFFFF7F1BB10F04FFBA36DA8EB030873
:103EC000804401E4F1EE10FA4FF00103B0EE467ABF
:103ED000F0EE465ABFF622AF1A466EE510F03CFBF4
:103EE000054600206072FDF7A1F93B493248FCF716
:103EF000BFFC324B1A681AB1AA1AB2F5FA6F11D385
:103F00007421FF201D6010F05FFA0023054684F83D
:103F1000283010F021FB2A4A00F5E1601060002DE6
:103F200040F0D5812D48FDF78BFBFFF7EBB9DFEDB6
:103F30002C7A97ED017AB4EEE77AF1EE10FABFF63B
:103F400019AFFFF7A9BB424613212648FCF790FCA6
:103F5000F4E510F001FB41F6583100F5FA62224B0E
:103F6000014441F2883037E610F0F6FAA36DA8EB71
:103F7000030840F6B7338044984540F2AE81E37DB4
:103F8000012B3FF48CAE1E46F7E401220023C6E667
:103F9000164B64E740130E08EC51383E713D0A3F62
:103FA000000000008FC2F53E3C160E0834140E08C7
:103FB00038BA002458140E08640E0E08804B0024F2
:103FC000904B0024DC500024FC240E0850150E08F1
:103FD000F40D0E08400B0E08F0150E0804160E081E
:103FE000EC51383F600B0E0858130E08380B0E08C2
:103FF00010F0B2FA054600206072FDF717F9BB49D0
:10400000BB48FCF735FCBB4B1A681AB1AA1AB2F5CB
:10401000FA6F11D37421FF201D6010F0D5F9002331
:10402000054684F8283010F097FAB34A00F5E160AD
:104030001060002D40F05481002528466572FDF780
:10404000F5F8E577AD49FCF77FFB28466564E56444
:10405000A4F8255084F8275084F82B50FCF7DAFB9D
:10406000FFF750B90DF0CCF800287FF49AAD0CF0B2
:10407000F7FF00287FF495ADF0214FF4A0700DF00C
:1040800015F800287FF48DAD0DF046F800287FF478
:1040900088AD962010F066FA012388F800300223DC
:1040A0002B607EE5B0EE086AC7EE866AF4EEC76A5A
:1040B000F1EE10FAFFF6FBAC0AE50DF0A1F8804630
:1040C00000287FF450AD0CF0CBFF804600287FF431
:1040D0004AADF0214FF4A0700CF0E8FF80460028B4
:1040E0007FF441AD96209FED868A10F03BFA0DF1EA
:1040F000980B10F031FA0123CDF85C90BA4699463E
:10410000CDF85880CDE9148096E003F097F81E9B17
:1041100039463246184420AB0BF0C4FE80460028D6
:1041200040F08180169B0133DBB216937378002B2D
:10413000149B18BF0123149396F82130002B00F034
:10414000E980718C002900F0E58094F82A30A4F809
:104150004C10002B40F04D8101270023708C84F817
:104160002570A4F84E30FCF70BFF08B984F82670D0
:10417000FCF714FB01270CF02BFE40F6C413F022D1
:104180004FF4A0710493738C0393B6F90E3002932D
:10419000B6F90C300193B6F90A300093B6F908303D
:1041A00009F030FA96ED077A7378B5EEC07A96F892
:1041B000212067EE087A718CB6EE007A94F8290017
:1041C000F1EE10FA019306904FF47A730497584673
:1041D000ACBF77EE877A77EEC77ACDE90221FDEEA4
:1041E000E77AB269099217EE902A17EE901A92FBBD
:1041F000F3F203FB1213C0210792002B414AB8BF10
:104200005B42089301230593072300934B4620F05C
:1042100035FB4FF0FF3382B259463B4815F0F2FEB2
:10422000002F40F0DA80282010F09CF909F10109F4
:10423000B9F1080F00F08D805FFA89F31893013B04
:1042400013F0FF0708D010F087F9159B42F22732D0
:10425000C31A934200F2C7801FAA1EA94FF49660AA
:10426000FCF7CAFB804638B9DDE91E073946FCF782
:1042700053FC00283FF449AF0723244AC021584685
:1042800000934B46CDF8048020F0F8FA4FF0FF334E
:1042900082B259461C4815F0B5FE282010F062F98C
:1042A000C4E710F059F9A36D40F6B732ED1A43197F
:1042B00093427FF6F1A9E67D012E3FF440ADFFF772
:1042C000E5B92A4674211248FCF7D2FA98E52A4645
:1042D00074210F48FCF7CCFA24E6E67DFFF7D3B94A
:1042E0002A4674210A48FCF7C3FAA5E6A4150E086D
:1042F000640E0E08804B0024904B0024B4150E0869
:1043000000007A44B4140E0838BA002468140E0869
:10431000600B0E080CF05CFD189BF0224FF4A071AE
:104320000693072300270793738C059396F8213093
:10433000049373780393B6F90E300293B6F90C30F8
:104340000193B6F90A300093B6F9083009F0D0FAB3
:1043500028E75746DDF85C904FF0070A94F82520CF
:10436000149BE2B9169AE2B910F0F6F8149B0322F6
:10437000C0210193159B0392C01A534600905846E2
:10438000B4F84C200292314A20F078FA4FF0FF3313
:1043900082B259462E4815F035FEFFF7E6BB0122E2
:1043A0001492169310F0D8F8169BC021149A01931A
:1043B000159B0392C01A534600905846B4F84C20FF
:1043C0000292224A20F05AFA594682B24FF0FF3345
:1043D0001F4815F017FEFFF7D7BB5746DDF85C9076
:1043E000DDF860A0BAE75346DDF85C90BA461F4698
:1043F000B4E70123174884F82B30FCF739FAABE611
:10440000154B197819B11549097800211970072A37
:1044100017D9134B134AA021002556A80192124A1E
:104420000092124A20F02AFA56A982B24FF0FF33C6
:10443000074815F0E7FDA575FCF7B0F96572FEF7C2
:1044400061BF0B4B53F82230E4E700BF18170E088A
:1044500038BA002494140E087E4B00247D4B0024AF
:10446000380B0E0848160E08F40D0E08400B0E0807
:10447000FC240E0801230249024A0B701370704796
:104480007D4B00247E4B002403490020034B012276
:1044900008701A70704700BF7D4B00247E4B0024CB
:1044A000014B1878704700BF0000002410B530B9E8
:1044B0000F4B93F82A4074B919220E4902E01822D2
:1044C00001240D490D484FF0FF3304700C4815F0DE
:1044D00099FD204610BD012408484FF0FF332922E2
:1044E00004700849064815F08DFD204610BD00BF38
:1044F0007050002484170E0868170E08000000246E
:1045000038BA0024A0170E0818B1224B02689A424C
:1045100000D07047204B70B51A78204C0A2A1DD065
:1045200022783AB91A781F2A0BD81A780D2A08D09F
:1045300001232370012218491948BDE8704015F085
:10454000F7BD184A1178FF29F2D011781C7813783A
:10455000154801334454DBB21370EBE72378114D57
:1045600003F0FF0283B92B78012B0DD92B780E4E67
:10457000334413F8013C0D2B07D12B78334403F857
:10458000012CFDF765FA00E0074E00232B70337015
:104590002370CFE70048004068500024664F002495
:1045A000A0B90024674F0024684F002418B10A4BBB
:1045B00002689A4200D0704710B400230748084CA4
:1045C0000122084903700B702370074907485DF802
:1045D000044B15F0ADBD00BF00480040674F0024FC
:1045E000664F0024684F002468500024A0B90024BE
:1045F000014B01221A7070470D510024012302491A
:10460000024A0B70137070470C5100240D510024A6
:104610002DE9F043002499B04FF0FF331C22B74935
:10462000B748ADF80840ADF80A4015F0EBFCB549C5
:104630004FF0FF331622B24815F0E4FCB249204691
:10464000FCF7F4FB002840F0348105460DF030FC07
:104650004FF0FF331422AD49A94815F0D3FC88224E
:104660002946AB4820F0A6F90DF082FCFCF796F83D
:10467000A848C0F88450BFF34F8FD0F8804043F66D
:10468000E07EC4F34E3CC4F3C9044FEA4C1C0CEA70
:104690000E01234641EA8372013BC0F874225A1C82
:1046A000F8D1ACF1200C1CF1200FF0D1BFF34F8FEB
:1046B000BFF36F8F984B994A1968914200F095802B
:1046C00000220123114696480024914E037095481C
:1046D00086F82B4086F82A50FCF7CAF8924A934B8A
:1046E000147093491C70934B0C70934A1C70934B3D
:1046F000146093491C70934B0C701C70924B934A3E
:10470000934894491C70944B147004800C80934A15
:10471000934894491C80944B148004600C60934A25
:10472000934894491C60944B14604FF48072046069
:104730000C60214691481C70B4647464F464746223
:1047400086F82B40A6F85040B46620F033F9214695
:104750004FF480728A4820F02DF921464C22894876
:1047600020F028F921464FF48472874820F022F97E
:1047700021464C22854820F01DF921464FF48472D1
:10478000834820F017F9032401228249824815F05A
:10479000CFFC01468148FCF76BF80DF10A0102A835
:1047A0000CF0FAFC03463220002B33D00FF0DAFE77
:1047B000013CF2D1BDF80A005021BDF80830784A1A
:1047C000009004A820F05AF84FF0FF33282204A9E3
:1047D0004B4815F017FC4FF0FF3329227149484828
:1047E00015F010FC19B0BDE8F083988801287FF41B
:1047F00067AF997901293FF663AFDA889C6853BAAD
:10480000694A9BB25A40944200F0C6810022034696
:10481000114658E7BDF80A004021BDF80830634A48
:10482000009004A820F02AF84FF0FF33262204A9B4
:10483000334815F0E7FB0CF0E3FC00284DD14FF0B6
:10484000FF3312225A492E4815F0DCFB0CF008FC0D
:10485000002838D14FF0FF3313225649284815F06D
:10486000D1FBF0214FF4A0700CF020FC4FF0FF338F
:1048700000283CD10F225049214815F0C3FB0CF011
:104880004BFC4FF0FF330546002840F067812222A1
:104890004A491B4815F0B6FB494B1B68012B40F2F7
:1048A0009B804FF0FF3315224649154815F0AAFBAF
:1048B00098E74FF0FF331A224349114815F0A2FB45
:1048C00019B0BDE8F0834FF0FF3315223F490C4883
:1048D00015F098FB19B0BDE8F0834FF0FF331422B8
:1048E0003B49074815F08EFB19B0BDE8F083112253
:1048F0003849034815F086FB74E700BFCC170E0853
:1049000038BA0024EC170E0804180E0828180E08F0
:104910007050002400ED00E000002091504C4B311D
:104920007F4B002440180E08674F0024664F002478
:10493000654F0024644F0024604F00245C4E002427
:104940000C4E0024004D0024A84B0024A94B002449
:10495000A64B0024A44B0024A04B0024A24B00240F
:104960009C4B0024984B0024904B0024944B002433
:104970008C4B0024884B0024844B0024684F002477
:10498000604E0024104E0024044D0024B44C00243A
:10499000AC4B002468500024A0B900246C180E0809
:1049A000DC190E08081A0E0893751094341A0E08B4
:1049B000B0180E08DC180E0804190E082C190E0881
:1049C000584B002450190E080C180E08C4180E0875
:1049D00098180E08F0180E08754903EB8303754C00
:1049E00001EB830251F823902046D2F80480D2E9EB
:1049F00002760FF0BFFF20460FF030FF6E4B2046CF
:104A00006560276125632360C4E90298C4E9055500
:104A1000C4E90865C4E90A550FF0D2FE044600282F
:104A20007FF43FAF02F008FC02F008FC054602F0FC
:104A300009FC0146284603250CF0A4FB224605216B
:104A40004E200FF0CBFD4E200FF004FE40F2DC5064
:104A50000FF088FD039402F0F1FB044602F0ECFB3A
:104A600002F0ECFB064602F0EDFB014630460CF08E
:104A700089FB78200FF076FD04AA03A940F2DC50F0
:104A8000FBF7BAFF002871D1DDE90321032904EB0C
:104A900002036BD9002B69D0A25CFF2A66D15A7839
:104AA000D82A63D19A78FF2A60D1DB7803F12002FB
:104AB000D2B20F2A0AD9DD2B56D8BF2B56D9403394
:104AC0003E4ADBB222FA03F3DB074FD53C4B002210
:104AD0001A600CF0C5FA00287FF4F5AE394D4FF09E
:104AE000FF3313223849394815F08CFA384B2A78AD
:104AF00004930ABB04A9281D17F060FB10F0FF0403
:104B00004ED12146686817F0C5FB03462146686808
:104B1000AB6017F0CDFBAA68E860002A40D00028FF
:104B20003ED05268002A3BD04268002A38D0036A3F
:104B3000002B35D001232B704FF0FF331222254973
:104B40000124224815F05EFA23484FF0FF331B2260
:104B5000047022491D4815F055FA43E616222049F3
:104B60001A4815F04FFA3DE6FE2BAFD078200FF033
:104B7000F9FC013D7FF472AF1A48FCF719F80028E0
:104B8000A7D04FF0FF331A221749104815F03AFA10
:104B90000B4B05221A609CE7002302460D4692E566
:104BA0004FF0FF3314221149084815F02BFA19E68B
:104BB00048250E08905100240000024815000028E6
:104BC000604B0024FC500024DC180E0838BA002486
:104BD000E0BE0024AC190E08F8500024C0190E08DD
:104BE00014190E0868190E0878190E0894190E0881
:104BF000F0B5AF4C2DED068BBDB0FDF7B9FC0FF055
:104C0000ABFC23680022C31A8DF85020934206DBC8
:104C1000A84A05461368C31A632B00F2BD80A64C50
:104C20000FF09AFC94F854302BB1A36EC31AB3F56D
:104C30007A7F80F0D880FDF7BDF9002840F0A4808D
:104C40000FF08AFC01F012FA002840F0F98094F885
:104C50005430002B40F08D80E38AB3F5827F00F062
:104C60008C820FF079FCA37D6BB9A26B5AB1801ACC
:104C7000002808DBA3636364E364A4F8253084F8A8
:104C8000273084F82B308D4D002194F829202E7880
:104C900084F820104AB994F82A20002A00F03281C2
:104CA00094F82B20002A40F02D81854B1A78CAB148
:104CB0000026844A12781E700FF04EFC03463046E0
:104CC00066721E46FCF7B2FA7F498048FBF7D0FDBA
:104CD0007F4A1368002B00F03A83F31AB3F5FA6F9A
:104CE00080F0358300206072FCF7A0FA2B78002B4F
:104CF00000F04583002394F85420CDE902333AB103
:104D00000FF02AFCA36DC01AB0F5967FC0F0728335
:104D100003AA02A940F6B830FBF76EFE002800F0A7
:104D200013816C4E4021009014A835686A4B013500
:104D30006A4A35601FF0A2FD14A982B24FF0FF331A
:104D4000674815F05FF9042D04D994F85430002B0E
:104D500040F0F98200206072FCF768FA3368042B97
:104D600000F22F8364200FF0FDFB3DB0BDEC068BFD
:104D7000F0BDA37AE56D002B40F01282594B9D42A5
:104D800066D95948FCF71AFB14203DB0BDEC068BE0
:104D9000BDE8F0400FF0E6BB14A815600FF03AFB39
:104DA0000346002840F0BB809DF850102060002989
:104DB0006BD00B2900F0E5824C4A3F4C1268AA1ACE
:104DC000002AFFF62DAF94F82820002A3FF428AFE0
:104DD000474884F82830FBF74BFD29469DF85000E2
:104DE000FDF7A4FE1CE7A37AA066D4E91865002BA2
:104DF00040F0CD8156EA050300F0A480B300AA007C
:104E00009B1942EA96723B4E4FEA831045EB020132
:104E1000394A80194FEA811141EA936140F2331314
:104E200041F1000182428B413BD31FA3D3E9002310
:104E3000FBF7BEFA80B2A4F85000FBF7BDFFFAE61C
:104E4000FBF7ACFC94F85430002B3FF405AF90E72F
:104E5000E38AB3F5827F7FF404AF94F85430E56DB4
:104E60001BB1A37A002B40F02F8244F28D139D4298
:104E70007FF6F7AE2148FCF7A1FA14203DB0BDEC57
:104E8000068BBDE8F0400FF06DBB184B1C4A1B6849
:104E9000094CEB1A1170002BA4BF012384F82830B1
:104EA000BEE64FF6FF70C6E748473301000000003A
:104EB000884B0024944B002470500024F8500024A8
:104EC0007E4B00247D4B0024CC1A0E08640E0E0885
:104ED000804B0024604B0024041B0E08101B0E089E
:104EE00038BA002435060100B01A0E08904B002491
:104EF000941A0E08A4A39900FFFF4747BC1A0E0896
:104F0000844B0024072B00F23A81DFE813F0E30121
:104F1000B3017401B3017401F9014F014F0105F5AB
:104F20007A72C04E226032682AB1AA1A41F28731E1
:104F30008A427FF674AE1946BB483560FBF798FC91
:104F4000BA4C6DE6002076E702F078F9DDE902263A
:104F5000811800F0A981032E40F2A681835CFF2B0B
:104F600040F0A2814B78D82B40F09E818B78FF2BAC
:104F700040F09A81CB7803F12001C9B20F290DD9F5
:104F8000DD2B00F28E81BF2B40F28E814033A84989
:104F9000DBB221FA03F3D80740F1868102F04EF923
:104FA000A44F029B1844BB68002B00F037825A685C
:104FB000A14B002A08BF1A464FF0FF33B421CDE9B8
:104FC00000313223314602F097F80546002840F0C0
:104FD00015829A4BFA681860D7E9010117F076F943
:104FE000012840F01D82FB685A68196A002A00F007
:104FF0001782002900F0148292F90030DFED905AF8
:10500000063B9FED905A08EE103AB8EEC88A28EE9B
:10501000258A8DED178A92F90130063B06EE103A8B
:10502000B8EEC66A26EE256A8DED186A92F902304E
:10503000063B06EE903AF8EEE66A66EEA56ACDED1E
:10504000196A92F90330063B07EE903AF8EEE77AD8
:1050500067EEA57ACDED1A7A92F90430063B07EE99
:10506000103AB8EEC77A27EE257A8DED1B7A91F9C2
:105070000030803309EE103AB8EEC99A29EE059A4D
:10508000B5EEC09AF1EE10FA00F1E881F7EE005AA1
:10509000B4EEE59AF1EE10FA40F3EC81B0EE659AC9
:1050A000B4EEC68ACDED155AF1EE10FA02D5B0EE87
:1050B000468A0125B4EEE68AF1EE10FA02D5B0EE8A
:1050C000668A0225DFED606A77EEA67AB4EEE78A9B
:1050D000F1EE10FA02D5B0EE678A0325B4EEC87A75
:1050E000F1EE10FA02DDB0EE478A04254FF000071A
:1050F000DFED559A17AE002465F30707F0EE698AD5
:10510000B0EE69AA65F30F27032CB6EC010A00F094
:105110004B8130EE480A20F029F8AC4278EE808AC4
:1051200004F1010400F05181052CEDD1F5EEC08AA7
:10513000ADF85070F1EE10FA40F39581C9EEA87AFF
:105140006B1ECDED167ADBB2022B12D8DFED3F7A63
:10515000B4EEE79AF1EE10FA80F28881DFED3C7A46
:10516000B4EEE79AF1EE10FAACBF022301238DF8FA
:10517000503014A8FDF7D4FFF7E5E56D75E6002E75
:105180007FF4B8AD30466672FCF750F8D8E00FF007
:10519000E3F9A36DC01AB4F85630E0FB036529E6C5
:1051A0000FF0DAF9A36DED1A0544E7E5294A117805
:1051B00019B12949097800211170284A0027A02136
:1051C00014A852F82330264A67720192254A0092A9
:1051D000254A1FF053FB14A982B24FF0FF33234836
:1051E00014F010FFA775FBF7D9FAFBF7D7FA002EDA
:1051F0003FF4CAAD7AE5174B1A78002ABFD01A7867
:105200002AB1154A002112781970002AB7D101205D
:10521000FCF760FB4FF0FF332B221549134814F0C5
:10522000F1FEB1E58C4B00245C1A0E08705000248E
:1052300015000028FC500024E0BE0024604B002430
:10524000B91FD43D6876533B00000000713D2A3FF2
:10525000D7A3F03E7E4B00247D4B0024FC240E0897
:1052600048160E08F40D0E08400B0E0838BA00243C
:10527000D81A0E08894B1A78002A80D01A7802F0C2
:10528000FF00002A00F00081854A0020854912783D
:10529000854C1870D0B2012A08BF2146FCF784FA69
:1052A00072E5FE2B3FF47AAE804C314610462368FF
:1052B00001332360FCF724FA2368042B7FF652ADF8
:1052C0007B48FBF775FC4DE50FF046F9A36DED1A31
:1052D0000544CAE5714B1A78002A3FF450AF1A789A
:1052E00002F0FF00002A00F0CD806D4A00207149D5
:1052F0001278714C1870D0B2012A08BF2146CDE750
:10530000664B1A78002A00F0A2801A78217E02F0FB
:10531000FF00002A00F0B180614A002512781D705C
:105320008A42D0B200F0B2806449654B012808BFC0
:105330001946FCF739FAA37D013B042B40F2878024
:10534000FBF72CFA20E55F48FCF7D8F806E5742156
:10535000FF2016600FF038F80023064684F8283046
:105360000FF0FAF8584B00F5E1601860002E3FF49A
:10537000B9AC324674215548FBF77AFAB2E464209E
:1053800003E5534A1378002B7FF449AC0121514CBB
:105390005148117084F82830FBF76AFA29469DF8C5
:1053A0005000FDF7C3FB3BE430EE0A0A042430EE64
:1053B000480A1FF0DBFE032D78EE808A40FE299A12
:1053C000A2E64648FBF7F4FBCCE4052CF0EE409A4D
:1053D0007FF49AAEF5EEC08A0022ADF85070F1EE7F
:1053E00010FA3FF7ABAE6B1E1692DBB2022B7FF6C4
:1053F000ADAEBEE614200FF0B5F8B6E42B4C314646
:105400000298236801332360FCF77AF92368042BA0
:105410007FF6A8AC3248FBF7CBFBA3E4314ACBE5DF
:105420000125314B314A402104A800951FF026FA8E
:105430004FF0FF33142204A92D4814F0E3FD94F833
:10544000540000285AD16072FBF7F0FE8AE4012074
:105450006072FBF7EBFEFBF7A1F995E4DFED255A4F
:10546000B0EE659A1CE6DFED237A69E603238DF83A
:1054700050307EE6F0EE495A12E6002900F0BC807A
:105480000E4956E70B4909E7064907E7012840F0AE
:10549000B3801948FBF792FF4DE700BF7E4B002415
:1054A0007D4B002474130E0860130E08604B00241B
:1054B000301B0E0840130E0830130E08B8130E08E8
:1054C000A8130E08041B0E08904B0024600B0E0856
:1054D000844B002470500024781A0E08201B0E08FC
:1054E0003C1B0E08E0BE0024481B0E08101B0E08D3
:1054F00038BA00240000000088130E0800266575E5
:1055000030466672FBF792FEFBF796FD1121FF20F5
:105510000EF05AFF84F8286005460FF01DF83C4A4B
:1055200000F5E1601060002D6CD1A37D072B17D032
:1055300066D8384A52F82330374914A8374ACDE99B
:105540000021374AA0211FF099F94FF0FF3382B2B2
:1055500014A9344814F056FD0723A375FBF71EF970
:105560000223012584F821300EF0F6FF00232E4A95
:1055700000F596610020E366A1630021206400200D
:10558000E577C4F81730C4F81B3084F8283084F865
:105590002B302375A4F8503084F85430A4F85630DA
:1055A000A366C2E90133C2E90333A27D84F88030E7
:1055B000C4E90C33C4E91633C4E91801002A3FF4E6
:1055C000D1AB072A1AD8134B53F82230174914A825
:1055D000174ACDE90021124AA0211FF04FF94FF0E0
:1055E000FF3382B214A90F4814F00CFD0023A375F9
:1055F000FBF7D4F8FFF7B6BB0E484BE70E4BE5E7D9
:105600000D4B99E72A4611210C48FBF731F98CE73D
:10561000904B0024FC240E08481B0E08FC0D0E08BD
:10562000400B0E0838BA0024DC500024EC0D0E08A4
:10563000F40D0E0898130E08380B0E08600B0E08B8
:105640002F480178002959D12E4A2F4B30B4D2F877
:10565000E04082B0102544F00104C2F8E040D2F8E6
:10566000E04004F001040094009CD2F8E84044F0CB
:105670000104C2F8E840D2F8E82002F001020192E9
:105680004FF08042019C1C6824F00C041C601C68D4
:1056900044F008041C605C6824F002045C609C68B0
:1056A00044F00C049C60DC6824F00C04DC601C6A90
:1056B00024F0F0041C621C6A44F010041C620924EB
:1056C00040F2E733116094620124D36291614FF498
:1056D000C871936943F4C0439361936943F40063D1
:1056E0009361916315625461136843F08103136001
:1056F000064B0470198002B030BC7047704700BF81
:105700000E51002400440258000002581051002499
:1057100040F2E7314FF08042034B884228BF0846F1
:1057200090631880704700BF10510024014B188807
:10573000704700BF105100242DE9F04F01F1070917
:10574000394C273183B01E46054604EBC2134FF097
:1057500000081FFA89F98FB20193019B4C4603EBB5
:10576000080B1BF801ABBAF1000F0DD10834A4B23D
:10577000A742F6D108F104080135B8F1800FADB2A7
:10578000EBD103B0BDE8F08F1AF0800F44D11AF0CE
:10579000400F3AD11AF0200F30D11AF0100F26D155
:1057A0001AF0080F1CD11AF0040F12D11AF0020FD0
:1057B00008D11AF0010FD9D032462146284601F00F
:1057C0004DFFD3E7611E3246284689B201F046FFFD
:1057D000EFE7A11E3246284689B201F03FFFE5E718
:1057E000E11E3246284689B201F038FFDBE7211F6F
:1057F0003246284689B201F031FFD1E7611F3246B7
:10580000284689B201F02AFFC7E7A11F3246284681
:1058100089B201F023FFBDE7E11F3246284689B275
:1058200001F01CFFB3E700BF70250E081D4B4020A0
:105830001121D3F8E02042F0800270B588B0C3F89F
:10584000E020D3F8E0200826174C02F08002174D24
:105850000092009AD3F8E02042F48072C3F8E0206E
:10586000D3F8E030CDE9020103F480730120032175
:105870000193019BCDE9040102A9204610F05EFFCF
:105880000DEB06012846029610F058FF31462846D7
:10589000012211F08FFA01224021204611F08AFAEC
:1058A00008B070BD00440258001C02580020025885
:1058B00038B5104D0122104C0821284611F07AFA13
:1058C00001224021204611F075FA032000F06EFA03
:1058D00000220821284611F06DFA032000F066FA34
:1058E00020460022402111F065FA0320BDE838402F
:1058F00000F05CBA00200258001C025810B50D4C94
:1059000000220821204611F055FA032000F04EFA3B
:1059100001224021084811F04DFA032000F046FA18
:1059200020460122082111F045FA0320BDE810406D
:1059300000F03CBA00200258001C025810B50122A9
:1059400082B00821224811F035FA032000F02EFA27
:10595000012240211F4811F02DFA0320FB2400F002
:1059600025FA04E013F0FF0416D000F01FFA082116
:10597000174811F019FA0246631E0320002AF1D1DC
:1059800040211448019211F015FA032000F00EFA9C
:10599000019A104602B010BD224608210C4811F0B1
:1059A00009FA032000F002FA01224021094811F00F
:1059B00001FA032000F0FAF901220821044811F04D
:1059C000F9F9032000F0F2F90122104602B010BDEF
:1059D00000200258001C025870B50825134E0446DA
:1059E000E20908211248640011F0E4F9032000F0F4
:1059F000DDF901224021304611F0DCF9032000F0EE
:105A0000D5F900224021304611F0D4F9032000F0EE
:105A1000CDF96B1EE4B213F0FF05E1D1012208219C
:105A20000348BDE8704011F0C5B900BF001C025822
:105A300000200258F8B508250024324E07460122FE
:105A40000821314811F0B6F90122402130466400A6
:105A500011F0B0F9032000F0A9F908212A48E4B2B6
:105A600011F0A2F9034600224021304604F1010C56
:105A70000BB15FFA8CF411F09DF9032000F096F958
:105A80006A1E12F0FF05DFD1CFB9012208211E489E
:105A900011F090F9032000F089F901224021194802
:105AA00011F088F9032000F081F93A4640211548A9
:105AB00011F080F9032000F079F92046F8BD2A465C
:105AC0000821114811F076F9032000F06FF9012246
:105AD00040210C4811F06EF9032000F067F92A46C6
