:020000040800F2
:100000000000082409640008014A0008054A0008A5
:10001000414A00087D4A0008B94A00080000000073
:10002000000000000000000000000000F54A000889
:10003000F94A000800000000FD4A0008014B0008D2
:100040005D6400085D6400085D6400085D6400088C
:100050005D6400085D6400085D6400085D6400087C
:100060005D6400085D6400085D6400085D6400086C
:100070005D6400085D6400085D6400085D6400085C
:100080005D6400085D6400085D6400085D6400084C
:100090005D6400085D6400085D6400085D6400083C
:1000A0005D6400085D6400085D6400085D6400082C
:1000B0005D6400085D6400085D6400085D6400081C
:1000C0005D6400085D6400085D6400085D6400080C
:1000D0005D6400085D6400085D6400081D4B000855
:1000E0005D6400085D640008000000005D640008B5
:1000F0005D6400085D6400085D6400085D640008DC
:100100005D6400085D6400085D6400085D640008CB
:100110005D6400085D6400085D6400085D640008BB
:100120005D6400085D6400085D640008054B00081C
:100130005D6400085D6400085D6400085D6400089B
:1001400000000000000000000000000000000000AF
:100150005D6400085D6400085D6400085D6400087B
:100160005D6400085D6400085D6400085D6400086B
:100170005D6400085D640008114B00080000000089
:100180005D6400085D6400085D6400085D6400084B
:100190005D6400085D6400085D6400085D6400083B
:1001A0005D6400085D6400085D6400085D6400082B
:1001B0005D6400085D6400085D6400085D6400081B
:1001C0005D6400085D6400085D6400085D6400080B
:1001D0005D6400085D6400085D6400085D640008FB
:1001E0005D6400085D6400085D6400085D640008EB
:1001F0005D6400085D6400085D6400085D640008DB
:100200005D6400085D6400085D6400085D640008CA
:100210005D6400085D6400085D6400085D640008BA
:100220005D6400085D6400085D6400080000000073
:100230005D6400085D640008000000005D64000863
:100240005D6400085D6400085D6400085D6400088A
:100250005D6400085D6400085D6400085D6400087A
:100260005D6400085D6400085D6400085D6400086A
:100270005D6400085D6400085D6400080000000023
:100280005D6400085D6400085D6400080000000013
:08029000000000005D6400089D
:1002A00010B5054C237833B9044B13B10448AFF3B0
:1002B00000800123237010BD184B002400000000B3
:1002C0001C5E010808B5034B1BB103490348AFF39B
:1002D000008008BD000000001C4B00241C5E0108CB
:1002E00001F0FF01102A2BDB10F0070F08D010F8E7
:1002F000013B013A8B422DD010F0070F42B3F6D1EB
:10030000F0B441EA012141EA014122F007047FF003
:1003100000070023F0E80256083C85EA010586EA5A
:10032000010685FA47F5A3FA87F586FA47F6A5FA96
:1003300087F68EB9EED1F0BC01F0FF0102F00702A2
:1003400032B110F8013B013A83EA010313B1F8D14D
:100350000020704701387047002D06BF354603382E
:10036000073815F0010F07D1013015F4807F02BF67
:10037000013015F4C03F0130F0BC0138704700BFB8
:1003800053B94AB9002908BF00281CBF4FF0FF31FC
:100390004FF0FF3000F0BCB9ADF1080C6DE904CEB0
:1003A00000F03AF8DDF804E0DDE9022304B070471C
:1003B00007EE900AF5EEC07AF1EE10FA01D400F0E3
:1003C0000BB8F1EE677A08B517EE900A00F004F862
:1003D000404261EB410108BD9FED0B6B07EE100A37
:1003E0009FED0B5BB7EEC77A27EE066BBCEEC66BD4
:1003F000B8EE464BA4EE457BFCEEC77B16EE101A1A
:1004000017EE900A704700BF000000000000F03DAA
:10041000000000000000F0412DE9F047089D8E46E5
:1004200004468846002B4AD18A42174662D9B2FA5E
:1004300082F64EB1C6F1200301FA06F820FA03F362
:10044000B74043EA0808B4404FEA174E1FFA87FC4A
:10045000B8FBFEF1230C0EFB118843EA084301FBB5
:100460000CF29A4209D9FB1801F1FF3080F0EA80C2
:100470009A4240F2E78002393B449A1AA3B2B2FB97
:10048000FEF00EFB102243EA024300FB0CFC9C45ED
:1004900009D9FB1800F1FF3280F0D6809C4540F26C
:1004A000D3803B44023840EA0140A3EB0C03002117
:1004B0001DB1F3400022C5E90032BDE8F0878B4250
:1004C00005D90DB1C5E9000100210846F5E7B3FAE9
:1004D00083F1002946D1734502D3824200F205819F
:1004E000841A6EEB030201209046002DE5D0C5E989
:1004F0000048E2E7002A00F09080B2FA82F6002E6F
:1005000040F0A4808A1A030C4FEA174E80B2BCB2A6
:100510000121B2FBFEFC0EFB1C2243EA024304FB5A
:100520000CF29A4207D9FB180CF1FF3802D29A421A
:1005300000F2E080C4469B1AB3FBFEF20EFB1233BE
:1005400040EA034302FB04F49C4207D9FB1802F182
:10055000FF3002D29C4200F2CA8002461B1B42EAD4
:100560000C40A5E7C1F120068B4022FA06F71F4395
:100570000EFA01F420FA06F32EFA06FE4FEA1749A6
:10058000234300FA01F81FFA87FCBEFBF9F01C0CAC
:1005900009FB10EE44EA0E4400FB0CFEA64502FAED
:1005A00001F209D93C1900F1FF3A80F09C80A64580
:1005B00040F2998002383C44A4EB0E041FFA83FEFB
:1005C000B4FBF9F309FB13444EEA044403FB0CFCAF
:1005D000A44508D93C1903F1FF3E80F08280A44570
:1005E0007FD9023B3C4443EA0040A4EB0C04A0FB4F
:1005F00002EC64457346E14662D35FD05DB1B8EB6F
:10060000030264EB090404FA06F622FA01F31E431E
:10061000CC40C5E9006400214FE7B1FBF2FC010CBE
:1006200041EA0E4180B240EA01423B4638463C4630
:10063000B846BE462026B1FBF7F1A2EB080241EA1C
:100640000C4166E7014618E710462CE7C6F1200288
:100650002EFA02F3B740B14020FA02F24FEA174EE9
:100660000A43B3FBFEF8BCB20EFB1833110C41EA8F
:10067000034108FB04F9B04089454FEA104380B2BA
:100680003ED9791808F1FF3C01D289451FD8A1EB6A
:100690000901B1FBFEF909FB04F80EFB191192B236
:1006A00042EA0142424529D2BA1809F1FF31C4D2C7
:1006B0004245C2D2A9F102013A44BEE7F0459DD2BB
:1006C000BEEB02036CEB070C0138E14696E7A7EBA3
:1006D00009094944A8F1020CB1FBFEF909FB04F831
:1006E000DBE773467FE7504666E70846FDE63B4496
:1006F000023A33E7ACF1020C3B441CE749469CE765
:10070000A1EB0901C446B1FBFEF909FB04F8C4E7FB
:10071000704700BF2DE9F0474FF00009DFF8108166
:100720003F4F0D46C1F800901646C2F800900446AF
:1007300088F8009087F8009001F052FE824601F0A0
:1007400053FE49460246504614F040FF03F056F966
:10075000002842D105F0E6FE98F8003081464BB9FA
:1007600005F0E0FEA0EB09039C4240D398F800306E
:10077000002BF5D02B4B1968002943D048684FF463
:1007800000534FF0000CDFF8A4E003E04FF0000C42
:10079000013B0CD002464868DEF804406407F5D4FB
:1007A0009042F3D10CF1010CBCF1400FF0D11E4886
:1007B00006F0C6F83B7803F0FF04FBB9284601F0C9
:1007C00017FE3060E0B12D68054401F00DFE854252
:1007D00088BF05242046BDE8F0870124124806F0B2
:1007E000AFF8142005F0A4FE2046BDE8F0870224EF
:1007F0000D4806F0A5F82046BDE8F0870324E9E798
:100800000424E7E74FF40053084802E00021013BCD
:10081000CDD042685207F9D401314029F7D1C6E75B
:10082000544B00245C4B0024D84B002400000248A9
:10083000554B00242DE9F04F844A0025A5B084498A
:1008400015702F46834A0346DFF830A20CA81570B6
:10085000814ADFF82C82814C0D7060211560804A3E
:10086000ADF82450ADF82650CDE90A5514F05EFEDF
:10087000DAF8006020462E4406F0010606EB8601F9
:10088000B30008EB810258F8211007930691D2E9D2
:1008900001B9D268059206F053F8204605F0C4FF6E
:1008A0000699059A20466F4BC4F810902262C4E95D
:1008B000021BC4E90037C4E90577C4E90977C4E934
:1008C0000B7705F063FF814620B1002D40F0AB802F
:1008D0000125CDE7024605214E2005F065FE4E209C
:1008E00005F09EFE01F07AFD01F07AFD834601F0ED
:1008F0007BFD0146584603F0A3F80DF1260109A837
:1009000003F0A8F8002840F0848003F0D7F800280E
:100910007FD103F003F800287BD1F0214FF4A070C1
:1009200003F022F8002874D103F054F8002870D1A5
:1009300001F054FD01F054FD834601F055FD0146E0
:10094000584603F07DF8962005F0F2FD40F2DC50A9
:100950000BAA0AA9FFF7DEFE00285AD1DDE90AB387
:10096000059301F03DFD10EB0B0252D0059B032BCC
:100970004FD910F80B10FF294BD15178D82948D105
:100980009178FF2945D1D27802F12001C9B20F290F
:100990000AD9DD2A3BD8BF2A3BD940323249D2B2EC
:1009A00021FA02F2D30734D501F01AFD2F4B584437
:1009B0009B68002B47D05A682D4B002A08BF1A4667
:1009C0004FF0FF334FF0B40C0599CDE9003C3223D2
:1009D00001F0F2FCE8B9DDF81CE04A46CAF8006014
:1009E0008146B644BDF826300132194C08EB8E081A
:1009F000009301920CA8D8F81010BDF82430029191
:100A000001211C4A2170602114F090FD17E0FE2A9C
:100A1000CAD0322005F08CFDB9F1000F7FF455AF3C
:100A20004FF0010969E7BDF826404FF00109BDF814
:100A300024306021104A0CA8009414F077FD484639
:100A400025B0BDE8F08F0A4ABAE700BF554B002435
:100A5000404B0024544B00243C4B0024D84B002432
:100A6000985E01080000024815000028444B00244D
:100A700040690024B85E0108F05E0108384B00248C
:100A80006C640108014B01221A707047554B002419
:100A900001230249024A0B7013707047544B002423
:100AA000554B00242DE9F04FBB4D9FB00024BB4AAD
:100AB000BB4B2846DFF81C83BA4F1470ADF81040CA
:100AC000ADF8124088F800401C703C6005F038FF1B
:100AD000204602F0B3FE00286ED1DFF8FC92D9F870
:100AE0000030012B0AD9B04C0023B04A602106A87F
:100AF000009414F01BFD1FB0BDE8F08F03EB8303DF
:100B0000DFF8D8A2064628460AEB83025AF82310DB
:100B1000536803910293D2E902B405F011FF28460D
:100B200005F082FE029B039928462C62A9606E6044
:100B3000C5E9033B9E4BC5E90566C5E90966C5E9FC
:100B40000B662B6005F022FE04460028CBD101F095
:100B500045FC01F045FC064601F046FC01463046E6
:100B600002F06EFF224605214E2005F01DFD4E20AD
:100B700005F056FD8C4A23460324009260218D4ADD
:100B800006A814F0D3FC0DF1120104A802F062FFD4
:100B900003463220DBB105F0CBFC013CF3D1BDF8BC
:100BA00012405021BDF8103006A8834A009414F07A
:100BB000BDFC1FB0BDE8F08F7B4D23467F4A60210E
:100BC00006A8009514F0B2FC1FB0BDE8F08FBDF888
:100BD000123040217A4A06A80093BDF8103014F074
:100BE000A5FC02F06BFF002885D102F097FE0028DB
:100BF00081D1F0214FF4A07002F0B6FE00287FF4FE
:100C00007AAF02F0E7FE044600287FF474AFD9F80B
:100C10000030012B3FF66FAF03EB83035E480AEB16
:100C200083025AF823B0D668D2E901A905F088FEFC
:100C3000594805F0F9FD5E4B57486C60C5F81090B7
:100C40002E622B60C5E90544C5E90944C5E90B449A
:100C5000C5E902BA05F09AFD044600287FF44BAFBF
:100C600001F0BCFB01F0BCFB054601F0BDFB0146F9
:100C70002846032502F0E4FE224605214E2005F019
:100C800093FC4E2005F0CCFC40F2DC5005F050FC0B
:100C9000059401F0A5FB064601F0A0FB01F0A0FBC6
:100CA000044601F0A1FB0146204602F0C9FE78206F
:100CB00005F03EFC06AA05A940F2DC50FFF72AFD2C
:100CC00000285BD1DDE90531032906EB030255D984
:100CD000002A53D0F35CFF2B50D15378D82B4DD141
:100CE0009378FF2B4AD1D37803F12002D2B20F2A96
:100CF0000AD9DD2B40D8BF2B40D94033314ADBB273
:100D000022FA03F3DB0739D500233B6002F006FE2D
:100D100000287FF4F0AE2C4C2C4B227806933ABB83
:100D200006A9201D0CF0A6F810F0FF057FF4E3AE35
:100D3000294660680CF00AF9034629466068A360FA
:100D40000CF012F9A268E060002A3FF4D4AE00284B
:100D50003FF4D1AE5268002A3FF4CDAE4268002A7B
:100D60003FF4C9AE036A002B3FF4C5AE01232370E4
:100D7000012388F80030BEE6FE2BC5D0782005F0B0
:100D8000D7FB013D88D11248FFF754FD0028BDD0A4
:100D900005233B60BAE700BFD84B0024554B002425
:100DA000544B00243C4B0024505F0108585F01085D
:100DB00000000248885F0108BC5F01081C5F010851
:100DC000E85F010815000028444B00244069002416
:100DD000AC5F0108404B0024384B00246C640108D0
:100DE0003D4B1B78002B35D02DE9F04F2DED0A8BB4
:100DF00099B005F097FB0023044606AA05A940F622
:100E0000B8300593FFF786FC68B1344A13680133A4
:100E1000042B13605CD8322005F08AFB19B0BDECBE
:100E20000A8BBDE8F08F01F0DBFA059BBDF8189046
:100E3000C218069D04D0032D02D9C35CFF2B0CD031
:100E4000264A13680133042B1360E4D92448FFF7C2
:100E5000F1FCE0E7642005F06BBB5378D82BEFD1B1
:100E60009378FF2BECD1D37803F12002D2B20F2A72
:100E70000BD9DD2B00F27C82BF2BE1D94033194A1C
:100E8000DBB222FA03F3D807DAD501F0A9FA164F3C
:100E9000059B1844BB68002B00F020825A68134B56
:100EA000002A08BF1A464FF0FF33B421CDE90031C4
:100EB0003223294601F080FA0646E8B1074A136852
:100EC0000133042B1360A6D90948FFF7B3FCA2E74E
:100ED0000848FFF7AFFC9EE7404B00243C4B002442
:100EE0002060010815000028444B002440690024BC
:100EF0002C60010810600108DB4B186005F012FB44
:100F000080467868D7E902120CF03CF8012882D1BB
:100F1000FA685368126A002B3FF47DAF002A3FF451
:100F20007AAF92F900209FEDD17A8032DFEDD07A4E
:100F300008EE902A93F90020063AF8EEE88A0BEEC4
:100F4000902A93F9012068EE878A063AF8EEEBBA08
:100F50000BEE102A93F90220F5EEC08A063AB8EE9D
:100F6000CBBA6BEEA7BA0AEE902A93F9032093F955
:100F700004302BEE27BA063AF8EEEAAA063BF1EE69
:100F800010FA0CEE102ACDED0BBA09EE903A6AEE8B
:100F9000A7AAB8EECCCA8DED0CBAF8EEE99ACDED61
:100FA0000DAA2CEE27CA69EEA79A8DED0ECACDEDDB
:100FB0000F9A00F1C581F7EE007AF4EE678AF1EE40
:100FC00010FA77FEA88AF4EECBBAF1EE10FA40F1EF
:100FD000B381B0EE4B9A0127B4EEEA9AF1EE10FA23
:100FE00002D5B0EE6A9A0227DFEDA27A7CEE277A6C
:100FF000F4EEC97AF1EE10FA02DDB0EE679A03273B
:10100000B4EEE99AF1EE10FA02D5B0EE699A04272F
:101010009FED98AA0DF12C0B4FF0000AB0EE4A8A12
:10102000F0EE4ACABAF1030FBBEC010A00F04881A6
:1010300030EE490A14F052FE574538EE008A0AF1A4
:10104000010A00F04D81BAF1050FEBD1B5EEC08A6F
:101050007B1EF1EE10FACCBF8AEE089A9FED859ABE
:10106000022B00F26781032F40F04B81DFED827A83
:10107000F4EEE78AF1EE10FA80F25C81DFED7F7A20
:10108000F4EEE78AF1EE10FAC0F24C8102230393EA
:1010900005F048FA834605F045FA824601F0A0F9CA
:1010A000059BC31802933FF4B9AE6A1E4FF6FE7358
:1010B0009A423FF6B3AEB5EEC09AF1EE10FA40F2A6
:1010C0004E81F7EE007AB4EEE79AF1EE10FA80F274
:1010D0004981F6EE007A9FED6A7AE9EE077AFCEE36
:1010E000E77A17EE902AD0B2C2F30722F5EEC08A53
:1010F000F1EE10FA40F23081F7EE007AF4EEE78A72
:10110000F1EE10FA80F23181F6EE007A9FED5C7A12
:10111000E8EE877AFCEEE77A17EE903AD9B2C3F39D
:101120000723AAEB040A039CABEB0808B1EE007A94
:101130008DF845404FF6FF74DFED527AA2458DF8E9
:101140004670EBEE877AADF8509028BFA246A045D6
:1011500028BFA046002460F30704FDEEE77A62F39F
:101160000F24002261F317444749ADF8522063F37E
:101170001F6400236AF30703CAF3072A12946AF371
:101180000F2368F31743C8F3072868F31F6313930B
:101190000B6801330B60159317EE903A3B4993426D
:1011A00010914FF001018DF8441003DBFF2BD4BFE9
:1011B000DAB2FF22B1EE007ADFED327A8DF85820F4
:1011C000EBEE077AFDEEE77A17EE903A002BC0F2CD
:1011D000C180FF2B00F3D280DBB2B1EE007ADFEDED
:1011E000297A8DF85930EAEE877AFDEEE77A17EE24
:1011F000903A002BC0F2AC80FF2B00F3C180DBB231
:10120000B1EE007ADFED1F7A8DF85A30ECEE077AF6
:10121000FDEEE77A17EE903A002BC0F29780FF2B95
:1012200000F3AA80DBB2B1EE007ADFED167A8DF81A
:101230005B30E9EE877AFDEEE77A17EE903A002B05
:1012400003DBFF2BD4BFDEB2FF26B2234BF27F427B
:10125000042410A98DF85D300D4BADF85E202022DE
:1012600007934FF0FF3315E03C4B00246876533B67
:10127000B91FD43D00000000713D2A3FD7A3F03EC6
:1012800000007A4400000043344B002441495631A9
:10129000414945313B488DF85C608DF847400AF084
:1012A0008FF8AAB202994FF0FF3336480AF088F857
:1012B0004FF0FF33224607A932480AF081F8ADE526
:1012C00030EE2C0A4FF0040A30EE490A14F006FD05
:1012D000032F38EE008A00FE0AAAA3E62A4AE2E5B6
:1012E000042FB0EE40AA07F1010A7FF49BAEB5EEE1
:1012F000C08AF1EE10FA18DD7B1E80EE089A022BF0
:1013000018D8DFED227AF4EEE78AF1EE10FA1ADA55
:10131000022F7FF4B3AEDFED1E7AF4EEE78AF1EE32
:1013200010FA07DA01230393B2E67B1E9FED199AA8
:10133000022BE6D90397ABE6B0EE6B9A00274BE69B
:10134000DFED148A3FE603230393A1E600236AE757
:10135000002355E7002340E700231946E1E6002279
:101360001046C3E60322E820C0E60323E821D8E6BE
:10137000FE2B7FF465AD88E5FF2354E7FF232CE7C0
:10138000FF233DE79864002440690024713D2A3F13
:10139000D7A3F03E000000002E480178002958D164
:1013A0002D4A2E4B30B4D2F8E04082B0102544F0E4
:1013B0000104C2F8E040D2F8E04004F001040094D7
:1013C000009CD2F8E84044F00104C2F8E840D2F8AA
:1013D000E82002F0010201924FF08042019C1C685B
:1013E00024F00C041C601C6844F008041C605C6859
:1013F00024F002045C609C6844F00C049C60DC688F
:1014000024F00C04DC601C6A24F0F0041C621C6AEA
:1014100044F010041C62092440F2E7331160946226
:101420000124D3629161B421936943F4C043936171
:10143000936943F400639361916315625461136887
:1014400043F081031360064B0470198002B030BC76
:1014500070477047564B0024004402580000025861
:10146000584B002408B50C4800230C492022836106
:101470000363C0E90013C0E90223C0E90433C0E9F3
:101480000833C0E90A3305F081F900B908BDBDE8A9
:10149000084001F0BBB800BFD84B00240000024850
:1014A0005F4B02682DE9F0439A428DB04FF0000483
:1014B000CDE906440894CDE9094402D00DB0BDE859
:1014C000F083584B0D2603270546D3F8DC204FF058
:1014D000020855484FF0010942F00102C3F8DC2030
:1014E000D3F8DC2002F001020092009AD3F8E02049
:1014F00042F00102C3F8E020D3F8E02002F001023C
:101500000192019AD3F8E02042F08002C3F8E02073
:10151000D3F8E02002F080020292029AD3F8E02091
:1015200042F00402C3F8E020D3F8E02002F0040205
:101530000392039AD3F8E02042F00802C3F8E020B7
:10154000D3F8E02002F008020492049AD3F8E020D5
:1015500042F00202C3F8E0204022D3F8E03003F06A
:10156000020305930223059906A9CDE90623CDE9D7
:10157000097607F0C9F84FF4807306A92B480A963C
:10158000CDE90638CDE9084707F0BEF84FF43C63D3
:1015900006A927480693CDF81C80CDF82090CDE908
:1015A000097607F0B1F8082306A922480693CDE989
:1015B0000976CDE9078907F0A7F8802306A91E4818
:1015C0000693CDE90976CDE9078407F09DF84FF43D
:1015D0004073194806A90A960693184E0997CDE953
:1015E000078907F091F8164A4B233046F4613462BC
:1015F000746286E81C004FF480534FF4806273617C
:101600004FF48043C6E90342B36105F027FB20B9DC
:10161000AE64B5630DB0BDE8F08300F0F7FFF7E707
:10162000000002480044025800000258001C025802
:1016300000080258000C0258000402585C4B0024B9
:1016400058040240144B02689A4200D07047134A73
:101650004021D2F8DC3023F0010310B5C2F8DC30B1
:1016600004460F4807F056FA4FF480710D4807F012
:1016700051FA4FF43C610C4807F04CFA08210B4832
:1016800007F048FA0A484FF4607107F043FAA06C7B
:10169000BDE8104005F072BD000002480044025849
:1016A00000000258001C025800080258000C0258A2
:1016B000000402580F4900200F4BD1F8FC2042F0E3
:1016C000807210B4C1F8FC2001F1C84158601A685A
:1016D000A1F56501094C42F00102A1F67D610848BF
:1016E0001A6023685DF8044BA1FB03139B0C036095
:1016F000704700BF00ED00E0001000E0080000248B
:10170000284C002418490B6823BB10B4174CD4F89C
:10171000FC2042F08072C4F8FC20154A154C53603E
:10172000136843F00103136002F1C642236802F517
:10173000DE1202F68362A2FB03230D4A9B0C0B60B0
:1017400003FB00F0516853685B1A8342FBD35DF8DA
:10175000044B7047064A03FB00F0516853685B1A5C
:101760008342FBD3704700BF284C002400ED00E00B
:10177000001000E0080000240C4B00223B20114622
:1017800010B5D3F8D84082B044F00204C3F8D84072
:10179000D3F8D83003F002030193019B04F004FF57
:1017A0003B2002B0BDE8104004F03ABF00440258AC
:1017B00070B5EFF3108672B61C4C00224FF48051C6
:1017C0002368204623F0407343F08073236007F0C2
:1017D000D7FA4FF4F070FFF795FF01224FF48051D4
:1017E000204607F0CDFA2368462023F0407323609B
:1017F000FFF788FF4FF48051204607F0BBFA0546FB
:101800004FF4CD70FFF77EFF01224FF48051204648
:1018100007F0B6FA2368B5FA85F523F040736D0931
:10182000236006B962B6284670BD00BF00040258A6
:10183000234BD3F8E02042F0020210B582B0C3F887
:10184000E020D3F8E0301F4C03F002030193019B2A
:10185000FFF730FF1C4801224FF48051036823F04A
:10186000407343F08073036007F08AFA022117483F
:1018700007F080FAA0F10100154BB0FA80F04009A2
:101880001870FFF795FF0023124A1349C01A0B7016
:1018900018BF0120114910704FF40040104A0B602E
:1018A0001370104A2080136004F03CFE0E4B01219F
:1018B0000E4AA0F57A701170186002B010BD00BF1A
:1018C000004402580000002400040258002002587E
:1018D0003B4C00243A4C0024394C0024344C002466
:1018E000384C0024304C00242C4C00243C4C002468
:1018F00030B5194889B000230222184D0621C36172
:1019000008248362009206920122C4608260402211
:101910000194C0E90053102303614FF480739FEDDD
:101920000C7BC0E905234FF400624FF48053CDE9EE
:10193000021169468DED047BC0E9082309F0DEFC45
:1019400008B909B030BD00F061FE09B030BD00BF7C
:101950000200000002000000484C002440410052F8
:101960003A480023F0B50168B7B0CDE90133CDE9BD
:101970000333059309B137B0F0BD0123A0224FF026
:101980008074002503600EA813F020FE02230522B8
:1019900006A81893CDE90A335023CDE90823042281
:1019A0008023CDE90645CDE90C2308F01DFC002875
:1019B00048D1274B4FF63F0102270026D3F8D42009
:1019C00003250C24234842F48052C3F8D420D3F8D2
:1019D000D430019101A903F4805302970594009338
:1019E000009BCDE9036506F08FFE0D2301A91A487F
:1019F0000193CDE90276CDE9045406F085FE48F264
:101A0000371301A915480193CDE90276CDE90454B5
:101A100006F07AFE4FF6837301A911480193CDE9D0
:101A20000276CDE9045406F06FFE4CF2037301A96F
:101A30000C48029705940193CDE9036506F064FE16
:101A400037B0F0BD00F0E2FDB3E700BF404C00242A
:101A500000440258001402580008025800180258A6
:101A600000100258000C02582DE9F047744B90B05A
:101A70000024744FDFF8D4A148F201110E943846C7
:101A8000714E0125DFF8C881DFF8C891CDE90A441D
:101A9000CDE90C44D3F8E02042F01002C3F8E02076
:101AA000D3F8E02002F010020192019AD3F8E0206E
:101AB00042F02002C3F8E020D3F8E02002F0200238
:101AC0000292029AD3F8E02042F08002C3F8E020AC
:101AD000D3F8E02002F080020392039AD3F8E020CA
:101AE00042F00402C3F8E020D3F8E02002F0040240
:101AF0000492049AD3F8E02042F00102C3F8E020F7
:101B0000D3F8E02002F001020592059AD3F8E02014
:101B100042F00202C3F8E020D3F8E02002F0020213
:101B20000692069AD3F8E02042F04002C3F8E02083
:101B3000D3F8E02002F040020792079AD3F8E020A1
:101B400042F00802C3F8E020D3F8E02002F00802D7
:101B50000892089AD3F8E02042F48072C3F8E0209B
:101B60002246D3F8E03003F480730993099B07F011
:101B700007F922465046242107F002F92246304652
:101B80003A2107F0FDF822464046012107F0F8F817
:101B900001224846802107F0F3F840F201130AA918
:101BA0003846CDE90A35CDE90C4406F0ADFD2423D5
:101BB00050460AA90A930D94CDE90B5406F0A4FDF2
:101BC00022230AA930460A930D94CDE90B5406F05E
:101BD0009BFD0AA94046CDE90A55CDE90C4406F023
:101BE00093FD0222002340460AA90C94CDE90A2362
:101BF00006F08AFD802348460AA90A930323CDE90B
:101C00000B540D9306F080FD4FF4004338460AA9AB
:101C10000D940A93CDE90B5506F076FD18230AA919
:101C200030460A931123CDE90C550B9306F06CFD59
:101C300021464FF0807004F093FC10B0BDE8F087AF
:101C4000004402580000025800040258001C0258C8
:101C500000200258000C025810B5174800231749FD
:101C60000124174A036280E81E00C0E90433C0E97A
:101C7000063307F093F850B900210F4807F0E8F851
:101C800068B900210C4807F00DF980B910BD00F0CB
:101C9000BDFC0021084807F0DBF80028F1D000F077
:101CA000B5FC0021044807F0FDF80028EED0BDE89F
:101CB000104000F0ABBC00BF804C0024001C00585A
:101CC000B17570302DE9F043BBB000210446C0224D
:101CD0000AA80891CDE90411CDE9061113F076FCAC
:101CE000294B22689A4202D03BB0BDE8F083102213
:101CF00000230AA8CDE90A2308F076FA002840D18B
:101D0000224C4FF480584FF012090026D4F8E030EE
:101D10000027042504A943F080031D48C4F8E030DF
:101D2000D4F8E03003F080030193019BD4F8E03055
:101D300043F00803C4F8E030D4F8E030089503F02D
:101D400008030293029BCDE90489CDE9066706F0FA
:101D5000DBFC04A90F480895CDE90489CDE90667A5
:101D600006F0D2FCD4F8F43043F08003C4F8F43029
:101D7000D4F8F43003F080030393039B3BB0BDE839
:101D8000F08300F043FCBBE7001C005800440258FD
:101D9000001C0258000C025838B5456F9DB1D5E9BA
:101DA0000143A3420FD2E41A0846944228BF1446C6
:101DB00029B129682246194413F04CFCAB6823442E
:101DC0002046AB6038BD0024204638BD002964D0D1
:101DD0002DE9F04FB2FA82F785B07F09002A50D082
:101DE000B2F80280B8F5A07F4BD2D388EF2B50D841
:101DF0000D46918814885E1AA8EB0408701C08F13F
:101E0000010342D003EB43000290002B3DD041F28E
:101E1000233A42F2915940F24C7BAC46039660461D
:101E20000025CDE9007C01E0148891884378454580
:101E300090F800E000F10300009E09FB03F310F8A6
:101E400001CC31440AFB0E33154F01EB81010BFB32
:101E50000C3307EB811103F5005329444FEAA333F8
:101E600005F101050B55DFD10399029BDDE9007CEB
:101E70008F429C4407F1010307D01F4614889188C4
:101E8000CDE7002005B0BDE8F08F012005B0BDE82A
:101E9000F08F384605B0BDE8F08F0020704700BFD6
:101EA000B0F103242DE9F04FADF5317D8146884630
:101EB000BF48002102924FF496321F46DFF830B33C
:101EC000BDF9E8429DF8EC5213F080FBDFF824A343
:101ED00000230FAAB749119312A800928BF8003083
:101EE000AAF80030B44ACDE90F98DFF80C93DFF878
:101EF0000C8389F80030A8F800304FF4805302F0CA
:101F000023FF8BF80000002840F03C81BDF86430CE
:101F10000246AA4912A8AAF80030BDF86630A8F80F
:101F2000003003F01FFA804689F80000002840F0D6
:101F30002F8257EA040300F02C81A6469C4BDFF861
:101F4000C0A240F23F140EEB8E0903F5A0700EF113
:101F5000F00B00EB89104FEA89193844AAEB090A03
:101F6000C9F100090AF1FF3ABEF1EF0F9049AAEB5F
:101F70000902A0F5A0738CBF00270127A9EB010679
:101F8000F118A14202D8002F40F09F81013302F8DE
:101F9000015F8342F4D10EF1010E00F5A070A9F5A6
:101FA000A079F345E0D1864EDFF854923378002BC8
:101FB00000F0F680834A09F1270BCDF8109008262F
:101FC00030AB0DF2BE2409277F4D914641460BF5FB
:101FD000A072D846CDF814B0CA46B3460E46039256
:101FE00018464FF40072002113F0F0FAC44603467D
:101FF00008F51650ACF1280111F801EF33F81E2056
:102000008C4502F1010223F81E20F5D10CF5A07CCD
:102010006045EFD10DF1BE024FF0000E114631F8D0
:10202000020F0928A0F1090C01D9E6440F80A14252
:10203000F5D1BEF1000F40F01581D446002032F8F2
:10204000021F0844A242C0EB002101F51671A5FB56
:1020500001E14FEAD1110CF8011FF0D108F1280875
:10206000039A0AF5807A4245BAD131465E46DDF8D8
:1020700014B009F50069013E0BF5165BA7D1DDF838
:102080001090524AC9F100036FF070099446DFF8CE
:1020900074B10393A9EB0209029B3246DFF868A1F1
:1020A000013B0D910C934A4B98461CF8013F1BF8DD
:1020B000015F09EB0C010693C3F11E0318F8014FF1
:1020C00001FB01F1434E0593ED00039BE4000491F5
:1020D00040F62F214048C91A0C9B404F03EB020EDB
:1020E0000296CDF82C90CDE907B8CDE909C210F8D9
:1020F00001CB01F1010891F801B0A1F69F234146FF
:1021000005EB0C08A44417F8012F039E0AEB0828DE
:102110000AEB0C2C3344049E1CF80B9005EB020CCC
:10212000224403FB03630AEB0C2C029E0AEB0222FF
:1021300018F80B801CF80BC012F80B2016F801BF22
:10214000029642F21076B34240F300816FF07F03B3
:102150000EF8013F224B9842C9D1039BDDF82C9029
:10216000A3F5A073DDE909C203931E4BE0329C4541
:10217000DDE907B899D1DDF8348040460DF5317DB1
:10218000BDE8F08F4FF0020840460DF5317DBDE807
:10219000F08F0B4EDFF818903378002B7FF40AAFE6
:1021A000DFF868C09E46104F104DDFF864A04BE08A
:1021B000B0F10324991D00086C530024CD1D0008C4
:1021C000DA4C0024AF850224B5814E1BE34C002479
:1021D000D34D0024DB4F00245C5200241B5100240B
:1021E0003C530024C34D0024EB500024AB4F00248B
:1021F000D94C0024D64C0024D84C0024D44C0024C4
:10220000B0C50224C34E0024B08502242B52002402
:10221000CDCCCCCC6009C4F347140133072804F1BA
:1022200001020CF8014F18BFD0B2AAFB01B2B3F5FE
:10223000A07F4FEA521207F8010F02EB8202A1EBD6
:10224000C20105F8011F51D0A3F11401132BAAFB01
:102250000124DFD801330CF801EF07F801EF05F88E
:1022600001EFF1E75FFA8EFC0DF1BE01CEF30F2E08
:1022700031F8020F7044A1420880F9D1BCF1000F7F
:102280003FF4DBAE4FF4807106926246B1FBFCF185
:10229000C1EBC17E084603EB4E0E3EF810C0013A7A
:1022A0000CF1010C2EF810C014BF4FF0010C4FF0D0
:1022B000000CFF288CBF4FF0000C0CF0010C084400
:1022C000BCF1000FE9D1069AB7E613F8011B98425A
:1022D00002F8011F7FF454AE0EF1010E00F5A0705C
:1022E000A9F5A079F3457FF43FAE5CE600232C4FBF
:1022F0002C4D2D4C9C46DFF8BCE019E00109C0F3E1
:1023000007100133072900F1010A07F8010F18BF70
:102310005FFA8AF1AEFB02BAF02B05F8011F2AF032
:102320000F01A1EB1A11A2EB410204F8012F2CD0EE
:10233000A3F10F020E2BAEFB0210DFD8013307F81A
:1023400001CF05F801CF04F801CFF1E712FB0BF242
:10235000069B1CFB0BFCCBF1280B0BFB09220BFB98
:1023600008CB03FB02F2059B03FB0B2202F516735D
:102370000E4AA2FB03320E4BD2099842A2F1800210
:102380000EF8012F7FF4B3AEE7E60123337011E6B8
:102390004FF0030840460DF5317DBDE8F08F00BFDA
:1023A000BB4E0024CB4D0024DB4C0024B5814E1BDA
:1023B0003C53002489888888002918BF002870B4FD
:1023C000BDF90C509DF8104005D022B1CDE9035461
:1023D00070BCFFF767BD012070BC7047704700BF3D
:1023E00000487047000000304FF48030704700BF55
:1023F00010B44FF6FF73184C1A46013BE15CFF29FD
:1024000006D0002BF8D118BB00205DF8044B7047B4
:10241000A15CD929F5D102F1010CBCF5803FF2D0C5
:102420001146013AA35CFF2B06D0002AEBD01146DF
:10243000013AA35CFF2BF8D1635CD82BF5D100B136
:1024400002606245E0D2ACEB02005DF8044B7047DD
:1024500000230360D8E700BF0000003070B58EB0E5
:10246000054634220E4601A8002113F0AFF84FF4C0
:1024700080724FF080730124069269464FF0FF325C
:102480000A48009509930A9406F082FE10B120468E
:102490000EB070BD4FF0FF323146044806F0E6FE44
:1024A000003818BF0120A040F2E700BFB06300244D
:1024B0002DE9F04F4FF0404C06460F469046002362
:1024C000464C4748474983EA040203448B424CF890
:1024D000042BF8D14FF00009434D444CDFF8FCB019
:1024E000DFF8FCA0BFF34F8FBFF34F8F4FF0404397
:1024F000C5F868322033A342FAD1BFF34F8FBFF340
:102500006F8FBFF34F8F4FF04043C5F85C322033DD
:10251000A342FAD1BFF34F8FBFF36F8FB9F1000F12
:1025200036D000244FF04042DFF8DCE02C4D23464B
:1025300003E00133B3F5806F3DD0106884EA0E01EB
:1025400094462C44814202F10402F2D003F140523D
:1025500009F10D04264D9200DCF800902C60E4B2E5
:10256000DCF800E0DCF800503260224A396041407B
:102570001360214B214A1960214BC8F80000C3F8B1
:102580000090204BC2F800E01D602046BDE8F08FAF
:10259000CE464B464FF0404203E00133B3F5806F27
:1025A0000BD010688EEA0B019446D644884202F1A3
:1025B0000402F2D0CAE70024E7E700234FF0404CC2
:1025C00011484FF001090649DFF818E083EA0002DC
:1025D0000B4473454CF8042BF8D183E7C33C5AA550
:1025E000814020100004028100ED00E0001000C0D6
:1025F000A06300249C63002498630024906300245B
:10260000946300248C6300243CC3A55A00B50023C6
:1026100089B0CDE90233CDE90433069372B6154B88
:102620000224012502A9D3F8E020134842F0020257
:10263000C3F8E020D3F8E030CDE9024500240025BE
:1026400003F00203CDE904450B4D0C4C0093009BB5
:1026500006F05AF80221284606F096FB0023019363
:10266000019BA342F6D8019B01330193019BA34236
:10267000F9D9EFE700440258000402587F8D5B004F
:1026800010B59EB04C2200210AA812F09FFF202214
:10269000002102A812F09AFF022006F02FFC234A24
:1026A0000021234B0191916941F44041916191696D
:1026B00001F440410191D96A41F00101D962DB6A1C
:1026C00003F001030193019B93699B04FCD5012056
:1026D0004FF4803102230022082419931A94CDE983
:1026E0000A0105210AA81591C021CDE91333CDE9CE
:1026F00017331691CDE91B2206F020FF034698B947
:102700003F21402204934FF480630291032102A8E9
:10271000079203910421CDE90542CDE9083207F083
:1027200089FA08B91EB010BDFFF770FF00480258C3
:10273000000400582DE9F04F0023D9B00124CDE961
:102740003833CDE93A3303F08FFF4FF04051464A1A
:102750004FF4807338A8ADF8E0403B93CDE93912CF
:1027600003F0A0FF414A424B4FF0404138A88DF89A
:10277000E1403991CDE93A2303F094FF062003F0BC
:1027800081FF3C4A536913F4003311D1BFF34F8FDB
:10279000BFF36F8FC2F85032BFF34F8FBFF36F8F0D
:1027A000536943F400335361BFF34F8FBFF36F8F0F
:1027B0003048436913F4803324D1C0F88430BFF328
:1027C0004F8FD0F8805043F6E076C5F34E34C5F312
:1027D000C905640104EA06012B4641EA8372013B04
:1027E0005F1CC0F86022F8D1203C14F1200FF1D119
:1027F000BFF34F8F436943F480334361BFF34F8F7F
:10280000BFF36F8F1B4A536923F008035361BFF373
:102810004F8FBFF36F8F03F049FEFFF731FF16496B
:102820000B6843F080030B600B68DE0506D4134B86
:1028300000E01BB10A68013BD505FAD50E4BD3F871
:10284000F42042F00202C3F8F420D3F8F43003F08D
:1028500002031693169B03F08DFE09490B6ADC05F3
:1028600015D4064B0FE000BF0F0001011800000354
:102870000100010100ED00E00044025840420F0059
:10288000000400581BB10A6A013BD005FAD5FFF7D6
:10289000EBF8C14CFEF770FF03F052FCFEF7E2FDCF
:1028A000FFF7DAF903F090FCFFF722F801F05EFF82
:1028B000FEF772FDFEF7BCFF01224FF48071B748AE
:1028C00006F05EFA4FF47A6003F032FE0023C4F89B
:1028D0008430BFF34F8FD4F8805043F6E076C5F3D1
:1028E0004E30C5F3C905400100EA06012B4641EA16
:1028F0008372013BC4F874225A1CF8D1203810F1BD
:10290000200FF1D1BFF34F8FBFF36F8FD4F89C32FC
:1029100043F00403C4F89C32BFF34F8FBFF36F8FB3
:1029200001F0D2FF0023802138A81D931B93ADF83E
:1029300054308DF8563019931C938DF851308DF822
:1029400052308DF85330964ECDE91E33CDE9173312
:102950000123D4F89820C4F89830D4F8A030C4F8F3
:102960009820904A009303F0010312F0DFFDDFF896
:1029700068C233688021DCF8207038A8DCF8205069
:10298000C3F30023D4F89C4207F00107DCF820C011
:10299000C5F30025C4F38004834A0097CDF80CC02A
:1029A0000294019512F0C2FD8048814A802103689B
:1029B000476A8568C3F38143C468C7F30317006996
:1029C000C5F38145C4F38144C0F3402002940390D1
:1029D00038A8CDE9007512F0A9FD33681B0100F19C
:1029E0001C836F4BDD6C15F0030500F01283022D84
:1029F0000CBF1F9F002707F08FF8044607F044FA2A
:102A00006C4A234601248021009038A86A4ECDE903
:102A1000014412F08BFD624A2B4627FA04F5116837
:102A2000306CC1F3C061654A039038A800918021E1
:102A3000CDE9017512F07AFD102700234FF0FF3227
:102A40002AA95F482A942C942D932B9708F080FC98
:102A50000546002800F0E58023465A4A802138A820
:102A600012F064FD342200212BA812F0AFFD4FF4C8
:102A700080734FF0807C4FF0FF3230939F232AA960
:102A800051482A930323CDE933C306F081FB002884
:102A900000F0B4820123029380219DF8563038A8BB
:102AA0004A4A01939DF8553000939DF8543012F036
:102AB0003DFD0DF151010520FFF7D0FC04460DF15D
:102AC00052013520FFF7CAFC04430DF153011520D4
:102AD000E4B2FFF7C3FC9DF8532044EA00038021D1
:102AE000019238A8DBB23A4A02939DF85230009323
:102AF0009DF8513012F01AFD342200212BA812F05B
:102B000065FD08234FF480702AA92F934FF0FF3200
:102B100034935A2330902A934FF480632A48319398
:102B20004FF400532D934FF08073339306F030FB36
:102B3000002800F0588201239DF871109DF86F2045
:102B40009DF86E009DF87040CDE904139DF86D105E
:102B50009DF86C30CDE90010CDE9022480211D4A9A
:102B600038A812F0E3FC01F0D5FE002800F05982ED
:102B700009480023C0F88430BFF34F8FD0F880504D
:102B800043F6E076C5F34E34C5F3C905640104EAA3
:102B900006012B4622E000BF00ED00E000000258D5
:102BA0000044025858600108906001080010025863
:102BB000D06001080C610108004100524461010825
:102BC000484C00245C620108B0630024586301088B
:102BD0007C630108AC6301080004005841EA837279
:102BE000013BC0F874225A1CF8D1203C14F1200F8C
:102BF000CDD1BFF34F8FBFF36F8FD0F89C3223F04E
:102C00000403C0F89C32BFF34F8FBFF36F8FAA4C01
:102C1000FDF748FFFEF7E4F80221204606F0B4F87D
:102C2000F8E7204603F084FC2D9502254FF0FF3293
:102C30002AA9A2482A95CDE92B7408F089FB00281F
:102C400040F0FB81032508232D904FF0FF322AA985
:102C50009A482B972A952C9308F07AFB002840F08D
:102C6000EC814FF408734FF0FF322AA993482D935B
:102C7000CDE92B7404242A9408F06AFB00287FF421
:102C8000EBAE4FF4B9718D4808F082FB8246002804
:102C900040F047824FF0FF090746DFF8688204469C
:102CA000336C23F4C04343EA44333364BFF34F8FA0
:102CB000BFF36F8F19AA18A917A81997CDE917772D
:102CC000FFF7F6FB1999189A0546336C03924A40B0
:102CD00000932346019038A8CDE90412179A802169
:102CE0000292424612F022FC25B9B9F1FF0F08BF4B
:102CF0005FFA84F90134032CD2D1714AB9F1FF0F84
:102D000018BFCA460A94136C23F4C04343EA4A33FB
:102D10001364BFF34F8FBFF36F8F002319AA18A955
:102D200017A81993CDE91733FFF7C2FB05460090AA
:102D3000002840F084810223624A802138A8019350
:102D40000DF1900A604B12F0F1FB604A60490DF101
:102D5000A80E07924FF0404C5E4A74465E480DF153
:102D6000800E0B925D4A089109900E925C495D4875
:102D70005D4A5E4B0C910D9003F110090F9203F127
:102D8000300B5B495B485C4A109111901292DFF85E
:102D900078815A4F5A4E0FCB8EE80F00B9E80F00DA
:102DA0000FC499E80F0084E80F00BBE80F00AAE801
:102DB0000F00464B4FF0400E4B4A1D60444B4E4CAB
:102DC0001D60454BC8F800501D60424B3D601D60C2
:102DD000434B35601D60434B15601D603F4B2560C4
:102DE0001D6019959BE80300CDE917558AE803009B
:102DF0003F4940480D600560ACF800E0ACF8025077
:102E0000ACF80450ACF80650BFF34F8FBFF36F8F90
:102E1000BCF800309BB21360BCF802309BB20B6070
:102E2000BCF804309BB20360BCF806309BB2236050
:102E3000BCF800309BB2402B40F02D81BCF8022042
:102E400092B2002A40F02781BCF8042092B2002AF6
:102E500040F02181BCF8061089B2002940F01B81A6
:102E6000ACF80010ACF80210BFF34F8FBFF36F8FB8
:102E70008CF80030BFF34F8FBFF36F8F9CF800309A
:102E80000B9A13600C9A9CF8013013600D9A9CF811
:102E9000023013600E9A9CF8033013609CF80230E5
:102EA000402BDAB200F0BE8120AD0C4635F8020BA3
:102EB0004FF0404300222DE000040258484C00240B
:102EC00000410052F061010824620108946300246B
:102ED00090630024886300248C6300247C630024B6
:102EE000846300248063002478630024405E01082A
:102EF00074630024706300246C6300249C630024CA
:102F00009863002490610108A06300240132402AE4
:102F100000F009811880023333F8021C89B288421C
:102F2000F4D002F1C0433A60012218905B0048409F
:102F3000C8F80020042217930B46306000928021CD
:102F4000199338A89B4B9C4A12F0F0FA179B002B60
:102F50003FF488AD189A802138A80092199A0192FE
:102F6000964A12F0E3FA31689548964A3B68B1F503
:102F7000803F28BF024638A80093D8F8003001915E
:102F800080210292904A12F0D1FA099B8F4A802147
:102F90001B6838A80193089B1B680093079B1B685C
:102FA00012F0C4FA129B8A4A80211B6838A8029347
:102FB000119B1B680193109B1B6800930F9B1B6860
:102FC00012F0B4FA0E9B834A80211B6838A8029342
:102FD0000D9B1B6801930C9B1B6800930B9B1B684C
:102FE00012F0A4FA3EE54FF0FF321BA97A4806F032
:102FF0003DF9031E18BF01235B009DE54FF0FF3232
:1030000015A9754806F032F9031E18BF01235B00AD
:1030100041E506F039FF0746EDE41DA808F03AF84F
:10302000DFE46E484FF010436D4A60211B6804686E
:1030300038A8009412F07AFA9AE52B460DE50E288E
:1030400055D00123674A8021019338A8594B12F0CB
:103050006DFA584B584A802138A8009512F066FA4C
:10306000614B624E0793624BDFF8B4810893614B6A
:10307000614F0993614B0F93614B1293614B119315
:10308000614B1093614B0B93614B0E93614B0D930E
:10309000614B0C935AE74FF040431A8892B2402A92
:1030A00027D01A8800240C2192B23C600A9482F046
:1030B0004002C8F8001032600A9A0A99B2FA82F205
:1030C00001F1C041520949009201179118921A88E2
:1030D000079992B20A601A88089992B20A601A880F
:1030E000099992B21B880A609BB20C2226E7022340
:1030F000A8E75A8892B262B101230A930A9B0C2274
:103100003B605B00C8F8002003F140431A8892B28C
:10311000D1E79B889BB2002B0A9B18BF02230A931E
:10312000ECE7052399E40134082C7FF4BFAE0020BE
:103130003A4D044680F4B44C4FF040431FFA8CFCE7
:1031400023F8024BAB42FBD1BFF34F8FBFF36F8F1E
:10315000430003F14043A3F800C0BFF34F8FBFF318
:103160006F8F002102E00131402973D04A0088426C
:103170000CBFE6464FF0000E02F1404213889BB2AE
:103180007345F0D041EA00410798396083EA0E01A7
:103190003160118889B201601188089889B2CDE93F
:1031A000172E1288016092B209990A600622C8F8A7
:1031B0000020C3E6E861010828620108786201087E
:1031C0004C60010854600108AC620108E462010827
:1031D0000863010830630108B063002400004090D8
:1031E000E4630108F06101089463002498630024FB
:1031F000906300248C6300249C6300247863002483
:103200006C630024706300247463002488630024CA
:103210007C6300248063002484630024800000C059
:10322000A063002432600B223960C8F800200798A0
:103230009CF80230036008989CF802300360A148B3
:103240009CF80230CDE9170109990B609CF8023017
:10325000DBB273E6013040287FF46CAF2AAD4FF04B
:1032600000094FF04041284613950288448890F8A1
:1032700000C0120A90F802E0240A81F800C04A70E7
:1032800081F802E0CC70BFF34F8FBFF36F8F0D78E2
:10329000043091F801A091F802B0AC45CB785FFA08
:1032A0008AFA5FFA8BFBDBB20A93EBB240F09F80A5
:1032B000524540F09C80DE4540F0B6800A9BE31A00
:1032C00018BF0123002B40F0AF8009F10109B9F1CB
:1032D000080FCAD1139D0DF1A80E9B464FF0404137
:1032E00000221FFA82F9BEF800C0BEF8020089EA87
:1032F0000C0C89EA0009A1F800C0BFF34F8FCDF88C
:1033000068B002E01A9801301A901A98C728F9D9C3
:10331000A1F80290BFF34F8FBFF36F8F0C88B1F805
:1033200002A0A4B21FFA8AFAA44540F04381B9EB87
:103330000A0018BF0120002840F03C81013204310E
:10334000402ACED101330EF1040E082BC6D1864699
:103350000DF1A8094FF04040002108E0BCEB0A0441
:1033600018BF0124ECB90131402900F0B1801FFAE7
:1033700081FCB9F80020B9F802308CEA02028CEA2C
:10338000030C0280A0F802C0BFF34F8FBFF36F8F12
:103390000388043030F802AC9BB21FFA8AFA9A42D2
:1033A000DCD041EA0E409A4238600CBF0120002078
:1033B00000EB41014FF007004FEA4101C8F800005F
:1033C00001F1404100F01D810888079C80B2206017
:1033D0000888089C80B2206082EA03003060088878
:1033E00080B2099CCDE9171220600522A6E59C4514
:1033F0004FEA094934D00A224FF04040C7F8009004
:10340000C8F800208CEA0302079C3260624601780B
:103410002160089C017821600178C9B2099CCDE93E
:10342000170221600A2289E54FEA0949DE4530D0BA
:103430000A234FF0404149F00209079CC8F80030C8
:103440008EEA0B03C7F80090724633605B468878BB
:103450002060089C8878206089781A48C9B2DDE726
:103460005245E3D00A234FF0404149F00109079C3F
:10347000C8F8003082EA0A03C7F800903360534668
:1034800048782060089C4878206049780E48C9B286
:10349000C4E70A980A234FF0404149F00309C8F8ED
:1034A000003084EA0003C7F80090224633600346E8
:1034B000079CC8782060089CC8782060C9780348B9
:1034C000C9B2ABE7020000C0010000C0030000C0A9
:1034D0000EF1010E09F10409BEF1080F7FF43AAFB5
:1034E000A6464FF0404B2C884FF04042688800239E
:1034F00099B20133043284EA010C402B81EA0001C5
:1035000022F804CC22F8021CF2D1BFF34F8FBFF394
:103510006F8FBBF80030BBF802C0B5F802909BB2C9
:103520001FFA8CFCB5F800A0CC4540F0B380B3EB9B
:103530000A0218BF0122002A40F0AC808F490132F4
:10354000402A90B275D00B888AEA0004B1F802C014
:1035500089EA00009BB204311FFA8CFC9C4201D125
:103560006045ECD02146044642EA0E40994238605C
:103570000CBF0120002000EB42024FF005004FEA93
:103580004202C8F8000002F1404200F08780108833
:10359000079C80B220601088089C80B2206081EA7D
:1035A00003003060108880B2099CCDE917212060AB
:1035B0000522C3E442EA0343A44507993B600CBFDC
:1035C0000123002303EB42024FF008034FEA4202BB
:1035D000C8F8003002F1404213889BB20B60138898
:1035E00008999BB20B601CD08CEA040311886046DA
:1035F000336089B22346099CCDE917202160082257
:103600009CE40B88079A9BB213600B88089A9BB2C4
:10361000088813608CEA0A0380B26246336053461E
:10362000DFE689EA0A0311884846336089B25346C7
:10363000E1E70EF1010E0435BEF1080F7FF453AF40
:1036400000234F499A0083EA0100013302F140420E
:10365000B3F5806F1060F5D1BFF34F8FBFF36F8F5D
:103660000022474803E00132B2F5806F26D0930074
:1036700082EA000103F140431C688C42F3D01793A7
:103680001B683A60022218915940C8F800200122B4
:10369000316053E44C465146002265E71388079990
:1036A0009BB20B60138808999BB210880B608CEA60
:1036B000040380B221463360634675E70023314935
:1036C0005A0083EA0100023302F14042B3F5006F71
:1036D0001060F5D1BFF34F8FBFF36F8F00222948E1
:1036E00003E00132B2F5806F12D0930080EA42010C
:1036F00003F140431C688C42F3D017931B683A6077
:10370000032218915940C8F800200222316015E4C4
:1037100024AB00211C4C184650F8042B013102F157
:103720004045062982EA04022A60F5D1BFF34F8F93
:10373000BFF36F8F0021144C53F8042B02F140406B
:103740006240056895420CD101310629F4D100236D
:103750000E4A802138A800930D4B11F0E7FEFFF7C9
:1037600081B9036818925A40396017903260042278
:10377000C8F800200322FFF7E1BB00BF040000C02F
:103780000000A5A500005A5A6824571328620108B2
:103790002462010808B500224FF40041254805F0D5
:1037A000EFFA01222348114605F0EAFA4FF480713E
:1037B0000122204805F0E4FA1E2002F0B9FE1E4B5B
:1037C00000221C481B78012B14BF01214FF480718B
:1037D00005F0D6FA502002F0ABFE00224FF4004173
:1037E000144805F0CDFA1E2002F0A2FE01224FF48B
:1037F0000041104805F0C4FA502002F099FE9620CE
:1038000002F096FE00224FF400410A4805F0B8FA93
:103810001E2002F08DFE01224FF40041054805F004
:10382000AFFA502002F084FE9620BDE8084002F076
:103830007FBE00BF00000258AC630024012801D9FC
:103840000120704738B50122104D114B002411465C
:10385000287010481C7005F093FA4FF48071012213
:103860000C4805F08DFA1E2002F062FE2B782246ED
:103870000848012B14BF01214FF4807105F080FA34
:10388000502002F055FE204638BD00BFAC63002436
:10389000AD6300240000025830B5002383B08DF8DA
:1038A00006308DF8073078B10D4669B10446012223
:1038B000FF21602000F0CCFA30B91C2160200DF10E
:1038C000060200F0E7FB10B1012003B030BD0DF19E
:1038D00007021D21602000F0DDFB0028F4D19DF8D7
:1038E00006100DF106029DF80730602043EA01231F
:1038F0000A21238000F0CEFB0028E5D10DF107025C
:103900000B21602000F0C6FB0028DDD19DF80620C9
:103910009DF8073043EA02232B80D6E738B5104CD8
:1039200004F1100501E0AC4209D0627860202178F2
:10393000023400F08DFA0028F5D0012038BD094C82
:1039400004F10E0501E0A542F8D0627860202178EC
:10395000023400F07DFA0028F5D00120EEE700BF28
:103960000C650108FC640108B0F5A07F12D1B1F12B
:10397000F00218BF01226AB9FF21602008B500F0EB
:1039800067FA28B90422E021602000F061FA18B13A
:10399000012008BD0120704750225A21602000F00C
:1039A00057FA0028F4D13C225B21602000F050FA45
:1039B0000028EDD102465C21602000F049FA002881
:1039C000E6D10246E021602000F042FA003818BF3C
:1039D000012008BD38B5084C04F15C0501E0AC429B
:1039E00008D0627860202178023400F031FA002893
:1039F000F5D0012038BD00BF9464010838B50C4BE8
:103A00001B7893B10B4B1A687AB10B4802210B4B10
:103A100005681B68EC68CB4044F00104EC6002F0E0
:103A20000FFF003818BF012038BD012038BD00BF8E
:103A3000AD630024A8630024D84B0024A4630024B1
:103A4000024A034B10601960704700BFA86300244E
:103A5000A4630024F8B570B3B1FA81F60D46760977
:103A600049B30446032726802E80FFF793FE00F01B
:103A7000A7F90122FF21602000F0EAF9802212213B
:103A8000602000F0E5F9322002F052FD2946204680
:103A9000FFF702FF034647F6A27242F2426C9620FD
:103AA0002BB92188914202D12A88624504D002F0C4
:103AB0003FFD013FD7D101231846F8BD70B5002363
:103AC00082B04D4E0122FF216020ADF80430ADF8E8
:103AD0000630337000F0BCF912218022602000F023
:103AE000B7F9322002F024FD962002F021FD0DF1FD
:103AF000060101A8FFF7D0FE28B9BDF8042047F65B
:103B0000A2739A4237D0FFF745FE00F059F901221F
:103B1000FF21602000F09CF912218022602000F03B
:103B200097F9322002F004FD962002F001FD0DF11C
:103B3000060101A8FFF7B0FE28B9BDF8042047F63A
:103B4000A2739A4202D0012002B070BDBDF80620D7
:103B500042F242639A42F6D1284C04F5B27501E074
:103B6000AC420FD0627860202178023400F070F906
:103B70000028F5D0E7E7BDF8062042F242639A42FA
:103B8000C1D1E9E71E4C04F10A0501E0A54208D0C5
:103B9000627860202178023400F05AF90028F5D0CC
:103BA000D1E7184C04F1100501E0A54208D0627875
:103BB00060202178023400F04BF90028F5D0C2E7EC
:103BC000114C04F10E0501E0A54208D06278602096
:103BD0002178023400F03CF90028F5D0B3E79620B4
:103BE00002F0A6FCF0214FF4A070FFF7BDFE002804
:103BF000A9D101233370A7E7AD6300241C65010838
:103C0000F06401080C650108FC6401082DE9F04F1F
:103C1000664C074685B04FF0070CDFF8A0E14FF087
:103C2000100920780021624E4FF48018614B624DDC
:103C300047FA0CF2D2074CBF08224FF40022CEF80C
:103C4000182000287BD02A68D3F804B0A6FB022AEB
:103C50005A684FEA9A4AA2EB0B020AEB8A0A92458B
:103C60007CD900BF5A68A2EB0B029245F9D82078A4
:103C7000CEF81890002853D02A68D3F804B0A6FBD9
:103C8000022A5A684FEA9A4AA2EB0B020AEB8A0A06
:103C9000924506D900BF5A68A2EB0B029245F9D8AB
:103CA00020780CF1FF3CCEF81880BCF1FF3FBFD16B
:103CB0000823CEF81830002856D03F4D3C4A2B68D8
:103CC0003C49A2FB03324868920C4B6802EB82022B
:103CD0001B1A9A4266D900BF4B681B1A9A42FAD83F
:103CE00021781022354B9A6100294CD0324D304B4F
:103CF0002A683049A3FB02324868920C4B6802EBF9
:103D000082021B1A934204D200BF4B681B1A9A42CC
:103D1000FAD82A4B4FF480129A6105B0BDE8F08FB3
:103D200005200091009A182A06D800BF009A013297
:103D30000092009A182AF8D90138F2D1B0E705208C
:103D40000191019A182A06D800BF019A0132019206
:103D5000019A182AF8D90138F2D188E7174A4FF0AA
:103D6000100AC2F818A087E705220390039B182BBE
:103D700006D800BF039B01330393039B182BF8D98C
:103D8000013AF2D1ACE705220291029B182B06D82A
:103D900000BF029B01330293029B182BF8D9013A12
:103DA000F2D1B6E71023CEF81830A0E7AE630024B6
:103DB00083DE1B43001000E00800002400040258CA
:103DC000F0B51E4B89B000251D4C01260227069533
:103DD0002046D3F8E02042F00202C3F8E02010228F
:103DE000D3F8E03003F0020301931123019902A9F3
:103DF000CDE90223CDE9046704F086FC08221123F3
:103E000002A92046CDE90223CDE9046704F07CFC39
:103E10000C49082210230C48A261A361D1F8FC20B0
:103E20000A4B42F08072C1F8FC2001215D601A68E3
:103E30000A431A60017009B0F0BD00BF0044025887
:103E40000004025800ED00E0AE630024001000E022
:103E50002DE9F0418A4B082486B00D469C61102460
:103E6000804616469C61874C2178002900F0988096
:103E7000854F864A38688649A2FB00C2D1F804C043
:103E8000920CD1F804E002EB8202AEEB0C0E72450C
:103E900040F2F18000BF4B68A3EB0C039A42F9D8C3
:103EA00021784FF40022764B9A61002900F0B78008
:103EB000754F764B3A687649A3FB0232D1F804C0BD
:103EC000920C4B6802EB8202A3EB0C039A4240F285
:103ED000B58000BF4B68A3EB0C039A42F9D84FF4AE
:103EE000801308F0FE00DFF898812778C8F81830B2
:103EF000FFF78CFE2846FFF789FE3046FFF786FE67
:103F00004FF40023C8F81830002F79D05E4F5F4B74
:103F10003A685F49A3FB02324868920C4B6802EB97
:103F200082021B1A9A4240F29E8000BF4B681B1A05
:103F30009A42FAD821781022514B9A61002950D028
:103F4000514F524B3A685249A3FB02324868920CD7
:103F50004B6802EB82021B1A9A4240F2888000BF33
:103F60004B681B1A9A42FAD821780822444B9A616E
:103F700029B3454F454B3A684549A3FB023248688F
:103F8000920C4B6802EB82021B1A9A4204D900BFC2
:103F90004B681B1A9A42FAD8002006B0BDE8F0819F
:103FA00005220291029B182B06D800BF029B013309
:103FB0000293029B182BF8D9013AF2D170E705223F
:103FC0000391039B182B06D800BF039B0133039377
:103FD000039B182BF8D9013AF2D1002006B0BDE8B6
:103FE000F08105220491049B182B06D800BF049B86
:103FF00001330493049B182BF8D9013AF2D1B3E7AB
:1040000005220597059B182B06D800BF059B013399
:104010000593059B182BF8D9013AF2D18AE70522BE
:104020000191019B182B06D800BF019B013301931E
:10403000019B182BF8D9013AF2D150E74FF48013C5
:1040400008F0FE00DFF83880C8F81830FFF7DEFD12
:104050002846FFF7DBFD3046FFF7D8FD4FF400237D
:10406000C8F8183053E7064B10229A6169E7044BF1
:1040700008229A617EE74FF400229A6119E700BF97
:1040800000040258AE6300240800002483DE1B43B2
:10409000001000E0002A00F04C82DFF8E0C20823A4
:1040A0002DE9F04FB14E93B0CCF8183010230746ED
:1040B0000D46CCF8183092463478002C00F0F3818D
:1040C000AB4BAC481A68AC49A0FB02024868920CA2
:1040D000D1F804E002EB8202AEEB000E724540F232
:1040E000F98200BF4B681B1A9A42FAD834784FF411
:1040F0000022A24B9A61002C00F0A1829C4B9D49AA
:104100001A68A1FB02129C49920C4868D1F804C0BD
:1041100002EB8202ACEB000C624540F2108300BF60
:104120004B681B1A9A42FAD84FF48013DFF84C827E
:10413000347807F0FE00C8F81830FFF767FD28460E
:10414000FFF764FD4FF40023C8F81830002C00F08E
:104150006782874B87491A68A1FB02128649920C35
:1041600048684D6802EB82022D1AAA4240F2E382AF
:1041700000BF4B681B1A9A42FAD8347810227F4B42
:104180009A61002C00F09782794B7A491A68A1FB5A
:1041900002127949920C48684D6802EB82022D1A8E
:1041A000AA4240F2C48200BF4B681B1A9A42FAD856
:1041B00034780822714B9A61002C00F06D826C4BB0
:1041C0006C491A68A1FB02126B49920C48684D6851
:1041D00002EB82022D1AAA4240F2A38200BF4B6872
:1041E0001B1A9A42FAD8654B082234789A61102239
:1041F0009A61002C00F041825D4B5E491A68A1FB78
:1042000002125D49920C48684D6802EB82022D1A39
:10421000AA4240F2818200BF4B681B1A9A42FAD828
:1042200034784FF40022554B9A61002C00F016822E
:104230004F4B1A684F4B5049A3FB02324868920C0F
:104240004B6802EB82021B1A9A4205D900BF4B68E9
:104250001B1A9A42FAD8347847F00100474D4FF4C0
:104260008017DFF810814FF01009AF61FFF7CEFC27
:10427000082300214FF0070CAB6108463E4BDFF8E6
:10428000F0E0CDF804A0002C00F01C81DEF8002046
:10429000A8FB02A2D3F804A0D3F804B0920CABEBB5
:1042A0000A0B02EB82025A4540F22A8100BF5C6889
:1042B000A4EB0A04A242F9D83478C5F818902A6908
:1042C000C2F3C00202FA0CF20A43D1B2002C00F091
:1042D0000881DEF80020A8FB02A2D3F804A0D3F8DE
:1042E00004B0920CABEB0A0B02EB82025A4540F28F
:1042F000148100BF5C68A4EB0A04A242F9D80CF157
:10430000FF3C3478AF61BCF1FF3FBCD1DDF804A0C5
:10431000002C00F04F81164B16481A68A0FB0202D1
:104320001548920C4468456802EB82022D1BAA4294
:1043300040F2EE8100BF43681B1B9A42FAD83078E6
:1043400010220E4B9A61002800F02581084B094885
:104350001A68A0FB02020848920C4468456802EB08
:1043600082022D1BAA4240F2CE8109E0AE630024F6
:104370000800002483DE1B43001000E00004025804
:1043800000BF43681B1B9A42FAD830784FF4801262
:10439000974B9A61002800F0EF80964B96481A6878
:1043A000A0FB02029548920C4468456802EB820229
:1043B0002D1BAA4240F2A28100BF43681B1B9A42F8
:1043C000FAD830784FF40022894B9A61002800F027
:1043D000C480884B88481A68A0FB02028748920C68
:1043E0004468456802EB82022D1BAA4240F27F819D
:1043F00000BF43681B1B9A42FAD88AF800104FF49A
:10440000002133787A4A9161002B00F0F980794BD2
:1044100079481A687949A0FB02024868920C4C68F6
:1044200002EB8202241A944280F05D8100BF4B6847
:104430001B1A9A42FAD8317810226D4B9A610029E2
:1044400000F0C7806B4B6C481A686C49A0FB0202F5
:104450004868920C4C6802EB8202241A944280F065
:104460003E8100BF4B681B1A9A42FAD83178082265
:104470005F4B9A6100295ED05E4B1A685E4B5F49C4
:10448000A3FB02324868920C4B6802EB82021B1AB3
:10449000934204D200BF4B681B1A9A42FAD80020FC
:1044A00013B0BDE8F08F05220394039B182B06D8A8
:1044B00000BF039B01330393039B182BF8D9013AE8
:1044C000F2D113E605240990099A182A06D800BFEC
:1044D000099A01320992099A182AF8D9013CF2D1B5
:1044E000EAE605240A900A9A182A06D800BF0A9A12
:1044F00001320A920A9A182AF8D9013CF2D1FEE652
:104500003B4A4FF0100AC2F818A01269C2F3C00269
:1045100002FA0CF20A43D1B2DBE60CF1FF3C344A5A
:104520004FF4801ABCF1FF3FC2F818A07FF4AEAE82
:10453000ECE60120704705220F910F9B182B06D83F
:1045400000BF0F9B01330F930F9B182BF8D9013A33
:10455000F2D1002013B0BDE8F08F05220B900B9B29
:10456000182B06D800BF0B9B01330B930B9B182B0A
:10457000F8D9013AF2D140E705220C900C9B182B98
:1045800006D800BF0C9B01330C930C9B182BF8D959
:10459000013AF2D115E705220D900D9B182B06D894
:1045A00000BF0D9B01330D930D9B182BF8D9013AD9
:1045B000F2D1EAE605220E940E9B182B06D800BF16
:1045C0000E9B01330E930E9B182BF8D9013AF2D1B2
:1045D000B5E605221091109B182B06D800BF109B42
:1045E00001331093109B182BF8D9013AF2D13DE713
:1045F000000402580800002483DE1B43001000E082
:10460000052219461191119B182B06D800BF119B4A
:1046100001331193119B182BF8D9013AF2D10AE713
:1046200005220694069B182B06D800BF069B013373
:104630000693069B182BF8D9013AF2D19DE5052285
:104640000294029B182B06D800BF029B01330293F1
:10465000029B182BF8D9013AF2D165E5052207949F
:10466000079B182B06D800BF079B01330793079BB6
:10467000182BF8D9013AF2D1EDE505220894089BF0
:10468000182B06D800BF089B01330893089B182BF2
:10469000F8D9013AF2D1C3E505220494049B182B02
:1046A00006D800BF049B01330493049B182BF8D950
:1046B000013AF2D197E505220594059B182B06D8FF
:1046C00000BF059B01330593059B182BF8D9013AD0
:1046D000F2D16DE54FF40022CCF818200FE5224A04
:1046E00008219161C9E6204A10219161ABE68AF860
:1046F00000104FF400211C4A916189E61A4A4FF4D8
:104700000020906166E6184A4FF48010906145E6FB
:10471000154A102090611AE6134A4FF40021916166
:1047200087E5114A082191611021916165E50E4AE2
:104730000821916144E50C4A1021916125E54FF46F
:104740008012DFF82480019307F0FE00C8F81820DB
:10475000FFF75CFA2846FFF759FA4FF40022019B55
:10476000C8F81820F6E400BF000402580D480122E2
:104770000D49002310B5C0E90012102204241821AD
:104780008361C2604FF480628460C3610362C0E9E8
:10479000041204F09FFC00B910BDBDE81040FDF705
:1047A00035BF00BFB0630024005000522DE9F04136
:1047B000B8B000210446C02208A80791CDE9031132
:1047C000CDE9051110F002FF3B4B22689A4202D05E
:1047D00038B0BDE8F081022305224FF000740025B7
:1047E0000C9350210A9204220D93802308A80B9168
:1047F000CDE90E232023CDE908451B9305F0F4FCF9
:10480000002856D12D4B0225C0210324D3F8D420F3
:1048100000264FF009082A4842F480420A27C3F8CC
:10482000D420D3F8D42002F480420092009AD3F826
:10483000E02042F02002C3F8E020D3F8E02002F0AC
:1048400020020192019AD3F8E0202A43C3F8E02025
:10485000D3F8E030039103A92B400495CDF81C80D8
:104860000293029BCDE9056403F04EFF4FF44073C1
:1048700003A91348039306940797CDE9045603F060
:1048800043FF042303A90F480393CDE90456CDE960
:10489000064803F039FF4022012303A90948049583
:1048A000039206940593079703F02EFF38B0BDE8F6
:1048B000F081FDF7ABFEA5E700500052004402581E
:1048C000001402580004025800B58FB030220021B5
:1048D00002A810F07BFE4FF480714FF440534FF06C
:1048E000FF32069169460A4803939FED077B8DEDE1
:1048F000007B04F04DFC003818BF01200FB05DF8BC
:1049000004FB00BFAFF30080B70000000000000010
:10491000B063002430B59FB0382200214FF4807579
:1049200010A84FF4405410F051FE0021302204A88A
:10493000CDE9001110F04AFEB722002302A9164863
:1049400008950594CDE902234FF0FF3204F020FCD6
:10495000F0B916954FF0407313946C254FF48064B2
:104960006A46109500251794002410A9CDE9180374
:104970000823CDE91A00CDE91C0007481593CDE9BD
:10498000004504F007FD003818BF01201FB030BDFE
:1049900001201FB030BD00BFB0630024074B82B0C0
:1049A000D3F8F42042F00202C3F8F420D3F8F43034
:1049B00003F002030193019B02B0704700440258C8
:1049C0000C4A034630B5946AB5B0D16A956B04A819
:1049D000526B0191C02103920295074A009410F096
:1049E000A5FD4FF0FF3382B204A9044806F0E8FCAD
:1049F00035B030BD00ED00E010640108986400247B
:104A0000FEE700BF0B4D0C4C0C4800B583B0FFF720
:104A1000D7FF0221284604F0B7F900230193019B38
:104A2000A342F6D8019B01330193019BA342F9D91C
:104A3000EFE700BF000402587F8D5B00546401085B
:104A40000B4D0C4C0C4800B583B0FFF7B9FF0221A9
:104A5000284604F099F900230193019BA342F6D85C
:104A6000019B01330193019BA342F9D9EFE700BFFA
:104A7000000402587F8D5B005C6401080B4D0C4CF8
:104A80000C4800B583B0FFF79BFF0221284604F0D5
:104A90007BF900230193019BA342F6D8019B0133CC
:104AA0000193019BA342F9D9EFE700BF000402582C
:104AB0007F8D5B00606401080B4D0C4C0C4800B509
:104AC00083B0FFF77DFF0221284604F05DF9002343
:104AD0000193019BA342F6D8019B01330193019BF3
:104AE000A342F9D9EFE700BF000402587F8D5B00B5
:104AF00064640108704700BF704700BF704700BF83
:104B000001F004BD014803F05BBA00BF5C4B002418
:104B1000014801F06BBF00BFD84B0024014806F0EC
:104B2000F3BC00BF006400240D4903460D4A086829
:104B300010B50D4C121B20B10344934207D80B60F3
:104B400010BD0A4C20460C6003449342F7D910F084
:104B500055FD0C2203464FF0FF301A6010BD00BF18
:104B6000FC63002400000824002000000000002056
:104B70003049314AD1F8883043F4700310B4C1F899
:104B80008830136803F00F03062B05D8136823F051
:104B90000F0343F007031360284B0024284A1968C9
:104BA000254841F0010119601C6119680A401A602A
:104BB0000368190705D5036823F00F0343F00703C3
:104BC00003601E4B00221F491F48204C9A61DA6186
:104BD0001A629C62D86219635A639963DA63196432
:104BE0005A6419681A4821F4802119601A6603680A
:104BF0006FF30F03B3F1005F03D2164B0122C3F82A
:104C000008210E4BD3F8D420D2040FD4D3F8D420EB
:104C100043F2D200104942F48052C3F8D420086015
:104C2000D3F8D42022F48052C3F8D4205DF8044B8A
:104C3000704700BF00ED00E0002000520044025821
:104C40007FEDF6EA800201010000FF01000202028E
:104C50000010005C0080005100400052044AD368FC
:104C600043F00203D36053689B04FCD5704700BF38
:104C7000004802582DE9F04780460D4690F80C9008
:104C800000244FF0FF0AD0E90076B9F1000F55D1AA
:104C9000002F41D1D8F808604FF40072D8F8703076
:104CA00040463146984700283DD0421E33781FBB0E
:104CB000FF2B19D01B064FEA440448BF44F00104FF
:104CC000013D2DD0174640233278C3F347096400D5
:104CD000134235D1013DD8D13A46204688F80C9090
:104CE000C8E90026BDE8F087002DF6D00127002A8C
:104CF000D0D07378821E0136CBB96400012D86F8BE
:104D000000A044F001040BD06400023D44F0010413
:104D100011D017462023D7E7384601364F46C4E75F
:104D20004FF04009D9E76FF00100BDE8F0876FF060
:104D30000500BDE8F0874FF02009CEE74B46C3E7FA
:104D400044F00104C6E700BF2DE9F04F1F468DB0C7
:104D50000E461546002178228046169C10F036FC3F
:104D6000B7F5007FC8E91A57C8E91C64C0F03A8259
:104D7000A7F5007705F50073C8F80850C8E91A3799
:104D8000002D00F02F8200274FF6D8793C4608E02E
:104D90002B78D8F8706043EA04243346A4B24C451B
:104DA00021D00122294640460137B0470128EFD0E3
:104DB00002200DB0BDE8F08FDB2A00F08C80DD2AE8
:104DC00040F01482BBF5007FF3D8D8F870305A4613
:104DD0002946404698475845EAD12B885BBAA8F83F
:104DE0001A30D8F8703004222946404698470428E3
:104DF000DED16A882B8852BA5BBA92B29BB2022A81
:104E000040F2B580190AFF2940F0B180911CA2F14F
:104E1000020BDAB20F44DA2A00F0F281CCDCA2F104
:104E2000C00398B2192800F2E1810123514A83405E
:104E30001A40002A40F04082042800F0A180D807E0
:104E400040F1D481BBF5007F00F28282D8F8703047
:104E50005A462946404698475845A9D1B5F80330E7
:104E60005BBAA8F81C30B5F801305BBAA8F81E3060
:104E70006A7902F0FD0388F81320012B40F01C82B0
:104E8000EB79A3F12101012902D9112B40F0148201
:104E9000190903F00F0388F80E1088F80F302B7AE9
:104EA000032B88F8103000F20782012A99D0AB7AE0
:104EB000112B40F00182EB7A032B88F8113000F2BD
:104EC000FB816B7B112B40F0F781AB7B032B88F8C8
:104ED000123086D9F0E1BBF5007F3FF66AAFD8F813
:104EE00070305A4629464046984758457FF460AF8F
:104EF000BBF1400F3BD905F10209DFF880E019F85A
:104F0000023C48460F2B32D8D8F86C20FF2A40F2DA
:104F10006981A2F58072D8F86860C8F86C2006F53F
:104F20008072C8F86820002E00F05C8103F0030353
:104F3000114A143302F13F0C48F8236019F8013C80
:104F40005B03336012F8011F10F8013B3EF811407B
:104F5000944504FB03F346F82130F3D1BBF1410B38
:104F60003FF43FAFBBF1400F09F14109C7D806201C
:104F70001FE700BFEEEE0002106B0108906A010807
:104F8000BBF5007F3FF615AFD8F870305A4629467A
:104F90004046984758457FF40BAFBBF1100FE6D958
:104FA000AC463E465A462C469CF8003013F0EE07BD
:104FB000DDD1D8F86C100F2940F214811039D8F8DF
:104FC0006800C8F86C1000F11001C8F868100028DB
:104FD00000F00881190903F00F0301EB430303916B
:104FE00008EB830108629CF8013003709CF80250C2
:104FF00045701D449CF8033083701D449CF80430B8
:10500000C3701D449CF8053003711D449CF80630A4
:1050100043711D449CF8073083711D449CF808308F
:10502000C3711D449CF8093003721D449CF80A307A
:1050300043721D449CF80B3083721D449CF80C3065
:10504000C3721D449CF80D3003731D449CF80E3050
:105050001D4443739CF80F3083732B449CF810500D
:105060002B44C573D8F86C504FEA430E0EF1030E73
:105070002EF0030EAE4500F2B580D8F86890A5EB8F
:105080000E0509EB0E0AC8F86C50C8F868A0B9F113
:10509000000F00F0A78000F1FF3E00F10F0B384633
:1050A000C1F830900A930B94CDE906254546CDE929
:1050B0000416CDE908AC1EF8014F661E002C54D032
:1050C000022E40F2FB80002300F1020CC11C00F113
:1050D00001081A4660F30F036CF30F024FEA940CB9
:1050E00068F31F4361F31F4209EB470101EBCC0C4E
:1050F000CDE901E94FF0000E03F1040AC3F30F49B3
:105100000B604A60083109F10403F1466AF30F0E9F
:105110008C4563F31F4E734602F1040E6EF30F09C4
:10512000C2F30F4E0EF1040E6EF31F494A46E1D151
:1051300024F00303A107184403EB0702A6EB0303C3
:1051400080B2DDE901E90CD0411C29F812005200BF
:1051500089B233B102304A44012B80B2518000D071
:10516000908016FA88F0274480B24000DE4580B275
:10517000A1D1069AA8460A9BA2F11107079D0B9C94
:105180009F42DDE90416DDE908ACFFF4F0AEDA1C5D
:1051900022F00302954225D3AD1A5244C8F86C5050
:1051A000C8F868200CF11102C1F840A0002B00F0F3
:1051B0008A8003990AF1FF3A81F0010003F111019D
:1051C00000F001008C4403E094450AF8011F7BD0F5
:1051D00012F8011B0B29F7D90028F5D0C7E60023E8
:1051E000C8F8603003200DB0BDE8F08FD8F87030FB
:1051F0005A4600214046984758453FF4F2ADD7E55E
:10520000BBF5007F3FF6D5ADD8F870305A46294639
:105210004046984758457FF4CBADB8F81C30002B7A
:105220003FF4A5AEB8F81E30002B3FF4A0AE98F8BE
:1052300013202B7893423FD1002B4BD0AA780AB190
:10524000112A39D1D8F82020002A3FF490AED8F89E
:105250002420002A3FF48BAE98F81020143258F81E
:105260002220002A3FF483AE012B33D02A790AB1E1
:10527000112A21D1D8F82820002A3FF478AED8F896
:105280002C20002A3FF473AE98F81120143258F8FD
:105290002220002A3FF46BAE022B1BD0AA790AB160
:1052A000112A09D198F81220143258F82220002A25
:1052B0003FF45DAE032B0DD008207AE533463A4625
:1052C00000F1010840E79446FA1A47D0102A3FF649
:1052D0006BAE4CE698F80F3098F80E2013FB02F3F3
:1052E000002B3FF444AEDA01D8F86C104032B2F52E
:1052F000807F38BF4FF480728A423FF670AFD8F893
:105300006800891A0244C8F86C10C8F86000C8F830
:10531000682000283FF466AF9B018033994219D37F
:10532000C91AC7F308071344C8F86C10C8E9192351
:1053300047B1D8F87030C7F50072E9194046984770
:10534000C8F80000013F00203D44C8F8045030E593
:1053500004202EE50023C8F8643043E7374625468D
:105360003FE500BF2DE9F04F032A97B00F9100F2FF
:10537000D8861346817B002283464373C900C37BD2
:105380000E91DD00C38B42610283002B00F0868406
:10539000818B0B920A920792002900F079840023F6
:1053A0001095CDF808B00893029B5A8B32B10A9938
:1053B0004B1C8A429BB200F077860A93029DAA7B1F
:1053C000EB7B296E12FB03F36A6E04910C93099236
:1053D000C3F10102013B05920D930D9B059A0C99B7
:1053E0001344994200F27584002A00F09684EB7C05
:1053F000032B40F096849246012305EBC302297BE0
:10540000DC004FF00008D2F820B0D2F83090166CD3
:105410001022CDF804A0009222460C46D5E90037B0
:1054200039461746002C40F0B883002B40F0C1836A
:105430001C46CA46A9684FF400722B6F2846039198
:1054400098470399002800F04F84431E0A78002CE7
:1054500040F0B783FF2A00F03484802040244FEAD4
:105460004808104240F0A2839BF80020002A00F078
:10547000898309EB420904E0CA4506F1010600F000
:1054800081833AF8022B4245F6D13A46DDF804A072
:105490000F46214605EB4A0814462973C5E9003733
:1054A00096F80090B8F91460B9F1000F14D049468D
:1054B0002846FFF7DFFB031EC0F2378609F1FF39EC
:1054C000012202FA09F2134203D15200C2F1010291
:1054D00013441E44A8F81460AA44012704982C44DD
:1054E0009AF81030A846FC220021143355F82330D6
:1054F00006931B6806FB03F33E461B1240F8043B71
:1055000010F064F80394039A4FF0100900960027F6
:10551000D2F824A0546B556C98F80C20D8E90031CF
:105520001646002E40F00983002B40F00B831E46E8
:10553000A346D8F808104FF40072D8F870304046EF
:10554000019198470199002800F0CE83431E0A7804
:10555000002E40F0EA82FF2A00F0E0824026802000
:1055600010424FEA470740F0E6829AF80000002810
:1055700000F0C88204EB400404E0A34505F10105F6
:1055800000F0C0823BF8022BBA42F6D13246009EB0
:1055900088F80C20C8E900312C78002C00F0A88392
:1055A00006EB14153F2D00F2B58214F00F0440F005
:1055B000CD823F2D05F10106A5D145466B7B032B1E
:1055C00000F09A83049B4FF4B559009503F1200B2A
:1055D000196A42F6CF15186E0433D3F8DC20D3F8DD
:1055E0009C708E1A0A44391ADC6B0744D3F8BC004D
:1055F00006EB010C05FB01F141F2511553F8048C47
:10560000091304EB000E05FB06F641F69055361320
:1056100005FB0CFCC1EB2C31C6EB2C3602EB070C66
:10562000D21B271AD86FA1EB0C0109FB07F75B45CA
:1056300008EB0004A8EB0000CEEB273709FB02F2D1
:1056400004EB0E08A4EB0E0400EB070EA0EB070022
:10565000A8EB0C07C1EB223208EB0C0AC3F8DC7094
:105660000EEB0107AEEB0101A6EB020643F804AC1A
:10567000C3F8BC1000EB0201A0EB0200DF61D963AC
:1056800004EB0601A4EB0604C3F89C00D965DC67B3
:105690009ED1DDF824E00EF1400A53F81C4C42F68E
:1056A000CF1553F8146C0EF1080E53F8042C203368
:1056B00053F82C0CA11A2244841B304453F8389C14
:1056C00005FB04F701EB040C41F2511453F8286C6C
:1056D0004FF4B55504FB01F441F69051A9EB060BCC
:1056E000B14401FB0CFC2413391353F8407CC4EB88
:1056F0002C3405FB0BF8C1EB2C3102EB000C121A19
:1057000007F50047A1EB0C0153F8300C05FB02F242
:10571000C9EB28383E18381AC1EB22324FF0000B83
:1057200006EB0907A6EB0906A41A00EB0809A0EB93
:105730000800A6EB04082644C8F30928C6F3092488
:10574000CA4E354616F8086066F3070B07EB0C06E1
:10575000A7EB0C07A0EB020C1044C6F30926CCF310
:10576000092CC7F30927C0F30922AE5D15F80C0018
:1057700009EB010C2C5D60F30F2BA85CA9EB010277
:10578000CCF30921EF5DC2F30922695CAA5C62F3E4
:10579000174B002266F3070267F31F6B61F30F22BA
:1057A0004EF804BC60F3174264F31F624EF8082CF5
:1057B000D6457FF472AF009D059BCDF824A0013340
:1057C000032B05937FF409AE029A0823089DD17B31
:1057D000907B948BCA0010FB03FB079E13FB0053C6
:1057E0000392029A0FB2A34288BF631BD58B4FEA84
:1057F000C10298BF5B463244AA42029A527B8CBFD8
:10580000AD1BCD00D34025FA02F600F03482B6FA83
:1058100086F84FEA5818002E00F02D82089D032AC2
:1058200025FA02F4079DA4B2ADF8504004F1FF340C
:105830001C44ADF8524025FA02F4A4B2ADF854402D
:1058400004F1FF343444ADF85640029C256E00F05C
:10585000C582002900F0C581022800F03B83840145
:10586000424640F29B5A4FF4B0780C9400EB40044F
:1058700040F2167E0996E4000494C4000194840169
:1058800000940446CDE905B3029B02295E6E00F048
:105890002482009B06EB030C06EBC209002C48D0C7
:1058A000019BEE1C0D9409EB030B1392CDE911152E
:1058B0009CF8405040F2DB229CF800100336803DFB
:1058C00019F8010B80390CF1010C0AFB05F408FBF7
:1058D00001F3002C0EFB01F102FB0533634DB8BF51
:1058E00004F2FF34002B00EBA424B8BF03F2FF3313
:1058F0000029C4F30904A0EBA323B8BF01F2FF31D0
:105900002C5DCB45C3F3090306F8064C574CE35C0A
:1059100006F8053C00EBA1235449C3F30903CB5C13
:1059200006F8043CC4D1049B0D9C139ADDE91115C3
:105930001D44009B01320833082A0093A4D120465D
:10594000039C099E082CDDE905B36BD0FC00009098
:10595000139640F29B5A0994402440F2DB294FF4FD
:10596000B07840F2167E2E462046CDF834B0CDE910
:105970001113029B5D6E119B022B00F026820C9B83
:105980001F182F44009B05EB000C002B40D0019BFF
:10599000F51C0CEB030BCDE9056097F8406003356F
:1059A00039780137803E1CF8010B80390AFB06F478
:1059B00008FB01F3002C0EFB01F109FB06332B4E13
:1059C000B8BF04F2FF34002B00EBA424B8BF03F2ED
:1059D000FF330029C4F30904A0EBA323B8BF01F2ED
:1059E000FF31345DE345C3F3090300EBA12005F863
:1059F000064C1E4CC0F30900E35C05F8053C1B4B4C
:105A00001B5C05F8043CC8D1049BDDE905601E441D
:105A10000132099B08309342ABD10098DDF834B0D5
:105A2000DDE9123602994A7B0D6E002A00F0D9801A
:105A30004FF0010C4FF0030E4FEA420A0BFA02F44A
:105A40000CFA02FC0EFA02FE0BEB4B0800270028B2
:105A500000F0C180CDF810A00EF1030E2946B94622
:105A6000DDF808A0CDE9053602E000BF9066010828
:105A700000200997EB1C0C9407461A46634607EB77
:105A80000900D44600EB40000144BBB30024264685
:105A900025462046CDE900B7CF1C01EB0E0B17F8C9
:105AA00003AC0337554417F805AC564417F804AC5B
:105AB000BB455444F3D1013041448342ECD10499B5
:105AC000CD40CE40CC40EDB2F6B2E4B2DDE900B755
:105AD0001F4402F8035C02F8026C1546BB4502F84D
